:020000040800F2
:1000000000040020470100089D0100089F0100082E
:10001000A1010008A3010008A501000800000000DC
:10002000000000000000000000000000A701000820
:10003000A901000800000000A73A0008AD0100086F
:1000400067010008670100086701000867010008F0
:100050006701000867010008CD2800086701000853
:1000600067010008D7280008DD280008670100089C
:1000700067010008670100086701000867010008C0
:1000800067010008670100086701000867010008B0
:1000900067010008670100086701000867010008A0
:1000A0006701000867010008670100086701000890
:1000B0007B29000867010008670100086701000844
:1000C0006701000867010008670100086701000870
:1000D0006701000893020008670100086701000833
:1000E0006701000867010008670100086701000850
:1000F0006701000867010008670100086701000840
:10010000670100086701000867010008670100082F
:10011000670100086701000867010008670100081F
:10012000670100086701000867010008670100080F
:10013000DFF80CD003F0DCFD004800477501000833
:1001400068180020704708488047084981F30888EC
:1001500007480047FEE7FEE7FEE7FEE7FEE7FEE7AB
:10016000FEE7FEE7FEE7FEE745010008681800200D
:100170003101000810B502F07BF902F0B6FD04234E
:10018000044A0021044803F0CBF802F0BBFE002033
:1001900010BD0000C4010020FB2A00087047FEE7E4
:1001A000FEE7FEE7FEE770477047704710B502F0C4
:1001B00029FE02F0EDFEBDE8104002F02DBE000069
:1001C00030B587B0012144F2040001F0CBF94FF4BF
:1001D0000070ADF8100003248DF8124018205E4D19
:1001E0008DF8130004A9284600F0EFFF2915ADF89B
:1001F000101004218DF8131004A9284600F0E5FF23
:1002000025208DF814008DF815408DF8164001203A
:100210008DF8170005A801F066FB4FF4E13000905F
:100220000020ADF80400ADF80600ADF80800ADF808
:100230000C000C20494CADF80A006946204601F03C
:1002400012FA012240F22551204601F079FA0121EB
:10025000204601F06BFA07B030BD10B53F4C0146A7
:10026000204601F0B9FA8021204601F002FB002867
:10027000F9D010BD70B5394D04462021284601F053
:10028000F8FA002804D0284601F0AAFA20700120CC
:1002900070BD10B5314C40F22551204601F0F3FA03
:1002A000002808D0204601F09BFA2E4A2C4B1188DA
:1002B0005854491C118010BD2DE9F0410024294DEE
:1002C000274E274609E0305DFFF7C7FF2888401E0C
:1002D000A04200D12F80641CA4B228888442F2D3AB
:1002E000BDE8F0414FF480611D4803F0B6BC10B585
:1002F0000446C0B2FFF7B1FF204610BD10B5194C3F
:10030000002122880AB1164A05E0084610BD535C58
:100310004354491C89B223889942F8D34FF4806131
:100320000F4803F09AFC20880021218010BD00298D
:1003300003D0012901D103F00DBD7047002210B593
:1003400002231146104603F0ECFA002106A0FFF745
:10035000EEFFBDE81040AFE7000801400038014063
:10036000C8010020000000204563686F0D0A0000EE
:1003700003F04ABCF8B50121082001F0EAF84FF477
:1003800000700324ADF800008DF8024014258DF8AC
:1003900003506946FE4E304600F017FFB015ADF829
:1003A00000008DF802408DF803506946304600F099
:1003B0000CFFF8BD0A20401E10F0FF00FBD1704773
:1003C000F34800B510304FF48071016042150260AF
:1003D000FFF7F0FFEE4A08321068ED4B1433196056
:1003E000FFF7E8FF1068C00501D5002000BD1960C7
:1003F000FFF7E0FF012000BDE54900B514314FF4DF
:1004000000730B60FFF7D6FF4FF480720A60FFF7AE
:10041000D1FFDF4910310B60FFF7CCFF0A605DF8B8
:1004200004EBC7E7DA4900B514314FF400720A60F3
:10043000FFF7C0FF4FF480700860FFF7BBFFD448A0
:1004400010300260FFF7B6FF0A605DF804EBB1E719
:10045000CF4A00B514324FF400711160FFF7AAFFC4
:10046000CB4B4FF4807010331860FFF7A3FF196077
:10047000FFF7A0FF11605DF804EB9BE7C44A10B5DD
:1004800014324FF400711160FFF794FFC04B4FF42A
:10049000807010331860FFF78DFF1960FFF78AFF37
:1004A000BB48083000681160C00504D5B9A003F04E
:1004B00051FC002010BD012010BD70B50821B44BC7
:1004C0004D0114338C0102461E1F0DE0FFF772FF31
:1004D000100601D5356000E01D605006020EFFF7E2
:1004E00069FF3460FFF766FF0800A1F10101C9B29E
:1004F0001C60EBD170BD70B50822A54D00215001E4
:1005000010352860A24E43002C1D08360CE048062A
:10051000010E2360FFF74EFF2B60FFF74BFF3068A3
:10052000C00501D541F001011000A2F10102D2B2D3
:10053000EDD12360084670BD30B5FFF741FFA02024
:10054000FFF7BBFF0020FFF7B8FF944D0024285DA4
:10055000FFF7B3FF641CE4B2102CF8D3BDE83040C1
:100560004AE730B5FFF72CFFA020FFF7A6FF0020D9
:10057000FFF7A3FFFFF724FFA120FFF79EFF874DA2
:1005800000241035FFF7B7FF28550F2C08D0FFF7D0
:1005900049FF641CE4B2102CF4D3BDE830402BE7D3
:1005A000FFF756FFF5E770B500217DA0FFF7BFFE0E
:1005B000FFF7C2FF002205231146104603F0B1F9F0
:1005C000FFF7CFFF754D0024103579A0295D03F0AA
:1005D000C1FB641CE4B2102CF7D3BDE870400022CC
:1005E0004FF4FA731146104603F09BB970B51646E6
:1005F0000C460546FFF7E4FE002817D00E2000EA5F
:10060000D41006F0FE010843FFF757FFFFF736FF4F
:1006100068B1E0B2FFF751FFFFF730FF2846FFF760
:100620004CFFFFF72BFFFFF7E7FE012070BDFFF740
:10063000E3FE002070BD2DE9F0411F4616460C4632
:100640000546FFF7BDFE002813D00E2000EAD610A5
:1006500007F0FE010843FFF730FFFFF70FFF28B157
:10066000F0B2FFF72AFFFFF709FF0AE0FFF7C4FE29
:100670000020BDE8F0812878FFF71FFFFFF7FEFE9E
:100680006D1C2000A4F10104E4B2F4D1FFF7B4FE24
:100690000120EEE72DE9F047054612F007009946E4
:1006A0001446C0F108074FEAD10601F007080FD041
:1006B0006EB3C81BC0B2C60800F007089FB322463D
:1006C00039462846FFF7B7FFE01984B23D442AE0D7
:1006D000EEB14B46224608212846FFF7ACFF08340E
:1006E000761EA4B20835F6B20A2003F08DFA002E69
:1006F000EFD15FEA080025D001464B462246284646
:10070000FFF799FFBDE8F0470A2003F07DBA2246C3
:10071000414613E04B46224608212846FFF78BFF4F
:100720000834A4B208353000A6F10106F6B2F1D1C2
:100730005FEA080006D04B46224601462846BDE83F
:10074000F04778E7BDE8F0872DE9F0411E461746EF
:100750000C460546FFF734FE00288AD00E2000EA3A
:10076000D71806F0FE0148EA0100FFF7A6FEFFF7E2
:1007700085FE10B3F8B2FFF7A0FEFFF77FFEFFF78C
:100780001FFE48EA060040F00100FFF796FE11E068
:10079000000C0140CAA7B0DC0D0A000002000020D6
:1007A000415432344330345F546573740D0A000091
:1007B00025630000FFF762FE0DE0FFF71DFE00203D
:1007C00057E7FFF798FE2870012C0AD0FFF72AFEA2
:1007D0006D1C641EE4B2002CF3D1FFF70DFE012066
:1007E00047E7FFF735FEF3E710B501F0DAFEBDE8A5
:1007F000104001F0E6BE2DE9F05F0746D01B401C1B
:10080000894600F0FF08A3EB0900401C00F0FF0A36
:100810000025DDF828B00FE0002409EB050607E00D
:100820003819F1B2C0B25A4601F0BBFE641CE4B202
:100830004445F5D36D1CEDB25545EDD3BDE8F05FF1
:1008400001F0BFBE2DE9FE4F0026A2EB0008824654
:100850005F1A701E35468946B8F1000F02DD4FF071
:10086000010102E003D14FF00001019102E0C8F163
:1008700000080190002F02DD4FF0010002E003D1DB
:100880004FF00000009002E0C7F1000700904046E2
:10089000B84501DD044600E03C46601C4FF0000B0B
:1008A000029016E009F0FF010AF0FF000C9A01F037
:1008B00078FE46443D44A64202DD0199361B8A4437
:1008C000A54202DD00992D1B89440BF101001FFA9E
:1008D00080FB02998B45E5DDBDE8FE4F01F071BE5E
:1008E0002DE9F8431D46089C1646884607460B46E8
:1008F0000094FFF7A7FF3A462B4641461046009466
:10090000FFF7A0FF2B463246194638460094FFF702
:1009100099FF32462B46414610460094FFF792FF5E
:10092000BDE8F88338B5049C0094FFF764FF38BD38
:100930002DE9F05F15461C46DDF828B00E46074647
:1009400001EB040800EB050A08F0FF010AF0FF00C4
:100950005A4601F026FE08F0FF01A7EB050808F053
:10096000FF005A4601F01DFEA6EB040909F0FF0145
:100970000AF0FF005A4601F014FE09F0FF0108F0EA
:10098000FF005A4601F00DFE06EB050907EB0408CF
:1009900009F0FF0108F0FF005A4601F002FE3C1B7F
:1009A00009F0FF01E0B25A4601F0FBFD751BE9B208
:1009B00008F0FF005A4601F0F4FDE9B2E0B25A46F1
:1009C000BDE8F05F01F0EDBD2DE9F84381461D461D
:1009D0008846002468420321174601EB400612E0D6
:1009E000EBB2E2B2414648460097FFF7A1FF002E66
:1009F00003DA06EB8406B61D04E0601B06EB8006F6
:100A00000A366D1E641CAC42EADDBDE8F84301F015
:100A1000D8BD2DE9F84F82461E4689460024704213
:100A20000321904601EB400718E0254608E0EBB2B1
:100A3000E2B249465046CDF80080FFF779FF6D1CC1
:100A4000B542F4DD002F03DA07EB8407BF1D04E095
:100A5000A01B07EB80070A37761E641CB442E4DD56
:100A6000BDE8F84F01F0ADBD2DE9F84F9946DDE93D
:100A70000B540A9E92460F4680460094FFF7E2FE12
:100A80002B463246494650460094FFF7DBFE3B4674
:100A90004246294630460094FFF7D4FEBDE8F88F61
:100AA0002DE9FF4F85B000249DF818009DF8201017
:100AB0002546884207D908A906A800F017FB07A910
:100AC00005A800F013FB9DF820009DF84C1088420B
:100AD00007D908A913A800F009FB07A912A800F07C
:100AE00005FB9DF818009DF82010884207D908A939
:100AF00006A800F0FBFA07A905A800F0F7FA9DF890
:100B000018209DF84C00824228D19DF814009DF8D1
:100B10001C108DF800008DF80400814202D28DF87F
:100B2000041002E001D98DF800109DF848009DF8EE
:100B30000410884202D28DF8040005E09DF80010F0
:100B4000884201D98DF800009DF800109DF804003E
:100B5000149B00F0D0FA09B0BDE8F08F9DF81C702E
:100B60009DF81460A0EB0208B91B03919DF82010BA
:100B70008B1A02939DF84830A0EB010B9E1BA3EB50
:100B8000070A814201D1894602E0491E01F0FF09AE
:100B9000174621E0029895FBF8F294FBF0F09DF8DF
:100BA0001410354408441144C0B2C9B2039A8DF8F8
:100BB00004008DF800101444884203D9694601A846
:100BC00000F094FA3A469DF800109DF80400149B3A
:100BD00000F091FA7F1CFFB24F45DBD99DF8200051
:100BE0003C1A9DF8180004FB0AF43D1A754321E0F5
:100BF00094FBFBF09DF81C109DF81420084495FB15
:100C0000F8F11144C0B2C9B28DF804008DF800109B
:100C100054443544884203D9694601A800F066FA75
:100C20003A469DF800109DF80400149B00F063FA0A
:100C30007F1CFFB29DF84C008742D9D901F0C1FC5E
:100C400089E72DE9F05F203A0024DDF828B08946D5
:100C5000064602F0FF0A7F2804D909F102000026A7
:100C600000F0FF09102B0AD0082B4CD1FB4901EBF7
:100C7000CA0ABBF1000F1AF8040026D123E0F84895
:100C800004EB0A11BBF1000F405C01D1C043C0B2BC
:100C90008046002509EB04078020E84010EA080F91
:100CA00006EB0500F9B2C0B201D0012200E000223B
:100CB00001F077FC6D1CEDB2082DEDD3641CE4B29D
:100CC000102CDCD31BE0C043C0B28046002509EBEA
:100CD00004078020E84010EA080F06EB0500F9B28F
:100CE000C0B201D0012200E0002201F05AFC6D1CCC
:100CF000EDB2082DEDD3641CE4B2082CB9D3BDE8E5
:100D0000F05F01F05EBCBDE8F09F2DE9F84F0025D3
:100D1000DDF828A01E46914688460446102B03D0D5
:100D2000082E19D1062713E0082711E03346414663
:100D30002046CDF800A0FFF784FFE019C4B2782C5C
:100D400004D908EB0600002400F0FF086D1CEDB28A
:100D500019F80520002AE9D1A0E62DE9FF4F81B05E
:100D60000027DDE90EA91D4693468046BAF1100F13
:100D700005D0BAF1080F34D1062600242FE008264A
:100D8000FBE7281B401E0A22C0B2012100E05143AC
:100D90000300A0F10100C0B2F9D1BBFBF1F00A21C0
:100DA000B0FBF1F201FB120027B9691E8C4201DA97
:100DB00048B101273030C2B206FB0480C0B25346AE
:100DC000CDF8009006E006FB0480C0B25346202216
:100DD000CDF800900299FFF734FF641CE4B2AC42F6
:100DE000CFD305B0B8E62DE9FF5F9B460125147807
:100DF0009C4B002000EB001113F81160A64232D189
:100E000003EB4109567899F80110B1422BD1002526
:100E10004FF0800A09EB0500BBF1000F807801D18B
:100E2000C043C0B280460198009900EB550705F019
:100E30000100002401EBC0062AFA04F010EA080FB2
:100E400006EB0400F9B2C0B201D0012200E000229A
:100E500001F0A7FB641CE4B2082CEDD36D1CEDB2CD
:100E6000202DD7D303E0401CC0B2A842C2D3BDE8B6
:100E7000FF5F01F0A6BB2DE9FF5F7A4B0125002043
:100E800014788B46223300EB800101EB401113F8FC
:100E90001160A64234D103EB4109567899F801104C
:100EA000B1422DD100254FF0800A0398002809EBAC
:100EB0000500807801D1C043C0B2002480460321E0
:100EC000B5FBF1F000EB0B0701FB1050009901EBB3
:100ED000C0062AFA04F010EA080F06EB0400F9B283
:100EE000C0B201D0012200E0002201F05AFB641CD4
:100EF000E4B2082CEDD36D1CEDB2482DD5D303E040
:100F0000401CC0B2A842BED3BDE8FF5F01F059BB90
:100F10002DE9FF5F9B46534B0125002014786C336D
:100F200000EB801113F81160A64232D103EB4109A6
:100F3000567899F80110B1422BD100254FF0800A64
:100F400009EB0500BBF1000F807801D1C043C0B2AE
:100F500080460198009900EB950705F003000024F6
:100F600001EBC0062AFA04F010EA080F06EB0400B1
:100F7000F9B2C0B201D0012200E0002201F011FB61
:100F8000641CE4B2082CEDD36D1CEDB2802DD7D3D8
:100F900003E0401CC0B2A842C2D3BDE8FF5F01F02D
:100FA00010BB2DE9F0471E4614460F460546C2F118
:100FB0008008DDF8209013E0102C16D0182C1BD0E0
:100FC000202C10D14B46324639462846FFF7A0FF69
:100FD0002819C5B2A84502DA00253819C7B2B61CCF
:100FE00030780028E8D1BDE8F0874B4632463946D4
:100FF0002846FFF7F8FEEBE74B46324639462846CF
:10100000FFF739FFE4E72DE9FF4F81B00026D21D3D
:10101000DDF838B04FEAD20A009234E000252CE027
:101020000F980BEB050100280AFB06F0405C01D18C
:10103000C043C0B281460298002400EB0608019824
:1010400000EBC5078020E04010EA090F07EB040021
:1010500008F0FF01C0B207D0012206E08640000878
:101060007E4300086E490008002201F09AFA641CD1
:10107000E4B2082CE6D36D1CEDB20098B5EBD00FAE
:10108000CED3761CF6B204988642C7D305B0BDE82D
:10109000F04F01F096BA2DE9F04700279A469146A5
:1010A0003D46DDF8208019E0002613E0002418F802
:1010B0000700E04000F0010204EBC500C1B2304679
:1010C00001F06FFA641CE4B2082CF0D37F1C761C8C
:1010D000BFB2F6B24E45E9D36D1CEDB2B5EBDA0FF7
:1010E000E2D3BDE8F04701F06CBA704702780B78A4
:1010F00003700A7070472DE9F0411E4617460D46F1
:10110000044606E032463946204601F04AFA641C9D
:10111000E4B2AC42F6D9BDE8F0810000884A10B5CF
:10112000811A1315D41490422ED00DDC8549401835
:101130001CD0984221D0A0423BD10121102000F0C8
:1011400023FA002110200DE0994224D0A14229D099
:10115000B1F5406F2DD101210C02204600F014FAA8
:1011600000212046BDE8104000F00EBA0121042005
:1011700000F00AFA00210420F4E70121082000F021
:1011800003FA00210820EDE70121202000F0FCF9FE
:1011900000212020E6E70121402000F0F5F90021A0
:1011A0004020DFE70121802000F0EEF900218020BF
:1011B000D8E710BD10B50121084600F0E5F900217F
:1011C000BDE81040012000F0DFB9F0B5CC78002276
:1011D00004F00F03E40601D58C7823430C784FF01C
:1011E0000F0C4FF0010EDCB105680E880EFA02F408
:1011F0002640A64210D196000CFA06F725EA07070A
:1012000003FA06F5CE783D43282E02D0482E02D0B0
:1012100002E0446100E00461521C082AE5D3056045
:101220000A88FF2A1CD94468002202F108060EFA37
:1012300006F50E882E40AE420ED196000CFA06F747
:10124000BC4303FA06F7CE783C43282E00D1456113
:10125000CE78482E00D10561521C082AE5D344609F
:10126000F0BD4FF6FF710180022181700421C17031
:1012700070470246002092680A4200D00120704761
:10128000806880B2704702460020D2680A4200D0CF
:1012900001207047C06880B27047016170474161AA
:1012A00070470AB10161704741617047C160704782
:1012B00041F4803282618161826181698069704715
:1012C000214B10B51A684FF68074224042EA001094
:1012D0000843186010BD1D49C8617047F0B51A4D2C
:1012E0006B68440D260184B2C0F30157B440C0F3CB
:1012F0000342032F05D0C0020AD503209040834348
:1013000007E0686823F0706220F07060686002E0B7
:10131000A34343F0706201B122436A60F0BD10B58F
:101320008A0721F003040849120F21440F238C6817
:1013300093409C438C608B68904003438B6010BD4E
:101340000014014000F8FEBF0000014000002042F0
:10135000A448016841F0010101604168A24A1140BE
:1013600041600168A14A11400160016821F48021B7
:101370000160416821F4FE014160002181607047F5
:1013800098490A6822F480320A600A6822F48022AE
:101390000A60B0F5803F07D0B0F5802F03D1086810
:1013A00040F4A02008607047086840F48030F9E7F6
:1013B0000346002059098B4A01290AD002290AD084
:1013C000516A03F01F02012393400B4200D0012019
:1013D00070471168F5E7116AF3E718B500204FF47C
:1013E000A06400903120FFF7E3FF0099491C0091B1
:1013F00008B9A142F6D13120FFF7DAFF002800D06A
:10140000012018BD774A116821F0F80141EAC000B7
:1014100010607047764908607047724B5A680843FD
:1014200022F47C1210435860704771490866704777
:101430006C4A516821F003010143516070476948CB
:10144000406800F00C007047664A516821F0F001D6
:10145000014351607047634A516821F4E0610143E0
:10146000516070475F4A516821F4605141EAC00001
:10147000506070475B4A0029517A01D0014300E077
:101480008143517270475A49D83108607047554AB4
:10149000516821F440410143516070475149002295
:1014A00081F8202081F82020012802D0042802D1D0
:1014B000052081F8200070474E490860704749496F
:1014C0000A6A02430A6270474A4944390860704711
:1014D00030B5444A5168484B11F00C0103D004293F
:1014E00001D0082901D0036011E05168022301F402
:1014F000701103EB9141536813F4803F02D053689D
:101500009B0301D53D4B00E03B4B594301605168C3
:101510000F2303EA11113A4B5C5C0168E140416022
:101520005468072505EA14241C5D21FA04F484603C
:10153000546805EAD4241B5DD940C1605268032376
:1015400003EA92322E4B1B1F9A5CB1FBF2F1016150
:1015500030BD244A0029516901D0014300E0814394
:10156000516170471F4A0029916901D0014300E091
:101570008143916170471B4A0029D16901D0014321
:1015800000E08143D1617047164A0029D16801D03B
:10159000014300E08143D1607047124A002911697C
:1015A00001D0014300E08143116170471149403986
:1015B000086070470E49C86470470A49C87170478F
:1015C0000848416A41F0807141627047054A01460E
:1015D000002092680A4200D00120704701498872B9
:1015E00070470000001002400000FFF8FFFFF6FE09
:1015F000000042428004424200127A0000093D008D
:1016000026000020B24A10B5811A131590421BD053
:1016100007DCB049401814D0984223D101210402BC
:1016200017E0994213D0B1F56C4F1BD101218C0307
:101630002046FFF7A9FF2046BDE810400021FFF734
:10164000A3BF01214C0404E00121CC0401E00121ED
:101650000C052046FFF7A1FF2046BDE81040002101
:10166000FFF79BBF10BD30B50446008A85B00D461C
:101670004CF6FF710840E98801432182A0894EF6AB
:10168000F3110840A9882A8911436A89024311434A
:10169000A181A08A4FF6FF410840A9890143A18298
:1016A0006846FFF715FF8C48844201D1039800E09B
:1016B0000298642200EBC00101EB001029686FF072
:1016C00018058900B0FBF1F0B0FBF2F109010B093C
:1016D0006B4300EB8300322303EB0010B0FBF2F00E
:1016E00000F00F000843208105B030BD4FF41651C3
:1016F000016000218180C18001810C2242818181B1
:10170000704710B5028A4FF2FF031A400B884C88CD
:1017100023438C88C9880C4323431343038210BDA1
:101720000021018041808180C1807047002981892A
:1017300002D041F4005101E021F400518181704751
:1017400010B5C1F3421301F01F040121A140012B88
:1017500007D0022B07D01430002A026805D00A43B4
:1017600004E00C30F8E71030F6E78A43026010BD61
:10177000002A828A01D00A4300E08A4382827047AD
:10178000028A22F00F020282028A0A430282704712
:10179000828922F40062828182890A4382817047B1
:1017A0000029818902D041F0020101E021F002010B
:1017B00081817047028A22F020020282028A0A4353
:1017C000028270470029018A02D041F4804101E081
:1017D00021F4804101827047C1F308018180704784
:1017E0008088C0F308007047818941F00101818140
:1017F0007047028BD2B20283028B42EA012101833D
:101800007047028B02F47F420283028B0A430283F9
:1018100070470029818A02D041F0200101E021F0C7
:101820002001818270470029818A02D041F0100195
:1018300001E021F01001818270470029818A02D0E5
:1018400041F0080101E021F0080181827047828A9D
:1018500022F004028282828A0A438282704700292F
:10186000818A02D041F0020101E021F0020181826F
:1018700070470246002012880A4200D001207047BB
:10188000C9430180704770B501F01F05012600248F
:10189000C1F3421306FA05F2012B0FD0022B0FD031
:1018A000838A4FEA11210088134206FA01F600EA02
:1018B000060001D000B10124204670BD8389F0E705
:1018C000038AEEE70A0A01219140C943018070476B
:1018D000004C004000BCFFBF0038014027490843CE
:1018E00027490860704770B50F23C278017801243A
:1018F0004FF0E025DAB1224A126802F4E062C2F544
:10190000E062120AC2F10406D3404278B2408678FF
:101910001E401C4B16433201CA54007800F01F01D0
:101920008C40400905EB8000C0F8004170BD01F01B
:101930001F008440480905EB8000C0F8804170BD5D
:10194000114A114001430E48001F016070470C4AC4
:10195000121D0029116801D0014300E0814311608C
:1019600070474FF0E0210428086903D020F00400FC
:101970000861704740F00400FAE700000000FA0533
:101980000CED00E000E400E080FFFF1F374900207D
:101990000860091D0860091D0860091D08603349B9
:1019A000334814310860704730B583792F4A016895
:1019B00053B313688B431360111D0B680468A34372
:1019C0000B60017911440B68046823430B60274BBB
:1019D000083319680468A14319601C1D2168056853
:1019E000A94321604179102905D011440A68006893
:1019F00002430A6030BD196802681143196021680A
:101A000000680143216030BD0079104402688A43B8
:101A1000026030BD0021016001710C2242718171B0
:101A20007047124910310A6802430A607047014644
:101A30000E4A0020143212680A4200D0012070477A
:101A40000A49143108607047084A014600201268AC
:101A5000064B0A4014331B680B4202D0002A00D008
:101A600001207047014914310860704700040140AB
:101A7000FFFF0700FA4A10B5811A1315D4149042DB
:101A80003BD010DCB0F1804F22D0F649401826D070
:101A900098422BD0A04241D101210820FFF77DFDC3
:101AA0000021082036E099422ED0B1F58E3F0DD0AE
:101AB000B1F5923F32D101214C032046FFF764FD7E
:101AC0002046BDE810400021FFF75EBD0121F4E78C
:101AD00001210846FFF761FD002101201AE00121E4
:101AE0000220FFF75AFD0021022013E0012104200B
:101AF000FFF753FD002104200CE001211020FFF727
:101B00004CFD0021102005E001212020FFF745FDBC
:101B100000212020BDE81040FFF73FBD10BD028826
:101B200002F08F020280CA884B881A4303881A4346
:101B300002808A8882850A880285CB4A904202D038
:101B4000CA4A904201D1097A0186012181827047F7
:101B500030B5028C22F001020284028C8388048B4F
:101B600022F0020224F070050C882C430D891543E5
:101B70004A882A43CD888586BB4DA84202D0BB4DFA
:101B8000A8420DD122F008054A8923F403432A43D1
:101B900022F004058A882A438D891D43CB892B4373
:101BA00083800483028430BD70B5028C22F0100261
:101BB0000284028C8388048B0D8824F4E0464FF65F
:101BC000FF7404EA052535430E8922F0200204EA59
:101BD000061616434A8804EA02123243CE88068764
:101BE000A14EB04202D0A14EB04215D122F08006E3
:101BF0004A8923F40C4304EA0212324322F04006DD
:101C00008A8804EA021232438E89C98904EA860668
:101C10001E4304EA8103334383800583028470BD3D
:101C200070B5028C22F480720284028C8388848BCB
:101C30000D8824F0700425430E894FF6FF7422F4BA
:101C4000007204EA062616434A8804EA0222324356
:101C5000CE888687844EB04202D0844EB04215D1E1
:101C600022F400664A8923F4304304EA0222324314
:101C700022F480668A8804EA022232438E89C98966
:101C800004EA06161E4304EA011333438380858366
:101C9000028470BD70B5028C22F480520284058CDF
:101CA0008288838B0C8823F4E0464FF6FF7303EAA7
:101CB000042434430E8925F4005503EA06362E43E6
:101CC0004D8803EA05353543CE88A0F84060664E5E
:101CD000B04202D0654EB04205D18989C2F30D06EB
:101CE00003EA8112324382808483058470BD828B33
:101CF00022F440628283828B4FF6FF7303EA012154
:101D00000A4382837047828B22F00C028283828B8B
:101D10000A4382837047028B22F440620283028B63
:101D20004FF6FF7303EA01210A4302837047F0B5BF
:101D3000048C24F010040484078B068C4FF6FF7487
:101D400004EA011527F4734704EA0331394304EA2E
:101D500002220A4326F02001294341F010010283A8
:101D60000184F0BD028B22F00C020283028B0A4335
:101D7000028370472DE9F0410C46054608884988E2
:101D8000A2882389F8B1042825D00828288C4FF68A
:101D9000FF7628D020F480502884AF8B288C06EA68
:101DA0000131120227F4734642EA0332324320F42F
:101DB0000050084340F48050AA832884E1882846D4
:101DC000BDE8F04193E7284600F0CBFAE1882846C9
:101DD000BDE8F041C6E72846FFF7A9FFE18828469D
:101DE000BDE8F04197E720F480702884AF8B288C01
:101DF00006EA031327F0F30713433B4306EA0121E6
:101E000020F40070084340F48070AB832884E1889C
:101E10002846BDE8F04176E72DE9F0410C46002662
:101E200049880746012501B90226A288012A00D166
:101E30000225208823890028384619D0FFF777FF2C
:101E4000E1883846FFF767FF23892A46314638463E
:101E500000F087FAE1883846BDE8F04182E70000EB
:101E60000010004000FCFFBF002C01400034014086
:101E700000F077FAE1883846FFF774FF23892A4695
:101E800031463846FFF753FFE1883846BDE8F04158
:101E900041E710B50A884B88CC881A438B882343C6
:101EA0001A430B891A434B8989891A430A43A0F8BC
:101EB000442010BD4FF6FF71818000210180C18058
:101EC0004180017270470021018041808180C18082
:101ED000018141818181C181704700210180418060
:101EE00001228280C18001817047002101804180F0
:101EF0008180C180018141818181704700290188F1
:101F000002D041F0010102E040F2FE3211400180B6
:101F10007047002930F8441F02D041F4004101E02D
:101F2000C1F30E0101807047002A828901D00A4363
:101F300000E08A4382817047818270471143A0F894
:101F400048107047002A828901D00A4300E08A4382
:101F500082817047018921F0070101817047028960
:101F600022F070020A430281704700B50346FFF772
:101F7000F6FF188940F00700188100BD70B51646BD
:101F80000D46602904464FF0010231460AD000F0A8
:101F9000E8F929462046FFF7E2FF208940F00700D4
:101FA000208170BDFFF7C3FEF3E710B5048911432C
:101FB0004FF6FF7202EA0322E4B21143214301818A
:101FC00010BD10B50446FFF7F0FF208940F0770000
:101FD000208110BD10B50446FFF7E7FF208940F4CB
:101FE0008040208110BD018582827047028840F2C6
:101FF0008F331A400A430280704770B50589048BFD
:10200000068C25F007050D434FF6FC410C4040F2CD
:1020100001110C434FF6FF7101EA031126F022066D
:102020001143314305810483018470BD028B22F08A
:1020300070020A4302837047028B4FF6FF7322F44B
:10204000E04203EA0121114301837047828B22F0B1
:1020500070020A4382837047828B4FF6FF7322F42B
:10206000E04203EA0121114381837047002901887E
:1020700002D041F0800102E040F27F321140018045
:1020800070470029818802D041F0040101E021F06D
:102090000401818070470029818802D041F0080145
:1020A00001E021F00801818070470029818802D079
:1020B00041F0010101E021F0010181807047028BB4
:1020C00022F008020A4302837047028B4FF6FF7327
:1020D00022F4006203EA0121114301837047828BDD
:1020E00022F008020A4382837047828B4FF6FF7307
:1020F00022F4006203EA0121114381837047028BBD
:1021000022F004020A4302837047028B4FF6FF73EA
:1021100022F4806203EA0121114301837047828B1C
:1021200022F004020A4382837047828B4FF6FF73CA
:1021300022F4806203EA0121114381837047028BFC
:1021400022F080020A4302837047028B4FF6FF732E
:10215000C2F30E0203EA0121114301837047828B0F
:1021600022F080020A4382837047828B4FF6FF730E
:10217000C2F30E0203EA0121114381837047028CEE
:1021800022F002020A4302847047028C22F0080205
:102190000A4302847047028C4FF6FF7322F020023C
:1021A00003EA0111114301847047028C4FF6FF735B
:1021B00022F0800203EA0111114301847047028C6E
:1021C0004FF6FF7322F4007203EA012111430184E8
:1021D0007047028C4FF6FF7322F4006203EA01217C
:1021E000114301847047028C4FF6FF7322F40052B2
:1021F00003EA013111430184704710B5038C0124B7
:102200008C40A3430384038C8A401343038410BD92
:1022100010B5038C04248C40A3430384038C8A40B0
:102220001343038410BD10B5038C01248C40A343D9
:10223000038491B1082910D0091FC1F34E0108444D
:10224000816948F6FF731940816181694FF6FF7318
:1022500003EA02221143816110BD00EB5100816944
:102260004FF68F73194081618169F3E70029018876
:1022700002D041F0020102E040F2FD321140018043
:1022800070470029018802D041F0040102E040F2C9
:10229000FB321140018070470029818802D041F053
:1022A000800101E021F0800181807047028840F2C6
:1022B000F7331A40028002880A43028070478288FE
:1022C00022F07002828082880A43828070470289ED
:1022D00022F00702028102890A43028170470289C3
:1022E00022F08002028102890A43028170478184C0
:1022F0007047818570478186704701877047818765
:102300007047A0F8401070470288D2B2028002885D
:102310000A4302807047808E7047008F7047808F1D
:102320007047B0F840007047808C7047008D704750
:1023300002460020128A0A4200D001207047C94399
:102340000182704702460020138A92890B4202EAFA
:10235000010202D0002A00D001207047C943018247
:10236000704770B5048C24F001040484058B048C40
:102370004FF6FF7606EA0313134325F0F3052B43CC
:1023800024F002020A4342F001010383018470BD7C
:102390000CB50022324800920192016841F480316C
:1023A00001604FF4A063016801F4003101910099CC
:1023B000491C0091019911B900999942F3D1016822
:1023C000890333D50121019126490A6842F01002A0
:1023D0000A600A6822F003020A600A6842F00202F8
:1023E0000A604168416041684160416841F4806130
:1023F0004160416821F47C114160416841F4E81179
:102400004160016841F08071016001688901FCD57B
:10241000416821F003014160416841F002014160DF
:102420004168C1F381010229FAD10CBD0192FEE796
:102430000B48016841F00101016041680A4A1140FE
:1024400041600168094A11400160016821F480215E
:102450000160416821F4FE0141600021816097E73D
:1024600000100240002002400000FFF8FFFFF6FECF
:1024700010B5FFF7DDFF00F029F8FDF7A1FE01F030
:102480008CFB00F0FEF8002000F0BBF8BDE8104027
:10249000FDF770BF0B484FF47A710068B0FBF1F0A4
:1024A000B0F1807F0CD220F07F414FF0E020491E38
:1024B0004161054AF021117000218161072101610C
:1024C000704700005C4A000823ED00E038B50121A8
:1024D0001020FFF747F84FF40054ADF800401020EB
:1024E0008DF803000320064D8DF80200694628464A
:1024F000FEF76BFE21462846FEF7D1FE38BD0000F0
:102500000010014070B504464FF48060934D0029DF
:102510000146284602D0FEF7C0FE01E0FEF7BFFEEE
:102520004FF4006631462846FEF7B9FEE0B200F0EF
:1025300019F931462846BDE87040FEF7AEBE10B529
:102540000446B02000EBD1000021FFF7DBFFA41C04
:10255000C4F3031040F010000021FFF7D3FF04F094
:102560000F00BDE810400021CCE710B500218D2000
:10257000FFF7C8FF00211420FFF7C4FF0021BDE8CA
:102580001040AF20BEE710B500218D20FFF7BAFF45
:1025900000211020FFF7B6FF0021BDE81040AE205B
:1025A000B0E730B501F007050123AB406C4CC9081A
:1025B00000EBC111605C0AB1184300E0984360541D
:1025C00030BD70B5664E0025002105F1B000FFF763
:1025D00099FF00210846FFF795FF00211020FFF723
:1025E00091FF002404EBC5100121305CFFF78AFF46
:1025F000641CE4B2802CF5D36D1CEDB2082DE3D33E
:1026000070BD10B54FF4806120B1FF22544801F035
:102610001DFB02E0524801F020FBBDE81040D0E76E
:1026200070B54E4D4FF4805421462846FEF735FED6
:10263000642001F0E9FA21462846FEF730FE6420C6
:1026400001F0E2FA21462846BDE87040FEF725BEBB
:1026500038B501210820FEF785FF4FF43C44ADF862
:10266000004010208DF8030003203C4D8DF802003F
:1026700069462846FEF7A9FD21462846FEF70DFECD
:1026800038BD10B5FFF7E4FFC82001F0BDFAFFF731
:10269000C7FF0021AE20FFF735FF00210846FFF7F6
:1026A00031FF00211020FFF72DFF00214020FFF710
:1026B00029FF0021B020FFF725FF00218120FFF72F
:1026C00021FF0021FF20FFF71DFF0021A120FFF7C0
:1026D00019FF0021A620FFF715FF0021A820FFF712
:1026E00011FF00213F20FFF70DFF0021C820FFF759
:1026F00009FF0021D320FFF705FF00210846FFF75F
:1027000001FF0021D520FFF7FDFE00218020FFF70B
:10271000F9FE0021D920FFF7F5FE0021F120FFF797
:10272000F1FE0021DA20FFF7EDFE00211220FFF775
:10273000E9FE0021DB20FFF7E5FE00213020FFF756
:10274000E1FE00218D20FFF7DDFE00211420FFF7C0
:10275000D9FE0021BDE81040AF20D3E6000C0140B7
:10276000C80500202DE9F04108240F4F05464FF41D
:102770000048A60228064146384602D5FEF78DFDE0
:1027800001E0FEF78CFD31463846FEF788FD314604
:102790003846FEF782FD6806050E641E14F0FF043D
:1027A000E8D1BDE8F0810000000C014030B5ADF289
:1027B000044D00246846FDF7A1FDC0B29DF80D5000
:1027C0000A280ED36946114801F052FA20B10C2DA7
:1027D00004D00D2D04D004E0012402E0022400E026
:1027E00003240DF2044D204630BD10B5FFF7DEFF87
:1027F000022806D0032808D1BDE810400020FFF7CA
:1028000000BFBDE81040FEF770BC10BD604A000874
:102810007FB501210420FEF7A5FE0124ADF80C4090
:1028200028208DF80F0003A92E48FEF7CEFC0121C9
:102830000846FEF797FE03210420FEF770FD0026F0
:102840008DF808600C208DF80900082501958DF899
:102850000A4001A8FFF7A8F804210846FEF75FFD2B
:102860001020019001A8FFF79FF800210846FEF70D
:1028700056FD01948DF8095001A8FFF795F8062040
:102880008DF8000002258DF8015003208DF802001C
:102890008DF803406846FFF726F809208DF8000000
:1028A0008DF801508DF802408DF803406846FFF71F
:1028B0001AF80A208DF800008DF801508DF802609A
:1028C0008DF803406846FFF70EF87FBD06490120EA
:1028D0000860FFF7C7B80820FFF7C4B81020FFF75B
:1028E000C1B80000000801403800002008B54FF4CE
:1028F000E060FEF7F3FF1C208DF8000000208DF84B
:10290000010003208DF8020001208DF803006846C5
:10291000FEF7E9FF08BD3EB501210846FEF72BFE94
:102920004FF080442046FFF7A5F84FF47A71ADF8D8
:1029300004104721ADF800100021ADF802106946DF
:102940002046FFF7ECF801212046FFF7F8FC0122B2
:1029500011462046FFF7E8FA01212046FFF7CEFA9C
:1029600000210120FEF707FE01210846FEF703FEC5
:1029700001212046FFF7C2FA3EBD10B501218C07A8
:102980002046FFF7DFFC002807D001212046FFF793
:10299000E5FC02480168491C016010BD3C000020B4
:1029A00070B50D460446FDF70BFDD020FDF785FD03
:1029B000FDF764FD2046FDF780FDFDF75FFD28462D
:1029C000FDF77BFDFDF75AFDBDE87040FDF714BD36
:1029D0002DE9F0410D460446FDF7F2FCD020FDF74D
:1029E0006CFD2046FDF769FDFDF706FDFDF7E8FCEF
:1029F000D120FDF762FDFDF741FD0024324F6E1E30
:102A00000BE0FDF778FD3855B44202DAFDF70AFD18
:102A100001E0FDF71DFD641CE4B2AC42F1D3BDE85A
:102A2000F041FDF7E9BC1CB500246846FDF766FCE3
:102A3000C1B2052901D020461CBD01249DF8031018
:102A40000020FFF7ADFF0A20FDF792FC9DF8021071
:102A50000120FFF7A5FF0A20FDF78AFC9DF8011071
:102A60000220FFF79DFF0A20FDF782FCE3E710B587
:102A700086B0FFF7D8FF03210020FFF7A9FF124A15
:102A800011785078927801F00F03C1F3021100F031
:102A90000F04CDE90213C0F30210CDE9000402F0E7
:102AA0000F03C2F3011209A104A801F063F9002089
:102AB000FFF7A7FD01200090082304AA0021282089
:102AC000FEF723F906B010BD400000202564256400
:102AD0003A256425643A256425640000FFF7DAFC92
:102AE000FEF703FBFFF781FE00230122194618467B
:102AF00000F017FFFFF7BBFFF2E7FFF7CBFC052362
:102B00000E4A0021AFF22B0000F00AFC0C4D4FF4EE
:102B1000005421462846FEF7C2FB00230122194635
:102B2000184600F0FEFE21462846FEF7B6FB0023BD
:102B300001221946184600F0F4FEEAE7040B0020D3
:102B400000100140002204E0491C521C00F8013B27
:102B5000D2B20B78002BF7D10021017010467047DC
:102B60002DE9F0410E460546140006D045B14EB1A0
:102B7000FA48807840B1112010E00020BDE8F081D3
:102B800004200BE00C2009E02878012808D0022856
:102B900006D0032804D0042802D001201070ECE7EE
:102BA00000F060FF074605F10F013046FFF7CAFF4E
:102BB0000546384600F05AFF002020702846DDE721
:102BC0000146002002E0491C401CC0B20A78002ADD
:102BD000F9D170472DE9F0410E4605461400CDD0DD
:102BE0002DB136B1DD48807828B112200DE00420E7
:102BF0000BE00C2009E02878012808D0022806D034
:102C0000032804D0042802D001201070B6E700F099
:102C100029FF07463046FFF7D3FF0F2804D938466F
:102C200000F024FF0B2008E0314605F10F00FFF70C
:102C300089FF384600F01AFF002020709EE77CB51F
:102C4000C74D00246946204600F082FD58B955F86A
:102C5000241041B1012906D0D1E9020200EB820023
:102C600088630198C863641CE4B21F2CEAD97CBD58
:102C7000BA4C02E0C82000F02FFE60780028F9D09E
:102C8000642160690025B0FBF1F0606118B925701E
:102C9000FF2000F09CFD00F0E5FE216A2562A161A5
:102CA00000F0E4FED4E90510B0FBF1F0C0F16400DF
:102CB000207000F02EFFFFF7C2FF642000F00CFE32
:102CC000E9E7A64C00F0CEFE216A491C216200F023
:102CD000CDFE00F01DFFF5E7002203E0491E00F8DD
:102CE000012B89B20029F9D1704770B586B000F088
:102CF0000BFF9A4B00245C639C70DC701C72DC71CF
:102D0000DC601C629C615C615C709C7103F11C0165
:102D10002046401CC0B201F8014B0428F9D31C71B5
:102D20005C718F48DC624FF4B46180305C62FFF705
:102D3000D3FF80218A48FFF7CFFF894800228030E7
:102D400000F150013F25416180F8405080F841403A
:102D5000521C50305031D2B2112AF4D3446180F861
:102D6000405080F841407E481C63803098624FF4A8
:102D7000A071A0F5B860FFF7AFFF7A48002200F11C
:102D8000200104704160C5730474521C203020314E
:102D900092B2092AF5D304704460C5730474714873
:102DA0001861802600F55070CDE901066C4A0325B4
:102DB0004FF6FF701F23121F00210090AFF2FD009D
:102DC000CDE9034500F0F9FA05AA67A11F2000F03C
:102DD0003FFC6948CDE901064FF6FE701E23674AA5
:102DE00000210090AFF27710CDE9034500F0E5FA3D
:102DF00005AA63A11E2000F02BFC06B0BDE87040C0
:102E000000F083BE5549C879012804D18878FF288D
:102E100001D2401C8870704770B5504CE079012891
:102E200022D100F01FFE0546A07820B1401E10F010
:102E3000FF00A07013D1E07888B900F0D4F9607970
:102E4000217988420BD0464951F82010E162C86AC6
:102E5000401CC862E068401CE06000F01FFE28468D
:102E6000BDE8704000F002BE70BD10B53B4CE0798B
:102E700001280CD100F0F6FDA17821B9E178FF29F5
:102E800001D2491CE170BDE8104000F0EFBD10BD5B
:102E900070B500F0E7FD314C0546A07898B9E078B0
:102EA00088B900F0A0F96079217988420BD02C49CB
:102EB00051F82010E162C86A401CC862E068401CFA
:102EC000E06000F0E6FD2846BDE8704000F0CEBDB1
:102ED00010B5224CE079012813D100F0C3FDE17850
:102EE00031B1491E11F0FF01E17001D1A17819B192
:102EF000BDE8104000F0BABD00F0B8FDBDE81040DC
:102F0000C6E710BD10B5154CE07900280CD100F0D3
:102F10006AF960791249207151F82000E06260621C
:102F2000BDE8104000F0A5BD10BD10B5022000F0B6
:102F3000D3FC00F097FD094C0021216200F096FDC2
:102F4000642000F0C9FC00F08DFD216A616101215F
:102F50006170BDE8104000F089BD0000480000200D
:102F600048100020080B002075432F4F532D49496E
:102F70002049646C65000000480C0020440E0020CD
:102F800075432F4F532D494920537461740000003D
:102F90002DE9F04100F0F9FD00F064FD984D696BFA
:102FA000491C696300F062FDE87901283ED1687A26
:102FB0000126002720B1012838D0022802D06F72E4
:102FC0002C6B2FE06E72FBE700F04CFD218C31B3CF
:102FD000A1F101010904090C218420D194F82210E7
:102FE00011F0370F06D021F0370184F8221084F851
:102FF000236001E084F8237094F8221009070ED4AE
:1030000094F82810AA797E4B1143A97194F82610E0
:103010001C3394F827C05A5C42EA0C025A54646983
:1030200000F024FD94F824001F28CDD1A6E54FF42C
:103030008F707047704710B590F8262090F82740A1
:103040008B18DA7AA243DA7204D18A7A90F82800CF
:1030500082438A7210BD70B50146847A69484FF088
:103060000006045D01EB0405ED7A405D00EBC40051
:10307000C5B2654850F8250020F8206F867826EA0A
:1030800002068670C370A0F1200032070BD45C4AA0
:1030900090F828309679334393711C3290F827606A
:1030A000135D33431355FFF7C6FF284670BD30B597
:1030B000534C00F10B02616A41F81C0F8B7AC97AFC
:1030C0009D5C0D439D54616A827A26318B781A4348
:1030D0008272087804F11C034D781A5C2639AA43E1
:1030E0001A5404D191F82810A0798843A07130BDFA
:1030F000002282720B301146491CC9B200F8012B24
:103100000429F9D3704705E011F8013B521E00F87D
:10311000013B92B2002AF7D170472DE9F05F984643
:10312000DDE90ABA91460D46064600F09BFC344F95
:10313000BC6A002C53D00C34A168B96200F096FC34
:1031400044F80C5C26760025A575E575A582C4F8C3
:1031500000B044E902A90C98A080A4F80680F00809
:103160006577A076012306F0070103FA00F2617685
:10317000227703FA01F2E27625612562A562656293
:10318000E5623F20256384F8340084F835500C3C18
:10319000204600F0F9FC204600F0B8FC00F062FC8C
:1031A0000146194840F82640386BC4E9050500B1CE
:1031B00084613C632634BA79A0781043B871104A10
:1031C00020781C326478135C23431354387A401CF3
:1031D0003872084600F04AFC0020BDE8F09F00F07D
:1031E00045FC4220F9E70649064A01F11C038879AB
:1031F000105C1B5CD25C02EBC000487170470000A1
:10320000480000207A4A0008481000202DE9F05FAD
:103210000C4605461F2801D3FF2D01D11F2C02D3D8
:103220002A20BDE8F09F00F01DFCDFF8FCC3034638
:103230005CF8240020B1184600F018FC2820F0E7C4
:10324000FF2D03D1F948006890F824505CF8252040
:103250001AB3012A26D0E108012000FA01F604F091
:10326000070AF7B200FA0AF0C6B200204CF82500AF
:103270004CF8242092F826C0DFF8B4E392F82750E7
:1032800092F828901EF80C00284221D0A843DFF8BD
:10329000A4B30EF80C000AD00FE0184600F0E6FBCD
:1032A0002920BEE7184600F0E1FB4320B9E79BF870
:1032B000000020EA09008BF800009BF8000038436A
:1032C0008BF800001EF8018048EA06080EF801801D
:1032D000D06998B100EB0C0898F80BC03CEA050CDB
:1032E00088F80BC003D1857A25EA09058572857AAD
:1032F0003D4385720844C57A3543C57202F8244FB0
:103300001846917082F801A01771D67000F0AEFBDC
:10331000C9480078012801D1FFF7BAFD002080E7F5
:103320002DE9FE431C4616460F4680461F2B02D948
:103330002A20BDE8FE8300F095FBC049097819B149
:1033400000F094FB3C20F4E7B74D55F8241019B178
:1033500000F08CFB2820ECE7012145F8241000F058
:1033600085FB002332463946404600F0D3FB002659
:103370000146009601963346324620460296FFF7F4
:10338000CCFE070007D000F06DFB45F8246000F08C
:103390006DFB3846CDE7A84800780128F9D1FFF742
:1033A00077FDF6E7D30707D0920705D5002200295D
:1033B00002D004C0491EFAE770472DE9FF4F83B0E1
:1033C0001C46DDE91386DDE9119792468B461F2BDB
:1033D00003D92A2007B0BDE8F08F00F043FB9749DE
:1033E000097819B100F042FB3C20F3E78E4D55F807
:1033F000241019B100F03AFB2820EBE7012145F831
:10340000241000F033FB324639464846FFF7CAFF26
:10341000334652465946039800F07CFB0097CDE9AD
:10342000018601464A462046109BFFF776FE0600BD
:1034300008D000F017FB002145F8241000F016FB1F
:103440003046C7E77C4800780128F9D1FFF720FD16
:10345000F6E72DE9F04705467848007810B140209E
:10346000BDE8F0871F2D04D005D3FF2D03D02A20FF
:10347000F6E73E20F4E700F0F5FA0646FF2D03D10B
:103480006A48006890F82450DFF89C9159F825406C
:103490005CB1012C0ED094F82610654A94F82730C0
:1034A000505C984350540AD00FE0304600F0DEFAEA
:1034B0004320D5E7304600F0D9FA3D20D0E75D48FB
:1034C00094F82820017891430170E16911B12046F8
:1034D000FFF7B1FD4FF00008A4F82080584F84F8A2
:1034E000228084F823803878FF2801D2401C38706D
:1034F000304600F0BBFAFFF79DFD00F0B3FA064638
:10350000387808B1401E3870204600F000FB4D4965
:103510000878401E087049F82580A0694146A0B18E
:1035200062694261D4E905028261474802686261CA
:1035300004603F2004F8400F3046617000F096FAB6
:103540003D480078012806D007E060693F4A816164
:1035500060691060E9E7FFF79BFC002080E710B589
:1035600004461F2804D00FD3FF2803D02A2010BD03
:103570003E2010BD00F076FA2C49096891F82940E8
:1035800000F074FA204610BD00F06CFA264951F89C
:10359000241041B101290AD03F2281F8292000F0EE
:1035A00065FA002010BD00F061FA432010BD00F064
:1035B0005DFA3D2010BD2DE9F0410F46054614008F
:1035C0002FD01F2D03D9FF2D01D02A2006E027B1CF
:1035D0001A48007820B1112000E00C20107020E083
:1035E00000F040FA0646FF2D03D11048006890F81D
:1035F00024500D4850F82510432571B101290CD0F5
:1036000040313846FFF79EFA0546304600F02EFA64
:10361000002020702846BDE8F081304600F026FAF0
:1036200025700020F7E70000481000206C00002003
:10363000640000204E0000204F0000204A000020BF
:103640004B00002050000020700000207800002077
:103650002DE9F041884605461400DCD01F2D03D922
:10366000FF2D01D02A2006E0B8F1000F05D09448C4
:10367000007820B112201070CDE70C20FBE700F09D
:10368000F1F90646FF2D03D18E48006890F82450CA
:103690008D48432750F825505DB1012D09D0404693
:1036A000FFF78EFA0F2809D9304600F0DFF94120E4
:1036B0000DE0304600F0DAF92770ACE7414605F13D
:1036C0004000FFF73FFA304600F0D0F900202070AC
:1036D000A1E710B504461F2801D32A2010BD00F031
:1036E000C1F9794951F8241059B101290DD091F847
:1036F0002220130728D532F0080281F8222008D0B2
:1037000009E000F0B3F9462010BD00F0AFF9432006
:1037100010BD0A8C1AB100F0A9F9002010BD6B4A47
:1037200026318B781478234313700A78684B4978D4
:103730009C5C0C439C5400F099F966480078012881
:10374000EBD1FFF7A5FBE8E700F090F9442010BDAE
:103750002DE9F0410E4604461F2803D9FF2C01D065
:103760002A2058E746B100203060706000F07AF9F6
:103770000146FF2C02D005E009204CE751480068C3
:1037800090F82440504850F8240058B1012809D03E
:10379000027CD2070BD0D0E902570024084600F083
:1037A00065F90AE0084600F061F9432033E708466E
:1037B00000F05CF945202EE7641C01CD0028FBD009
:1037C000A0003060381B80007060002023E770B5D7
:1037D00004461F2804D005D3FF2C03D02A2070BD37
:1037E000472070BD00F03EF901463648FF2C0068C6
:1037F00005D090F82400A04204D1012503E090F800
:103800002440FAE70025304850F8240058B1012838
:103810000ED090F826202E4C90F82760A35CB3437E
:10382000A3540AD00FE0084600F020F9482070BDEC
:10383000084600F01BF9432070BD244A90F8284048
:103840001378A343137010F8222F42F0080202707D
:10385000084600F00BF9012D01D1FFF719FB0020FC
:1038600070BD70B50E4604461F2803D9FF2C01D049
:103870002A2070BD2EB100F0F5F80546FF2C02D0CD
:1038800005E0092070BD0F48006890F824400E48FC
:1038900050F8241051B101290DD050223046FFF7C5
:1038A00032FC284600F0E2F8002070BD284600F007
:1038B000DDF8292070BD284600F0D8F8432070BDFF
:1038C0004A0000206C000020481000204E0000201C
:1038D000640000204F00002070B504465B4800786B
:1038E00000281DD1002C1BD000F0BCF8034658481E
:1038F000584D016891F8262091F82760A85CB043E4
:10390000A85405D1544891F828500278AA4302706F
:103910000C84184600F0AAF8BDE87040FFF7B8BA6A
:1039200070BD70B5494C24780CB1552070BD00B9FC
:1039300019B13B2902D9512070BD1AB13B2A02D9D5
:10394000522070BD2BB14FF47A74A34203D353209D
:1039500070BD542070BD4FF47A756B43B3FBF4F324
:103960004FF461646043C1EB011100EB810010442E
:1039700000EB4001C1EBC01003EBC000040C80B2AF
:10398000FFF7AAFF4FF4004507E02846FFF7A4FF22
:103990002846FFF7A1FF641EA4B2002CF5D1002039
:1039A00070BD10B504461F2801D32A2010BD00F0B9
:1039B00059F82A4951F8241091B1012910D00A8CE4
:1039C00092B100230B8491F8222012F0370F0FD010
:1039D00022F0370281F82220012281F8232009E019
:1039E00000F044F8432010BD00F040F8502010BD16
:1039F00081F8233091F82220120710D4164A26317C
:103A00008B781478234313700A78124B49789C5CA6
:103A10000C439C5400F02AF8FFF73AFA01E000F05A
:103A200025F8002010BD10B500F01CF80C490C68FA
:103A300000F01CF8204610BD10B5044600F012F846
:103A400007490C60BDE8104000F010B84A000020A3
:103A50006C000020640000204E0000204810002070
:103A60007C000020EFF3108072B6704780F310885E
:103A700070471D484FF0FF010170002080F3098856
:103A80001A48012101701A484FF08051016062B656
:103A9000FEE717484FF080510160704714484FF01F
:103AA00080510160704772B6EFF3098028B1203869
:103AB00080E8F00F0F490968086000B50E4880479C
:103AC0005DF804EB0D480E490A78027009480D496B
:103AD0000A680260106890E8F00F203080F30988CF
:103AE0004EF0040E62B6704722ED00E04F00002059
:103AF00004ED00E06C000020873B00084C00002033
:103B00004D000020740000207047704770477047D8
:103B1000704770474FF080731360131F1860A2F155
:103B200008006FF001030360001F4FF012330360C1
:103B3000001F4FF003330360001F4FF00233036098
:103B4000001F5B100360001F0160001F4FF0113168
:103B50000160001F19010160001F4FF00931016071
:103B6000001FD9000160001F4FF007310160001FE6
:103B70004FF006310160001F4FF0053101609900E0
:103B8000001F01607047704770477047FFF76DB9BD
:103B9000FFF79EB980B2FFF79FBE10B56FF004002B
:103BA000FDF7DFFE264809210122017042804FF017
:103BB000E02042F22831026942F0020202614161D2
:103BC000016941F00101016110BD2DE9F0414FF0A3
:103BD000E02700247E691A49097800FB01F5FFF708
:103BE00044F9B969B8698842FCD002D2A1EB00015E
:103BF00002E0A6EB000211440C440146AC42F1D3B2
:103C0000BDE8F041FFF764B970B504460D4800788F
:103C100078B10D48007860B9094D6888844203D3B3
:103C2000B4FBF0F0FFF7B6FF6888B4FBF0F100FBDF
:103C300011444FF47A706043BDE87040C5E700005E
:103C4000800000204F0000204A000020D2B201E096
:103C500000F8012B491EFBD270470022F6E710B591
:103C600013460A4604461946FFF7F0FF204610BDEA
:103C700010B5002200E0521C835C8C5CA34201D191
:103C8000002BF8D1D8B2E1B2401A10BD2DE9F05F97
:103C90000546002092469B468846064681464024BB
:103CA0001BE0284641464746224600F042F853466C
:103CB0005A46C01A914110D311461846224600F0C8
:103CC00029F82D1A67EB01084F46224601200021F2
:103CD00000F020F817EB00094E41201EA4F101046A
:103CE000DFDC484631462A464346BDE8F09F0000E7
:103CF000064C074D06E0E06840F0010394E8070039
:103D000098471034AC42F6D3FCF716FA7C4B000807
:103D10009C4B0008202A04DB203A00FA02F1002024
:103D200070479140C2F1200320FA03F319439040F9
:103D30007047202A04DB203A21FA02F00021704764
:103D400021FA02F3D040C2F1200291400843194603
:103D5000704700000FB4054B10B503A9044A029840
:103D600000F02CF810BC5DF814FB0000EF02000816
:103D7000840000200FB4084B10B504A902AA0398D0
:103D800000F01CF8044602A9002000F077F9204654
:103D900010BC5DF814FB00007D40000802E008C87C
:103DA000121F08C1002AFAD170477047002001E0B5
:103DB00001C1121F002AFBD1704700002DE9FF4FFF
:103DC0008DB09B460F460446002638E1252801D0D9
:103DD0000F9959E00025641C9D49A84601222378CB
:103DE000203B02FA03F0084202D00543641CF6E7C8
:103DF00020782E2817D114F8010F45F004052A2841
:103E00000ED06FF02F022078A0F1300109290AD8D6
:103E100008EB880102EB410100EB0108641CF2E7AA
:103E200057F8048B641C20786C280DD004DC4C28D7
:103E300012D06A2811D104E074280DD07A280CD150
:103E40000AE045F4001507E0617845F480158142E9
:103E500002D1641C05F58015641C2278692A46D0BD
:103E600008DC002A70D0582A69D0632A11D0642A4D
:103E700008D13CE0702A69D0732A14D0752A5CD02E
:103E8000782A5CD00F9910465A46904706F10106F1
:103E9000D4E017F8040B8DF8000000208DF8010025
:103EA000E946012003E057F8049B4FF0FF30690713
:103EB0004FF0000501D40AE06D1C45450DDA85423E
:103EC000FADB19F805100029F6D106E06D1C8542D1
:103ED000FCDB19F805100029F8D12E4404E019F88C
:103EE000010B5A460F9990476D1EF8D2A6E00A20A2
:103EF0000021CDE90801C5F3025002280BD001CF03
:103F0000C11700290EDA4FF0000CD0EB0C006CEB5F
:103F100001012D2309E007F1070727F00707F7E85C
:103F20000201EEE72B0504D52B238DF82830012361
:103F300030E0EB072ED02023F7E70A2000E0102026
:103F40000021CDE9080109E07DE0FFE71020002114
:103F500045F00405CDE908014FF00808C5F302500B
:103F600002281BD001CF00214FF0000A2B0712D5E9
:103F7000702A19D0DDE908C38CF0100C5CEA030C40
:103F800009D150EA010306D030238DF828308DF88E
:103F9000292002239A46582A10D00AE0FF1D27F054
:103FA0000707F7E80201DFE740228DF828204FF0ED
:103FB000010A28A20DF120090B9209E02AA2F9E7D3
:103FC000DDE90823FFF762FE0B9B9B5C09F8013DCE
:103FD00050EA0102F4D1ADEB090000F12000089095
:103FE000680701D44FF001080899884502DDA8EB65
:103FF000010000E000208046002506E00AA85A469D
:10400000405D0F999047761C6D1C5545F6DB04E02A
:1040100030205A460F999047761CB8F10001A8F15C
:104020000108F5DC05E019F8010B5A460F99904795
:10403000761C0899481E08900029F4DC641C20783E
:1040400000287FF4C3AE11B03046BDE8F08F000009
:10405000092801003031323334353637383961625E
:104060006364656600000000303132333435363722
:104070003839414243444546000000000A68531C59
:104080000B6010707047000000000000000010106E
:104090001010001000002828280000000000282828
:1040A0007C287C282800103C503814781000004CE4
:1040B0002C10086060003048502054483400301004
:1040C0002000000000000810202020100800201010
:1040D0000808081020000010543854100000001088
:1040E000107C1010000000000000001808100000F4
:1040F00000007C00000000000000003030000004E0
:1041000008102040000038444C54644438001030FB
:104110001010101038003844040810207C007C086F
:10412000100804443800081828487C0808007C401F
:1041300078040444380018204078444438007C0453
:1041400008102020200038444438444438003844C3
:10415000443C0408300000303000303000000030B3
:10416000300030102000081020402010080000000F
:104170007C007C0000002010080408102000384457
:10418000040810001000384404345C44380010283F
:1041900044447C444400784444784444780038449F
:1041A00040404044380070484444444870007C40DB
:1041B000407840407C007C4040784040400038449B
:1041C000405C44443C004444447C44444400381033
:1041D0001010101038001C08080808483000444827
:1041E0005060504844004040404040407C00446C97
:1041F000545444444400444464544C4444003844BB
:1042000044444444380078444478404040003844B2
:1042100044445448340078444478504844003C4076
:104220004038040478007C10101010101000444432
:104230004444444438004444444444281000444422
:10424000445454542800444428102844440044440E
:104250004428101010007C04081020407C003820F6
:1042600020202020380000402010080400003808DA
:10427000080808083800102844000000000000006A
:10428000000000007C00201008000000000000007A
:1042900038043C443C0040405864444478000000EA
:1042A0003840404438000404344C44443C0000008E
:1042B00038447C4038003824207020202000000042
:1042C0003C44443C0438404058644444440010009A
:1042D0003010101038000800180808084830404016
:1042E0004850605048003010101010103800000086
:1042F000685454444400000058644444440000009E
:104300003844444438000000586464584040000079
:10431000344C4C3404040000586440404000000019
:104320003C40380478002020702020241800000031
:104330004444444C3400000044444428100000002D
:10434000444454542800000044281028440000002D
:104350004444443C043800007C0810207C001020B9
:10436000204020201000001010101010100020100D
:104370001008101020000000002054080000000069
:10438000000000000000000000000000000000002D
:104390000018181818181818000018180000001233
:1043A000362448000000000000000000000000006B
:1043B00000242424FE484848FE48484800000000E5
:1043C0001038545450301C14145454381010000039
:1043D0000044A4A8A8A8541A2A2A2A4400000000CD
:1043E0000030484848506EA49488897600000060E8
:1043F0006020C0000000000000000000000000027B
:1044000004080810101010101008080402000040E2
:1044100020101008080808080810102040000000AC
:1044200000001010D63838D6101000000000000030
:10443000000010101010FE101010100000000000FE
:1044400000000000000000000000606020C00000CC
:104450000000000000007F000000000000000000DD
:10446000000000000000000000006060000000008C
:10447000010202040408081010202040400000003F
:1044800000182442424242424242241800000000E6
:1044900000107010101010101010107C00000000A0
:1044A000003C4242420404081020427E000000000A
:1044B000003C42420418040202424438000000005A
:1044C00000040C14242444447E04041E0000000054
:1044D000007E404040586402024244380000000020
:1044E000001C24404058644242422418000000004E
:1044F000007E424408081010101010100000000048
:10450000003C4242422418244242423C0000000047
:10451000001824424242261A0202243800000000F9
:10452000000000001818000000001818000000002B
:1045300000000000181800000018180830000000E3
:1045400000020408102040201008040200000000AF
:1045500000000000FE000000FE000000000000005F
:104560000040201008040204081020400000000051
:10457000003C4242620204080800181800000000D3
:104580000038445AAAAAAAAAB4424438000000003B
:10459000001010182828243C444242E70000000084
:1045A00000F8444444784442424244F80000000089
:1045B000003E4242808080808042443800000000FB
:1045C00000F8444242424242424244F800000000A5
:1045D00000FE424848784848404242FE0000000041
:1045E00000FE424848784848404040E00000000053
:1045F000003C44448080808E8444443800000000A5
:1046000000E7424242427E42424242E7000000004E
:10461000007C1010101010101010107C0000000012
:10462000003E0808080808080808080888F0000084
:1046300000EE444850705048484444EE00000000EA
:1046400000E0404040404040404042FE000000004A
:1046500000EE6C6C6C6C5454545454D60000000042
:1046600000C7626252524A4A4A4646E200000000CF
:1046700000384482828282828282443800000000B4
:1046800000FC424242427C40404040E000000000CA
:104690000038448282828282B2CA4C38060000000E
:1046A00000F8444444784848444442E30000000091
:1046B000003E4242402018040242427C00000000BA
:1046C00000FE9210101010101010103800000000A2
:1046D00000E74242424242424242423C0000000065
:1046E00000E742424424242828181010000000004B
:1046F00000D692929292AAAA6C4444440000000010
:1047000000E7422424181818242442E7000000007F
:1047100000EE44442828101010101038000000004B
:10472000007E840408081020204242FC0000001E85
:104730001010101010101010101010101E0000009B
:1047400040402020101008040402020201010078F9
:104750000808080808080808080808087800000879
:104760001422000000000000000000000000000013
:1047700000000000000000000000000000FF0060DA
:104780001000000000000000000000000000000019
:1047900000000000003C421E2242423F0000000098
:1047A00000C040404058644242426458000000004B
:1047B00000000000001C22404040221C00000000BD
:1047C00000060202021E22424242261B0000000096
:1047D00000000000003C427E4040423C00000000DF
:1047E000000F1110107E10101010107C000000003F
:1047F00000000000003E444438403C42423C00007F
:1048000000C04040405C6242424242E7000000007B
:1048100000303000007010101010107C00000000FC
:10482000000C0C00001C0404040404044478000080
:1048300000C04040404E4850684844EE0000000030
:1048400000701010101010101010107C00000000EC
:104850000000000000F64949494949ED0000000008
:104860000000000000DC6242424242E7000000001B
:1048700000000000003C42424242423C0000000076
:104880000000000000D864424242645840E000004A
:1048900000000000001E22424242261A02070000C9
:1048A0000000000000EE3220202020F80000000070
:1048B00000000000003E42403C02427C000000003C
:1048C00000000010107C10101010100C00000000F0
:1048D0000000000000C642424242463B0000000089
:1048E0000000000000E7422424281010000000000F
:1048F0000000000000D79292AAAA444400000000E1
:1049000000000000006E2418181824760000000033
:104910000000000000E742242428181010E00000E6
:1049200000000000007E44081010227E00000003FA
:104930000404040404080404040404040300080830
:104940000808080808080808080808080808006097
:10495000101010101008101010101010600000003F
:104960000000000020520C000000000000000000C9
:104970000000000000000000000000000000000037
:104980000000000000000000000000000000000027
:104990000000000000000000000000000000000017
:1049A0000000000000000000000000000000000007
:1049B00000000000000000000000000000000000F7
:1049C00000000000000000000000000000000000E7
:1049D00000000000000000000000000000000000D7
:1049E00000000000000000000000000000000000C7
:1049F00000000000000000000000000000000000B7
:104A000000000000000000000000000000000000A6
:104A10000000000000000000000000000000000096
:104A20000000000000000000000000000000000086
:104A30000000000000000000000000000000000076
:104A40000000000000000000000000000000000066
:104A500000000000000000000000000000A24A0466
:104A60007541725463500A0003E98DA7000AA14AF8
:104A700077616B6575705F756E69000001000200FB
:104A80000100030001000200010004000100020017
:104A90000100030001000200010005000100020006
:104AA00001000300010002000100040001000200F7
:104AB00001000300010002000100060001000200E5
:104AC00001000300010002000100040001000200D7
:104AD00001000300010002000100050001000200C6
:104AE00001000300010002000100040001000200B7
:104AF00001000300010002000100070001000200A4
:104B00000100030001000200010004000100020096
:104B10000100030001000200010005000100020085
:104B20000100030001000200010004000100020076
:104B30000100030001000200010006000100020064
:104B40000100030001000200010004000100020056
:104B50000100030001000200010005000100020045
:104B60000100030001000200010004000100020036
:104B70000100030001000200010000009C4B00083E
:104B800000000020880000009C3D0008244C000824
:104B900088000020E0170000AC3D00080000BB11B9
:104BA0002233445566778899AABBCCDDEEFFAAAACA
:104BB000AAAAAAAAAAAAAAAAAAAAAAAAAAAA0204A3
:104BC00006080000000001020304010203040607B6
:104BD00008090000000000000000000000000000C4
:104BE00000000000000000000000000000000000C5
:104BF00000000000000000000000000000000000B5
:104C000000000000000000000000000000000000A4
:104C10000000000000000000000000000000000094
:044C20000000000090
:0400000508000147A7
:00000001FF
