:020000040800F2
:1000000000040020470100089D0100089F0100082E
:10001000A1010008A3010008A501000800000000DC
:10002000000000000000000000000000A701000820
:10003000A9010008000000007B390008AD0100089C
:1000400067010008670100086701000867010008F0
:100050006701000867010008291B00086701000804
:1000600067010008331B0008391B000867010008FE
:1000700067010008670100086701000867010008C0
:1000800067010008670100086701000867010008B0
:1000900067010008670100086701000867010008A0
:1000A0006701000867010008670100086701000890
:1000B0009B1F00086701000867010008670100082E
:1000C0006701000867010008670100086701000870
:1000D0006701000893020008670100086701000833
:1000E0006701000867010008670100086701000850
:1000F0006701000867010008670100086701000840
:10010000670100086701000867010008670100082F
:10011000670100086701000867010008670100081F
:10012000670100086701000867010008670100080F
:10013000DFF80CD003F056FD0048004775010008B9
:1001400060240020704708488047084981F30888E8
:1001500007480047FEE7FEE7FEE7FEE7FEE7FEE7AB
:10016000FEE7FEE7FEE7FEE7450100086024002009
:100170003101000810B501F0EDFB02F020FD042371
:10018000044A0021044803F035F802F025FE00205F
:1001900010BD0000BC010020ED2900087047FEE7FB
:1001A000FEE7FEE7FEE770477047704710B502F0C4
:1001B00093FD02F057FEBDE8104002F097BD00002D
:1001C00030B587B0012144F2040000F003FB4FF486
:1001D0000070ADF8100003248DF812401820654D12
:1001E0008DF8130004A9284600F027F92915ADF869
:1001F000101004218DF8131004A9284600F01DF9F1
:1002000025208DF814008DF815408DF8164001203A
:100210008DF8170005A800F09EFC4FF416500090D2
:100220000020ADF80400ADF80600ADF80800ADF808
:100230000C000C20504CADF80A006946204600F036
:100240004AFB012240F22551204600F0B1FB01217A
:10025000204600F0A3FB07B030BD10B5464C014668
:10026000204600F0F1FB8021204600F03AFC0028F7
:10027000F9D010BD70B5404D04462021284600F04D
:1002800030FC002804D0284600F0E2FB207001205A
:1002900070BD10B5384C40F22551204600F02BFCC3
:1002A000002808D0204600F0D3FB354A334B118894
:1002B0005854491C118010BD2DE9F0410024304DE7
:1002C0002E4E274609E0305DFFF7C7FF2888401E05
:1002D000A04200D12F80641CA4B228888442F2D3AB
:1002E000BDE8F0414FF48061244803F032BC70B5A2
:1002F0000D460646002404E0305DFFF7AEFF641CA7
:10030000A4B2AC42F8D370BD10B50446C0B2FFF73A
:10031000A4FF204610BD10B5194C002122880AB157
:10032000164A05E0084610BD535C4354491C89B287
:1003300023889942F8D34FF48061104803F009FCF8
:1003400020880021218010BD002903D0012901D17E
:1003500003F07ABC7047002210B502231146104604
:1003600003F049FA002107A0FFF7EEFFBDE81040B7
:10037000A2E700000008014000380140C001002051
:10038000000000204563686F0D0A0000884A10B520
:10039000811A1315D41490422ED00DDC85494018D3
:1003A0001CD0984221D0A0423BD10121102000F066
:1003B00023FA002110200DE0994224D0A14229D037
:1003C000B1F5406F2DD101210C02204600F014FA46
:1003D00000212046BDE8104000F00EBA01210420A3
:1003E00000F00AFA00210420F4E70121082000F0BF
:1003F00003FA00210820EDE70121202000F0FCF99C
:1004000000212020E6E70121402000F0F5F900213D
:100410004020DFE70121802000F0EEF9002180205C
:10042000D8E710BD10B50121084600F0E5F900211C
:10043000BDE81040012000F0DFB9F0B5CC78002213
:1004400004F00F03E40601D58C7823430C784FF0B9
:100450000F0C4FF0010EDCB105680E880EFA02F4A5
:100460002640A64210D196000CFA06F725EA0707A7
:1004700003FA06F5CE783D43282E02D0482E02D04E
:1004800002E0446100E00461521C082AE5D30560E3
:100490000A88FF2A1CD94468002202F108060EFAD5
:1004A00006F50E882E40AE420ED196000CFA06F7E5
:1004B000BC4303FA06F7CE783C43282E00D14561B1
:1004C000CE78482E00D10561521C082AE5D344603D
:1004D000F0BD4FF6FF710180022181700421C170CF
:1004E00070470246002092680A4200D001207047FF
:1004F000806880B2704702460020D2680A4200D06D
:1005000001207047C06880B2704701617047416147
:1005100070470AB10161704741617047C16070471F
:1005200041F48032826181618261816980697047B2
:10053000214B10B51A684FF68074224042EA001031
:100540000843186010BD1D49C8617047F0B51A4DC9
:100550006B68440D260184B2C0F30157B440C0F368
:100560000342032F05D0C0020AD5032090408343E5
:1005700007E0686823F0706220F07060686002E055
:10058000A34343F0706201B122436A60F0BD10B52D
:100590008A0721F003040849120F21440F238C68B5
:1005A00093409C438C608B68904003438B6010BDEC
:1005B0000014014000F8FEBF00000140000020428E
:1005C000A448016841F0010101604168A24A11405C
:1005D00041600168A14A11400160016821F4802155
:1005E0000160416821F4FE01416000218160704793
:1005F00098490A6822F480320A600A6822F480224C
:100600000A60B0F5803F07D0B0F5802F03D10868AD
:1006100040F4A02008607047086840F48030F9E793
:100620000346002059098B4A01290AD002290AD021
:10063000516A03F01F02012393400B4200D00120B6
:1006400070471168F5E7116AF3E718B500204FF419
:10065000A06400903120FFF7E3FF0099491C00914E
:1006600008B9A142F6D13120FFF7DAFF002800D007
:10067000012018BD774A116821F0F80141EAC00055
:1006800010607047764908607047724B5A6808439B
:1006900022F47C1210435860704771490866704715
:1006A0006C4A516821F00301014351607047694869
:1006B000406800F00C007047664A516821F0F00174
:1006C000014351607047634A516821F4E06101437E
:1006D000516070475F4A516821F4605141EAC0009F
:1006E000506070475B4A0029517A01D0014300E015
:1006F0008143517270475A49D83108607047554A52
:10070000516821F440410143516070475149002232
:1007100081F8202081F82020012802D0042802D16D
:10072000052081F8200070474E490860704749490C
:100730000A6A02430A6270474A49443908607047AE
:1007400030B5444A5168484B11F00C0103D00429DC
:1007500001D0082901D0036011E05168022301F49F
:10076000701103EB9141536813F4803F02D053683A
:100770009B0301D53D4B00E03B4B59430160516861
:100780000F2303EA11113A4B5C5C0168E1404160C0
:100790005468072505EA14241C5D21FA04F48460DA
:1007A000546805EAD4241B5DD940C1605268032314
:1007B00003EA92322E4B1B1F9A5CB1FBF2F10161EE
:1007C00030BD244A0029516901D0014300E0814332
:1007D000516170471F4A0029916901D0014300E02F
:1007E0008143916170471B4A0029D16901D00143BF
:1007F00000E08143D1617047164A0029D16801D0D9
:10080000014300E08143D1607047124A0029116919
:1008100001D0014300E08143116170471149403923
:10082000086070470E49C86470470A49C87170472C
:100830000848416A41F0807141627047054A0146AB
:10084000002092680A4200D0012070470149887256
:1008500070470000001002400000FFF8FFFFF6FEA6
:10086000000042428004424200127A0000093D002A
:1008700006000020B24A10B5811A131590421BD011
:1008800007DCB049401814D0984223D1012104025A
:1008900017E0994213D0B1F56C4F1BD101218C03A5
:1008A0002046FFF7A9FF2046BDE810400021FFF7D2
:1008B000A3BF01214C0404E00121CC0401E001218B
:1008C0000C052046FFF7A1FF2046BDE8104000219F
:1008D000FFF79BBF10BD30B50446008A85B00D46BA
:1008E0004CF6FF710840E98801432182A0894EF649
:1008F000F3110840A9882A8911436A8902431143E8
:10090000A181A08A4FF6FF410840A9890143A18235
:100910006846FFF715FF8C48844201D1039800E038
:100920000298642200EBC00101EB001029686FF00F
:1009300018058900B0FBF1F0B0FBF2F109010B09D9
:100940006B4300EB8300322303EB0010B0FBF2F0AB
:1009500000F00F000843208105B030BD4FF4165160
:10096000016000218180C18001810C22428181814E
:10097000704710B5028A4FF2FF031A400B884C886B
:1009800023438C88C9880C4323431343038210BD3F
:100990000021018041808180C180704700298189C8
:1009A00002D041F4005101E021F4005181817047EF
:1009B00010B5C1F3421301F01F040121A140012B26
:1009C00007D0022B07D01430002A026805D00A4352
:1009D00004E00C30F8E71030F6E78A43026010BDFF
:1009E000002A828A01D00A4300E08A43828270474B
:1009F000028A22F00F020282028A0A4302827047B0
:100A0000828922F40062828182890A43828170474E
:100A10000029818902D041F0020101E021F00201A8
:100A200081817047028A22F020020282028A0A43F0
:100A3000028270470029018A02D041F4804101E01E
:100A400021F4804101827047C1F308018180704721
:100A50008088C0F308007047818941F001018181DD
:100A60007047028BD2B20283028B42EA01210183DA
:100A70007047028B02F47F420283028B0A43028397
:100A800070470029818A02D041F0200101E021F065
:100A90002001818270470029818A02D041F0100133
:100AA00001E021F01001818270470029818A02D083
:100AB00041F0080101E021F0080181827047828A3B
:100AC00022F004028282828A0A43828270470029CD
:100AD000818A02D041F0020101E021F0020181820D
:100AE00070470246002012880A4200D00120704759
:100AF000C9430180704770B501F01F05012600242D
:100B0000C1F3421306FA05F2012B0FD0022B0FD0CE
:100B1000838A4FEA11210088134206FA01F600EA9F
:100B2000060001D000B10124204670BD8389F0E7A2
:100B3000038AEEE70A0A01219140C9430180704708
:100B4000004C004000BCFFBF00380140274908436B
:100B500027490860704770B50F23C27801780124D7
:100B60004FF0E025DAB1224A126802F4E062C2F5E1
:100B7000E062120AC2F10406D3404278B24086789D
:100B80001E401C4B16433201CA54007800F01F016E
:100B90008C40400905EB8000C0F8004170BD01F0B9
:100BA0001F008440480905EB8000C0F8804170BDFB
:100BB000114A114001430E48001F016070470C4A62
:100BC000121D0029116801D0014300E0814311602A
:100BD00070474FF0E0210428086903D020F004009A
:100BE0000861704740F00400FAE700000000FA05D1
:100BF0000CED00E000E400E080FFFF1F374900201B
:100C00000860091D0860091D0860091D0860334956
:100C1000334814310860704730B583792F4A016832
:100C200053B313688B431360111D0B680468A3430F
:100C30000B60017911440B68046823430B60274B58
:100C4000083319680468A14319601C1D21680568F0
:100C5000A94321604179102905D011440A68006830
:100C600002430A6030BD19680268114319602168A7
:100C700000680143216030BD0079104402688A4356
:100C8000026030BD0021016001710C22427181714E
:100C90007047124910310A6802430A6070470146E2
:100CA0000E4A0020143212680A4200D00120704718
:100CB0000A49143108607047084A0146002012684A
:100CC000064B0A4014331B680B4202D0002A00D0A6
:100CD0000120704701491431086070470004014049
:100CE000FFFF07009B4910B5401810D0B0F5806F8A
:100CF00010D0B0F5784F18D101210C032046FFF732
:100D00007BFD2046BDE810400021FFF775BD0121A5
:100D10008C0301E00121CC032046FFF776FD20463D
:100D2000BDE810400021FFF770BD10BD30B502884E
:100D30004C8802F441530A88CD8822438C882C4386
:100D400022430C8922434C8922438C892243CC893B
:100D500022431A430280828B22F400628283098A32
:100D6000018230BDF0B505460C4602200021AA8B59
:100D700085B001264FF240031A40AA832884AF8B26
:100D80002289022A20D0A08800B102266846FFF7F7
:100D9000D7FCE088B0F5007F2CD020897101414359
:100DA000009800EB80004000B0FBF1F0401D80B2E5
:100DB0000A21B0FBF1F000F00101401A4FF6FF727A
:100DC000C0F34F0002EA0121821EFE2A01D3022055
:100DD0000021E288084302432A84208861886289CE
:100DE0000843A18811430843384340F40060A883B6
:100DF00005B0F0BD0098218900EB80004000090299
:100E0000D2E70021018041808180C1800181418140
:100E10008181C181072101827047002101804180C9
:100E20008180C180022202814181704700290188AE
:100E300002D041F0400101E021F040010180704703
:100E40000029818B02D041F4806101E021F48061AE
:100E500081837047090901238B40002A828899B257
:100E600001D00A4300E08A4382807047002A8288CA
:100E700001D00A4300E08A43828070478181704735
:100E800080897047A1F57E420188FF3A02D041F483
:100E9000807101E021F48071018070470029818810
:100EA00002D041F0040101E021F00401818070478B
:100EB000028822F40062028002880A43028070479E
:100EC000018841F48051018070470029018802D0D7
:100ED00041F4005101E021F40051018070470129E3
:100EE00001D0008B7047808A7047008A7047B1F547
:100EF000804F018803D021F480410180704741F484
:100F00008041FAE70246002012890A4200D00120FF
:100F10007047C9430181704730B501F00F030125C7
:100F2000024605FA03F40020A3B2090905FA01F408
:100F30009188A4B2128921401A4202D0002900D01F
:100F4000012030BD01F00F0201219140C943018110
:100F50007047000000C8FFBFFA4A10B5811A131588
:100F6000D41490423BD010DCB0F1804F22D0F6492F
:100F7000401826D098422BD0A04241D10121082010
:100F8000FFF743FC0021082036E099422ED0B1F54E
:100F90008E3F0DD0B1F5923F32D101214C03204656
:100FA000FFF72AFC2046BDE810400021FFF724BCD3
:100FB0000121F4E701210846FFF727FC0021012069
:100FC0001AE001210220FFF720FC0021022013E09B
:100FD00001210420FFF719FC002104200CE001216D
:100FE0001020FFF712FC0021102005E00121202035
:100FF000FFF70BFC00212020BDE81040FFF705BCE7
:1010000010BD028802F08F020280CA884B881A4302
:1010100003881A4302808A8882850A880285CB4A1F
:10102000904202D0CA4A904201D1097A0186012138
:101030008182704730B5028C22F001020284028C5A
:101040008388048B22F0020224F070050C882C4364
:101050000D8915434A882A43CD888586BB4DA84211
:1010600002D0BB4DA8420DD122F008054A8923F4D5
:1010700003432A4322F004058A882A438D891D43AD
:10108000CB892B4383800483028430BD70B5028CEE
:1010900022F010020284028C8388048B0D8824F4D1
:1010A000E0464FF6FF7404EA052535430E8922F029
:1010B000200204EA061616434A8804EA0212324362
:1010C000CE880687A14EB04202D0A14EB04215D1C3
:1010D00022F080064A8923F40C4304EA02123243C8
:1010E00022F040068A8804EA021232438E89C989B6
:1010F00004EA86061E4304EA8103334383800583A2
:10110000028470BD70B5028C22F480720284028C5D
:101110008388848B0D8824F0700425430E894FF654
:10112000FF7422F4007204EA062616434A8804EA91
:1011300002223243CE888687844EB04202D0844E4B
:10114000B04215D122F400664A8923F4304304EA00
:101150000222324322F480668A8804EA0222324361
:101160008E89C98904EA06161E4304EA0113334333
:1011700083808583028470BD70B5028C22F4805216
:101180000284058C8288838B0C8823F4E0464FF61A
:10119000FF7303EA042434430E8925F4005503EA5F
:1011A00006362E434D8803EA05353543CE88A0F830
:1011B0004060664EB04202D0654EB04205D189898A
:1011C000C2F30D0603EA81123243828084830584D0
:1011D00070BD828B22F440628283828B4FF6FF7354
:1011E00003EA01210A4382837047828B22F00C02BA
:1011F0008283828B0A4382837047028B22F440628F
:101200000283028B4FF6FF7303EA01210A43028334
:101210007047F0B5048C24F010040484078B068C0E
:101220004FF6FF7404EA011527F4734704EA03310B
:10123000394304EA02220A4326F02001294341F0FF
:10124000100102830184F0BD028B22F00C020283A4
:10125000028B0A43028370472DE9F0410C46054694
:1012600008884988A2882389F8B1042825D008284D
:10127000288C4FF6FF7628D020F480502884AF8B3E
:10128000288C06EA0131120227F4734642EA03323F
:10129000324320F40050084340F48050AA8328844D
:1012A000E1882846BDE8F04193E7284600F0CBFAF4
:1012B000E1882846BDE8F041C6E72846FFF7A9FFC8
:1012C000E1882846BDE8F04197E720F48070288443
:1012D000AF8B288C06EA031327F0F30713433B4335
:1012E00006EA012120F40070084340F48070AB83CB
:1012F0002884E1882846BDE8F04176E72DE9F041F1
:101300000C46002649880746012501B90226A28815
:10131000012A00D10225208823890028384619D0C7
:10132000FFF777FFE1883846FFF767FF23892A46F2
:101330003146384600F087FAE1883846BDE8F0418A
:1013400082E700000010004000FCFFBF002C0140BD
:101350000034014000F077FAE1883846FFF774FF67
:1013600023892A4631463846FFF753FFE18838463D
:10137000BDE8F04141E710B50A884B88CC881A4394
:101380008B8823431A430B891A434B8989891A4353
:101390000A43A0F8442010BD4FF6FF718180002160
:1013A0000180C1804180017270470021018041802D
:1013B0008180C180018141818181C181704700218B
:1013C0000180418001228280C1800181704700211B
:1013D000018041808180C18001814181818170478C
:1013E0000029018802D041F0010102E040F2FE3202
:1013F000114001807047002930F8441F02D041F4A9
:10140000004101E0C1F30E0101807047002A82898A
:1014100001D00A4300E08A4382817047818270478D
:101420001143A0F848107047002A828901D00A436E
:1014300000E08A4382817047018921F00701018120
:101440007047028922F070020A430281704700B59A
:101450000346FFF7F6FF188940F00700188100BD2A
:1014600070B516460D46602904464FF0010231461C
:101470000AD000F0E8F929462046FFF7E2FF20896C
:1014800040F00700208170BDFFF7C3FEF3E710B501
:10149000048911434FF6FF7202EA0322E4B21143BA
:1014A0002143018110BD10B50446FFF7F0FF2089EC
:1014B00040F07700208110BD10B50446FFF7E7FF2C
:1014C000208940F48040208110BD018582827047D0
:1014D000028840F28F331A400A430280704770B589
:1014E0000589048B068C25F007050D434FF6FC415A
:1014F0000C4040F201110C434FF6FF7101EA031159
:1015000026F022061143314305810483018470BD16
:10151000028B22F070020A4302837047028B4FF65F
:10152000FF7322F4E04203EA012111430183704773
:10153000828B22F070020A4382837047828B4FF6BF
:10154000FF7322F4E04203EA0121114381837047D3
:101550000029018802D041F0800102E040F27F3290
:101560001140018070470029818802D041F00401B8
:1015700001E021F00401818070470029818802D0B8
:1015800041F0080101E021F0080181807047002945
:10159000818802D041F0010101E021F00101818048
:1015A0007047028B22F008020A4302837047028BC5
:1015B0004FF6FF7322F4006203EA01211143018315
:1015C0007047828B22F008020A4382837047828B25
:1015D0004FF6FF7322F4006203EA01211143818375
:1015E0007047028B22F004020A4302837047028B89
:1015F0004FF6FF7322F4806203EA01211143018355
:101600007047828B22F004020A4382837047828BE8
:101610004FF6FF7322F4806203EA012111438183B4
:101620007047028B22F080020A4302837047028BCC
:101630004FF6FF73C2F30E0203EA01211143018347
:101640007047828B22F080020A4382837047828B2C
:101650004FF6FF73C2F30E0203EA012111438183A7
:101660007047028C22F002020A4302847047028C07
:1016700022F008020A4302847047028C4FF6FF737F
:1016800022F0200203EA0111114301847047028C09
:101690004FF6FF7322F0800203EA01111143018427
:1016A0007047028C4FF6FF7322F4007203EA0121A7
:1016B000114301847047028C4FF6FF7322F40062DD
:1016C00003EA0121114301847047028C4FF6FF7336
:1016D00022F4005203EA013111430184704710B52E
:1016E000038C01248C40A3430384038C8A4013435E
:1016F000038410BD10B5038C04248C40A3430384E1
:10170000038C8A401343038410BD10B5038C01245D
:101710008C40A343038491B1082910D0091FC1F361
:101720004E010844816948F6FF731940816181695F
:101730004FF6FF7303EA02221143816110BD00EBF3
:10174000510081694FF68F73194081618169F3E718
:101750000029018802D041F0020102E040F2FD328E
:101760001140018070470029018802D041F0040136
:1017700002E040F2FB32114001807047002981886D
:1017800002D041F0800101E021F0800181807047AA
:10179000028840F2F7331A40028002880A4302802E
:1017A0007047828822F07002828082880A43828099
:1017B0007047028922F00702028102890A430281EE
:1017C0007047028922F08002028102890A43028165
:1017D0007047818470478185704781867047018793
:1017E000704781877047A0F8401070470288D2B2D6
:1017F000028002880A4302807047808E7047008F03
:101800007047808F7047B0F840007047808C7047F9
:10181000008D704702460020128A0A4200D0012043
:101820007047C9430182704702460020138A92899B
:101830000B4202EA010202D0002A00D001207047C8
:10184000C9430182704770B5048C24F001040484FC
:10185000058B048C4FF6FF7606EA0313134325F03D
:10186000F3052B4324F002020A4342F001010383F3
:10187000018470BD0CB500223248009201920168CB
:1018800041F4803101604FF4A063016801F400313C
:1018900001910099491C0091019911B9009999424F
:1018A000F3D10168890333D50121019126490A68E2
:1018B00042F010020A600A6822F003020A600A6815
:1018C00042F002020A60416841604168416041683B
:1018D00041F480614160416821F47C1141604168BC
:1018E00041F4E8114160016841F0807101600168D4
:1018F0008901FCD5416821F003014160416841F054
:10190000020141604168C1F381010229FAD10CBD95
:101910000192FEE70B48016841F001010160416856
:101920000A4A114041600168094A1140016001689A
:1019300021F480210160416821F4FE014160002111
:10194000816097E700100240002002400000FFF88D
:10195000FFFFF6FE10B5FFF7DDFF00F023F800F003
:101960003AF8FEF72DFCBDE8104002F080B80B48B5
:101970004FF47A710068B0FBF1F0B0F1807F0CD2C7
:1019800020F07F414FF0E020491E4161044AF021E0
:10199000117000218161072101617047483F0008F3
:1019A00023ED00E038B501211020FEF713FF4FF4BE
:1019B0000054ADF8004010208DF803000320284D9E
:1019C0008DF8020069462846FEF737FD2146284675
:1019D000FEF79BFD38BDF8B501210420FEF7FAFEA5
:1019E0000F20ADF8000010208DF803001D4D0324DA
:1019F0008DF8024069462846FEF71FFD1A4E012168
:101A00003046FEF782FD02213046FEF77EFD0421BE
:101A10003046FEF77AFD08213046FEF776FD0121BB
:101A20000420FEF7D7FEF020ADF8000028208DF846
:101A300003008DF8024069462846FEF7FEFC10219F
:101A40003046FEF764FD20213046FEF760FD402160
:101A50003046FEF75CFD80213046FEF758FDF8BDAC
:101A60000010014000080140000C01407FB5012139
:101A70000420FEF7AFFE0124ADF80C4028208DF8BD
:101A80000F0003A92E48FEF7D8FC01210846FEF7F7
:101A9000A1FE03210420FEF77AFD00268DF80860E0
:101AA0000C208DF80900082501958DF80A4001A841
:101AB000FFF7B2F804210846FEF769FD10200190F7
:101AC00001A8FFF7A9F800210846FEF760FD019480
:101AD0008DF8095001A8FFF79FF806208DF8000047
:101AE00002258DF8015003208DF802008DF8034087
:101AF0006846FFF730F809208DF800008DF8015096
:101B00008DF802408DF803406846FFF724F80A205C
:101B10008DF800008DF801508DF802608DF80340BB
:101B20006846FFF718F87FBD064901200860FFF7F7
:101B3000D1B80820FFF7CEB81020FFF7CBB80000CF
:101B400000080140180000203EB50024684600F05F
:101B5000B2FEC0B20A2810D10A226946E84802F053
:101B600003F838B1E6480A2269460A3001F0FCFF62
:101B700010B102E0012400E0022420463EBD10B571
:101B8000FFF7E2FFDF4A4FF40051012806D0022898
:101B900009D1BDE810401046FEF7B7BCBDE81040C3
:101BA0001046FEF7B4BC10BD3EB500200090019079
:101BB0000290FF246846FEF7AEFBD1480A22694630
:101BC000143001F0D1FF00B90024CD480A22694643
:101BD0001E3001F0C9FF00B90124C9480A22694634
:101BE000283001F0C1FF00B91024C5480A22694617
:101BF000323001F0B9FF00B91124C1480A22694608
:101C00003C3001F0B1FF00B92024BD480A226946EA
:101C1000463001F0A9FF00B92124B9480A226946DB
:101C2000503001F0A1FF00B93024B5480A226946BE
:101C30005A3001F099FF00B93124B1480A226946AF
:101C4000643001F091FF00B94024AD480A22694692
:101C50006E3001F089FF00B94124A9480A22694683
:101C6000783001F081FF00B94224A5480A22694674
:101C7000823001F079FF00B95024A1480A22694658
:101C80008C3001F071FF00B951249D480A22694649
:101C9000963001F069FF00B9522420463EBDF8B5E8
:101CA0000020994F009010213846FEF71AFC064696
:101CB00020213846FEF715FC054640213846FEF740
:101CC00010FC044680213846FEF70BFC8DF80060BE
:101CD0008DF801508DF802408DF80300042168460C
:101CE000FEF705FBF8BD10B5FFF75EFF864A312809
:101CF00040D014DC112832D009DC60B301282CD08C
:101D0000102854D102211046FEF701FC2BE02028B8
:101D10002CD021282CD0302849D10821F3E7502895
:101D200037D00CDC402827D041282BD042283ED188
:101D3000012114461046FEF7E8FB022109E0512874
:101D40002DD0522833D1042114461046FEF7DDFB76
:101D50000821204605E00121D5E7012100E002210C
:101D60001046FEF7D2FBBDE8104098E70421CAE711
:101D70000421F5E70821F3E7012114461046FEF798
:101D8000C6FBDAE7012114461046FEF7BEFB02212E
:101D90000BE0042114461046FEF7B9FBD8E70421F6
:101DA00014461046FEF7B1FB08212046ACE710BDF3
:101DB00038B5002000906846FEF7ADFA04283BD104
:101DC0009DF80010504C19B901212046FEF79DFBEB
:101DD0009DF80010012902D12046FEF798FB9DF8DE
:101DE000011019B902212046FEF78FFB9DF8010072
:101DF000012803D102212046FEF789FB9DF802004D
:101E000018B904212046FEF780FB9DF80200012846
:101E100003D104212046FEF77AFB9DF8030018B990
:101E200008212046FEF771FB9DF80300012803D12D
:101E300008212046FEF76BFB38BD2DE9F041324CFE
:101E400010212046FEF74DFB064620212046FEF7D6
:101E500048FB074640212046FEF743FB054680210C
:101E60002046FEF73EFB0446012E01D02EB111E0C4
:101E700087B923480A21643004E0012F0AD12048A1
:101E80000A216E30FEF733FA002301221946184664
:101E900001F0B1FC3E430AD119480A217830FEF71F
:101EA00026FA002301221946184601F0A4FCFFF788
:101EB0007FFF012D01D02DB111E084B910480A2116
:101EC000823004E0012C0AD10D480A218C30FEF743
:101ED0000EFA002301221946184601F08CFC254316
:101EE0000AD107480A219630FEF701FA00230122A1
:101EF0001946184601F07FFCBDE8F04158E79CE721
:101F00004C3F0008001001400008014008B54FF4A4
:101F1000E060FEF71BFE1C208DF8000000208DF80D
:101F2000010003208DF8020001208DF803006846AF
:101F3000FEF711FE08BD3EB501210846FEF753FC31
:101F40004FF080442046FFF707F84FF47A71ADF860
:101F500004104721ADF800100021ADF802106946C9
:101F60002046FFF74EF801212046FFF75AFC0122D8
:101F700011462046FFF74AFA01212046FFF730FAC2
:101F800000210120FEF72FFC01210846FEF72BFC63
:101F900001212046FFF724FA3EBD10B501218C0730
:101FA0002046FFF741FC002807D001212046FFF71B
:101FB00047FC02480168491C016010BD1C0000205C
:101FC00038B52020ADF8000001208DF80200102067
:101FD000FF4C8DF8030069462046FEF72EFA2021BB
:101FE0002046FEF792FA38BD30B587B0012141F2A4
:101FF0000500FEF7EFFBE020ADF8140003248DF898
:1020000016401820F34D8DF8170005A92846FEF755
:1020100014FAE0212846FEF778FA1021ADF81410E2
:102020008DF816408DF8171005A92846FEF705FA19
:1020300010212846FEF769FA0020ADF80000ADF83F
:1020400008004FF48271ADF80400ADF80C00ADF853
:102050000210ADF80600ADF80E0069150720DE4C41
:10206000ADF80A10ADF8100069462046FEF75EFE96
:1020700001212046FEF7DAFE07B030BD10B5D64C80
:1020800001462046FEF7FAFE02212046FEF73AFFFF
:102090000028F9D010BD10B50446000AFFF7EEFF86
:1020A000E0B2BDE81040E9E770B5CA4C0E460546FF
:1020B00010212046FEF72BFA2846FFF7ECFF0520FB
:1020C000FFF7DCFF3046FFF7D9FF2046BDE8704040
:1020D0001021FEF71ABA70B5BE4C0E460546102107
:1020E0002046FEF714FA2846FFF7D5FF0620FFF733
:1020F000C5FF3046FFF7CFFF2046BDE870401021F6
:10210000FEF703BA2DE9F041B24F0D4604461646DC
:1021100010213846FEF7FBF92046FFF7BCFF0420EC
:10212000FFF7ACFF002405E015F8010BFFF7A6FF51
:10213000641CA4B2B442F7D33846BDE8F041102184
:10214000FEF7E3B92DE9F041A24D0F4604461646CD
:1021500010212846FEF7DBF93846FFF79CFF0D20DB
:1021600000EB4410C0B2FFF789FF3046FFF786FF4F
:102170002846BDE8F0411021FEF7C7B92DE9F0412E
:10218000944D0F460446164610212846FEF7BFF927
:102190003846FFF780FF0E2000EB4410C0B2FFF777
:1021A0006DFF3046FFF777FF2846BDE8F04110216C
:1021B000FEF7ABB92DE9F041864D0F4606461446B1
:1021C00010212846FEF7A3F93846FFF764FF0F20D9
:1021D00000EB4610C0B2FFF751FF2078FFF74EFF2B
:1021E0006078FFF74BFFA078FFF748FFE078FFF734
:1021F00045FF2846BDE8F0411021FEF786B970B5CD
:10220000744D044610212846FEF781F92046FFF759
:1022100042FF0120FFF732FF6F4C2046FEF730FEF1
:102220000020FFF72BFF2046FEF72AFEC4B2102144
:102230002846FEF76AF9204670BD70B5654D0E461A
:10224000044610212846FEF762F93046FFF723FFC7
:10225000092000EB4410C0B2FFF710FF5E4C20468F
:10226000FEF70EFE0020FFF709FF2046FEF708FEEE
:10227000C4B210212846FEF748F9204670BD70B55B
:10228000544D0E46044610212846FEF740F93046CC
:10229000FFF701FF0A2000EB4410C0B2FFF7EEFE8B
:1022A0004D4E3046FEF7ECFD0020FFF7E7FE3046CE
:1022B000FEF7E6FD04460020FFF7E0FE4FF6FF7054
:1022C00000EA04243046FEF7DBFD204484B21021EE
:1022D0002846FEF71AF9204670BD2DE9F35F0C463B
:1022E00026210098FFF7CBFF06007FD040F2B450C4
:1022F000864200D9064628210098FFF7C0FFDFF884
:10230000D4B08046C0F30A0510215846FEF7FFF806
:102310002846FFF7C0FE0098182101EB401909F08C
:10232000FF00FFF7ABFEDFF8B0A05046FEF7A8FDB8
:10233000A819B0F5006F0FD20025574609E000201C
:10234000FFF79CFE3846FEF79BFD6D1C04F8010B61
:10235000ADB2B542F3D330E0C5F50067002509E022
:102360000020FFF78BFE5046FEF78AFD6D1C04F837
:10237000010BADB2BD42F3D310215F465846FEF7C4
:10238000C4F810213846FEF7C2F80020FFF783FE9C
:1023900009F0FF00FFF772FE57465046FEF770FD4A
:1023A00009E00020FFF76AFE3846FEF769FD6D1C64
:1023B00004F8010BADB2B542F3D310215846FEF735
:1023C000A4F808EB060082B22821009806E00DE090
:1023D000001001400008014000300140FFF7CEFE30
:1023E000402201210098FFF7ADFE3046BDE8FC9F7A
:1023F0002DE9F05F0C46164683460021FFF71DFFCE
:10240000E74A0C215846FFF7D5FEE5480E384178DB
:10241000007801EB002082B210215846FFF7AEFE93
:1024200024215846FFF72BFFDFF878A38046C0F33E
:102430000A0510215046FEF76AF82846FFF72BFEE2
:10244000142000EB4B1909F0FF00FFF717FEA81945
:10245000B0F5006F0AD2002505E014F8010BFFF774
:102460000DFE6D1CADB2B542F7D324E0C5F5006793
:10247000002505E014F8010BFFF700FE6D1CADB25E
:10248000BD42F7D3102157465046FEF73EF81021C3
:102490003846FEF73CF80020FFF7FDFD09F0FF008D
:1024A000FFF7ECFD05E014F8010BFFF7E7FD6D1CED
:1024B000ADB2B542F7D310215046FEF726F808EB2F
:1024C000060082B224215846FFF758FE5846BDE860
:1024D000F05F2022012135E610B5B34C20212046C3
:1024E000FEF715F8322001F0F9FA20212046FEF718
:1024F0000CF8C82001F0F2FA2E20FFF780FEC0078A
:10250000FAD010BD10B5002480212046FFF7CCFD85
:102510000A2001F0E3FAA24904220C390120FFF756
:10252000F1FD9F49042208390520FFF7EBFD9C4986
:102530000622091D0920FFF7E5FD99490422091F1C
:102540000F20FFF7DFFD02221E212046FFF7FAFDD4
:1025500002221F212046FFF7F5FD641CE4B2082C7F
:10256000F1D34FF4FA611920FFF7B5FD0821BDE85A
:1025700010401B2098E538B589486A46001F01784D
:10258000491C8DF800104178491C8DF801108178A4
:10259000491C8DF80210C0780C21401C8DF80300F6
:1025A0000020FFF707FE002101220846FFF7CAFDC1
:1025B000012211460020FFF7C5FD052001F08EFA2B
:1025C00003210020FFF739FE132805D01022012136
:1025D0000020FFF7B7FD14E0042201210020FFF7DF
:1025E000B1FD02210020FFF728FE040004D00246BE
:1025F00002210020FFF7A6FD052001F06FFA200759
:1026000001D5002038BD06210020FFF716FEFF2867
:10261000E7D0102201210020FFF794FDFF2038BDF4
:1026200010B5044640F2B45212210020FFF7A6FD77
:10263000002C0BD85A48103841780078BDE810407B
:1026400001EB002082B20421002097E510BD10B5F7
:10265000044601220021FFF775FD012211462046A4
:10266000FFF770FD052001F039FA03212046FFF73E
:10267000E4FD132806D0102201212046FFF762FD59
:10268000002010BD042201212046FFF75BFDFF2042
:1026900010BD10B5044601220021FFF753FD0122B1
:1026A00011462046FFF74EFD052001F017FA0321E1
:1026B0002046FFF7C2FD13280DD10222012120463A
:1026C000FFF740FD052001F009FA03212046FFF73E
:1026D000B4FD142806D0102201212046FFF732FD58
:1026E000002010BDFF2010BD10B5044602220021BD
:1026F000FFF728FD012211462046FFF723FD0520A4
:1027000001F0ECF903212046FFF797FD222806D0BF
:10271000102201212046FFF715FD002010BDFF20EB
:1027200010BD70B51E4D0026123D1720FFF767FD46
:10273000C0072ED002210020FFF77FFD044602468D
:1027400002210020FFF7FEFCE00703D0287840F0CC
:1027500002002870A00708D5102201210020FFF7F1
:10276000F1FC0020FFF75CFF2E70E00603D56878CF
:1027700040F002006870600703D5687840F00100FF
:102780006870200705D5102201210020FFF7DAFC30
:102790002E701720FFF733FD0028C6D170BD000052
:1027A00033000020000801400010014010B5FFF781
:1027B000A9FEFFF7E0FEBDE810400020FFF730BFA4
:1027C00070B56548C023A821037041700A22827049
:1027D0000125C5706148FF240C2604704470847084
:1027E0000024C4705E48067029264670AB268670A9
:1027F0007C26C670047145715A48C7240370417025
:102800008270C47058481324047088244470574858
:102810000370417082708621C17055481721017084
:102820007021417053490220087070BD70B5524C40
:102830002078002811D14F4800250126007838B1B2
:10284000012828460CD0FFF74FFFFF280DD005E0E8
:102850000020FFF71EFF05E0267070BD257070BDDB
:10286000FFF7F5FEFF28F9D1F6E70320207070BDD1
:1028700070B504464149FFF730FD40493B4B0A78AB
:102880001A704A785A708A789A70CA78DA70384A18
:102890000B79137049795170A0F108023749154638
:1028A0000831374801F03CF9AAB22046BDE8704033
:1028B0003349FFF79DBD10B50446FFF7B7FFFFF79B
:1028C00030FF30480178CA0705D021F001010170BE
:1028D0000020FFF7CDFF0A210020207027488268E2
:1028E0002260C2686260008A2081084610BD10B56F
:1028F000FFF77AFBFFF764FBFFF762FFFFF7ECFDE2
:10290000BDE8104052E710B5FFF790FFFFF709FF51
:102910001C490878C20706D020F001000870BDE805
:1029200010400020A4E710BD134810B5007803281C
:1029300010D114481B22017821F00201017012A16C
:102940000F4801F0EDF81B22BDE810400C490020B3
:10295000FFF74EBD10BD0000270000202B00002017
:10296000370000202F00002023000020330000202B
:10297000250000202000002021000020C0050020AC
:10298000C00D0020220000200D0A57656C636F6D9A
:102990006520546F20436861756E67576569456CA3
:1029A0006563210D0A000000FEF7E1FF184C4FF4AB
:1029B00000554FF4FA7629462046FDF7A8FD00237E
:1029C00001221946184600F016FF29462046FDF759
:1029D0009CFD002301221946184600F00CFF00223E
:1029E00033461146104600F006FFE4E7FEF7BFFF4E
:1029F0000523084A0021AFF24F0000F0FBFBFFF770
:102A000072F9002301221946184600F0F4FEF6E799
:102A100000100140FC160020002204E0491C521C5A
:102A200000F8013BD2B20B78002BF7D100210170E6
:102A3000104670472DE9F0410E460546140006D0B9
:102A400045B14EB1FA48807840B1112010E0002025
:102A5000BDE8F08104200BE00C2009E02878012873
:102A600008D0022806D0032804D0042802D0012070
:102A70001070ECE700F060FF074605F10F013046EB
:102A8000FFF7CAFF0546384600F05AFF00202070C5
:102A90002846DDE70146002002E0491C401CC0B288
:102AA0000A78002AF9D170472DE9F0410E46054613
:102AB0001400CDD02DB136B1DD48807828B1122078
:102AC0000DE004200BE00C2009E02878012808D054
:102AD000022806D0032804D0042802D00120107058
:102AE000B6E700F029FF07463046FFF7D3FF0F286F
:102AF00004D9384600F024FF0B2008E0314605F1E8
:102B00000F00FFF789FF384600F01AFF0020207001
:102B10009EE77CB5C74D00246946204600F082FD43
:102B200058B955F8241041B1012906D0D1E9020263
:102B300000EB820088630198C863641CE4B21F2C18
:102B4000EAD97CBDBA4C02E0C82000F02FFE6078C4
:102B50000028F9D0642160690025B0FBF1F06061C4
:102B600018B92570FF2000F09CFD00F0E5FE216AF9
:102B70002562A16100F0E4FED4E90510B0FBF1F09C
:102B8000C0F16400207000F02EFFFFF7C2FF642048
:102B900000F00CFEE9E7A64C00F0CEFE216A491CCD
:102BA000216200F0CDFE00F01DFFF5E7002203E0FA
:102BB000491E00F8012B89B20029F9D1704770B580
:102BC00086B000F00BFF9A4B00245C639C70DC70B5
:102BD0001C72DC71DC601C629C615C615C709C71CD
:102BE00003F11C012046401CC0B201F8014B04282F
:102BF000F9D31C715C718F48DC624FF4B461803092
:102C00005C62FFF7D3FF80218A48FFF7CFFF894836
:102C10000022803000F150013F25416180F8405092
:102C200080F84140521C50305031D2B2112AF4D3B6
:102C3000446180F8405080F841407E481C638030F9
:102C400098624FF4A071A0F5B860FFF7AFFF7A4823
:102C5000002200F1200104704160C5730474521C0D
:102C60002030203192B2092AF5D304704460C57334
:102C7000047471481861802600F55070CDE9010692
:102C80006C4A03254FF6FF701F23121F002100908E
:102C9000AFF2FD00CDE9034500F0F9FA05AA67A1FE
:102CA0001F2000F03FFC6948CDE901064FF6FE7099
:102CB0001E23674A00210090AFF27710CDE903454B
:102CC00000F0E5FA05AA63A11E2000F02BFC06B077
:102CD000BDE8704000F083BE5549C879012804D191
:102CE0008878FF2801D2401C8870704770B5504C1E
:102CF000E079012822D100F01FFE0546A07820B11E
:102D0000401E10F0FF00A07013D1E07888B900F0E9
:102D1000D4F96079217988420BD0464951F82010C6
:102D2000E162C86A401CC862E068401CE06000F0D4
:102D30001FFE2846BDE8704000F002BE70BD10B511
:102D40003B4CE07901280CD100F0F6FDA17821B9C7
:102D5000E178FF2901D2491CE170BDE8104000F084
:102D6000EFBD10BD70B500F0E7FD314C0546A07811
:102D700098B9E07888B900F0A0F9607921798842A3
:102D80000BD02C4951F82010E162C86A401CC8627F
:102D9000E068401CE06000F0E6FD2846BDE87040B9
:102DA00000F0CEBD10B5224CE079012813D100F01F
:102DB000C3FDE17831B1491E11F0FF01E17001D18D
:102DC000A17819B1BDE8104000F0BABD00F0B8FD1F
:102DD000BDE81040C6E710BD10B5154CE0790028DD
:102DE0000CD100F06AF960791249207151F8200085
:102DF000E0626062BDE8104000F0A5BD10BD10B5F6
:102E0000022000F0D3FC00F097FD094C0021216264
:102E100000F096FD642000F0C9FC00F08DFD216AF1
:102E2000616101216170BDE8104000F089BD0000C2
:102E300040000020401C00200017002075432F4F49
:102E4000532D49492049646C65000000401800205A
:102E50003C1A002075432F4F532D4949205374616C
:102E6000740000002DE9F04100F0F9FD00F064FD70
:102E7000984D696B491C696300F062FDE87901288F
:102E80003ED1687A0126002720B1012838D00228D7
:102E900002D06F722C6B2FE06E72FBE700F04CFDDE
:102EA000218C31B3A1F101010904090C218420D145
:102EB00094F8221011F0370F06D021F0370184F872
:102EC000221084F8236001E084F8237094F8221023
:102ED00009070ED494F82810AA797E4B1143A971E2
:102EE00094F826101C3394F827C05A5C42EA0C026E
:102EF0005A54646900F024FD94F824001F28CDD1B1
:102F0000A6E54FF48F707047704710B590F82620F3
:102F100090F827408B18DA7AA243DA7204D18A7AC1
:102F200090F8280082438A7210BD70B50146847AF9
:102F300069484FF00006045D01EB0405ED7A405D41
:102F400000EBC400C5B2654850F8250020F8206F9A
:102F5000867826EA02068670C370A0F12000320748
:102F60000BD45C4A90F828309679334393711C3225
:102F700090F82760135D33431355FFF7C6FF2846CB
:102F800070BD30B5534C00F10B02616A41F81C0F63
:102F90008B7AC97A9D5C0D439D54616A827A263191
:102FA0008B781A438272087804F11C034D781A5CFE
:102FB0002639AA431A5404D191F82810A0798843DD
:102FC000A07130BD002282720B301146491CC9B27B
:102FD00000F8012B0429F9D3704705E011F8013BF3
:102FE000521E00F8013B92B2002AF7D170472DE93A
:102FF000F05F9846DDE90ABA91460D46064600F0B4
:103000009BFC344FBC6A002C53D00C34A168B962CD
:1030100000F096FC44F80C5C26760025A575E57555
:10302000A582C4F800B044E902A90C98A080A4F8D5
:103030000680F0086577A076012306F0070103FA01
:1030400000F26176227703FA01F2E27625612562C9
:10305000A5626562E5623F20256384F8340084F848
:1030600035500C3C204600F0F9FC204600F0B8FC3E
:1030700000F062FC0146194840F82640386BC4E96C
:10308000050500B184613C632634BA79A078104309
:10309000B871104A20781C326478135C23431354AF
:1030A000387A401C3872084600F04AFC0020BDE81F
:1030B000F09F00F045FC4220F9E70649064A01F17D
:1030C0001C038879105C1B5CD25C02EBC000487169
:1030D0007047000040000020EC3F0008401C00202A
:1030E0002DE9F05F0C4605461F2801D3FF2D01D1C5
:1030F0001F2C02D32A20BDE8F09F00F01DFCDFF852
:10310000FCC303465CF8240020B1184600F018FC0C
:103110002820F0E7FF2D03D1F948006890F82450EB
:103120005CF825201AB3012A26D0E108012000FA14
:1031300001F604F0070AF7B200FA0AF0C6B200205E
:103140004CF825004CF8242092F826C0DFF8B4E3B0
:1031500092F8275092F828901EF80C00284221D0AF
:10316000A843DFF8A4B30EF80C000AD00FE018460D
:1031700000F0E6FB2920BEE7184600F0E1FB432003
:10318000B9E79BF8000020EA09008BF800009BF8E3
:10319000000038438BF800001EF8018048EA06085A
:1031A0000EF80180D06998B100EB0C0898F80BC0BC
:1031B0003CEA050C88F80BC003D1857A25EA09059D
:1031C0008572857A3D4385720844C57A3543C57258
:1031D00002F8244F1846917082F801A01771D6703A
:1031E00000F0AEFBC9480078012801D1FFF7BAFD15
:1031F000002080E72DE9FE431C4616460F46804618
:103200001F2B02D92A20BDE8FE8300F095FBC049A0
:10321000097819B100F094FB3C20F4E7B74D55F85C
:10322000241019B100F08CFB2820ECE7012145F8AF
:10323000241000F085FB002332463946404600F05A
:10324000D3FB0026014600960196334632462046BF
:103250000296FFF7CCFE070007D000F06DFB45F8A3
:10326000246000F06DFB3846CDE7A84800780128BF
:10327000F9D1FFF777FDF6E7D30707D0920705D519
:103280000022002902D004C0491EFAE770472DE948
:10329000FF4F83B01C46DDE91386DDE911979246A6
:1032A0008B461F2B03D92A2007B0BDE8F08F00F012
:1032B00043FB9749097819B100F042FB3C20F3E742
:1032C0008E4D55F8241019B100F03AFB2820EBE799
:1032D000012145F8241000F033FB324639464846B8
:1032E000FFF7CAFF334652465946039800F07CFB6D
:1032F0000097CDE9018601464A462046109BFFF71C
:1033000076FE060008D000F017FB002145F82410D7
:1033100000F016FB3046C7E77C4800780128F9D159
:10332000FFF720FDF6E72DE9F047054678480078DD
:1033300010B14020BDE8F0871F2D04D005D3FF2D2C
:1033400003D02A20F6E73E20F4E700F0F5FA06461F
:10335000FF2D03D16A48006890F82450DFF89C9153
:1033600059F825405CB1012C0ED094F82610654A1E
:1033700094F82730505C984350540AD00FE0304600
:1033800000F0DEFA4320D5E7304600F0D9FA3D20C0
:10339000D0E75D4894F82820017891430170E169F5
:1033A00011B12046FFF7B1FD4FF00008A4F82080CE
:1033B000584F84F8228084F823803878FF2801D27F
:1033C000401C3870304600F0BBFAFFF79DFD00F05E
:1033D000B3FA0646387808B1401E3870204600F02F
:1033E00000FB4D490878401E087049F82580A06907
:1033F0004146A0B162694261D4E905028261474851
:103400000268626104603F2004F8400F304661703A
:1034100000F096FA3D480078012806D007E0606980
:103420003F4A816160691060E9E7FFF79BFC00207B
:1034300080E710B504461F2804D00FD3FF2803D01F
:103440002A2010BD3E2010BD00F076FA2C490968F4
:1034500091F8294000F074FA204610BD00F06CFA93
:10346000264951F8241041B101290AD03F2281F8A0
:10347000292000F065FA002010BD00F061FA432019
:1034800010BD00F05DFA3D2010BD2DE9F0410F4662
:10349000054614002FD01F2D03D9FF2D01D02A205F
:1034A00006E027B11A48007820B1112000E00C2076
:1034B000107020E000F040FA0646FF2D03D11048BE
:1034C000006890F824500D4850F82510432571B13C
:1034D00001290CD040313846FFF79EFA05463046A8
:1034E00000F02EFA002020702846BDE8F08130461A
:1034F00000F026FA25700020F7E70000401C0020AD
:10350000640000205C0000204600002047000020EE
:1035100042000020430000204800002068000020F6
:10352000700000202DE9F041884605461400DCD0EB
:103530001F2D03D9FF2D01D02A2006E0B8F1000F7E
:1035400005D09448007820B112201070CDE70C20EF
:10355000FBE700F0F1F90646FF2D03D18E48006825
:1035600090F824508D48432750F825505DB1012D27
:1035700009D04046FFF78EFA0F2809D9304600F0EF
:10358000DFF941200DE0304600F0DAF92770ACE7B2
:10359000414605F14000FFF73FFA304600F0D0F910
:1035A00000202070A1E710B504461F2801D32A206F
:1035B00010BD00F0C1F9794951F8241059B1012921
:1035C0000DD091F82220130728D532F0080281F897
:1035D000222008D009E000F0B3F9462010BD00F029
:1035E000AFF9432010BD0A8C1AB100F0A9F90020F0
:1035F00010BD6B4A26318B781478234313700A78F8
:10360000684B49789C5C0C439C5400F099F96648DF
:1036100000780128EBD1FFF7A5FBE8E700F090F96F
:10362000442010BD2DE9F0410E4604461F2803D961
:10363000FF2C01D02A2058E746B10020306070608E
:1036400000F07AF90146FF2C02D005E009204CE792
:103650005148006890F82440504850F8240058B170
:10366000012809D0027CD2070BD0D0E902570024F0
:10367000084600F065F90AE0084600F061F94320C9
:1036800033E7084600F05CF945202EE7641C01CDC5
:103690000028FBD0A0003060381B80007060002044
:1036A00023E770B504461F2804D005D3FF2C03D0B0
:1036B0002A2070BD472070BD00F03EF90146364813
:1036C000FF2C006805D090F82400A04204D1012509
:1036D00003E090F82440FAE70025304850F8240031
:1036E00058B101280ED090F826202E4C90F8276073
:1036F000A35CB343A3540AD00FE0084600F020F9BE
:10370000482070BD084600F01BF9432070BD244AD4
:1037100090F828401378A343137010F8222F42F03A
:1037200008020270084600F00BF9012D01D1FFF7E5
:1037300019FB002070BD70B50E4604461F2803D942
:10374000FF2C01D02A2070BD2EB100F0F5F80546FF
:10375000FF2C02D005E0092070BD0F48006890F8EA
:1037600024400E4850F8241051B101290DD05022A8
:103770003046FFF732FC284600F0E2F8002070BD2A
:10378000284600F0DDF8292070BD284600F0D8F862
:10379000432070BD4200002064000020401C002037
:1037A000460000205C0000204700002070B5044661
:1037B0005B48007800281DD1002C1BD000F0BCF81D
:1037C00003465848584D016891F8262091F8276023
:1037D000A85CB043A85405D1544891F82850027809
:1037E000AA4302700C84184600F0AAF8BDE87040A5
:1037F000FFF7B8BA70BD70B5494C24780CB15520AC
:1038000070BD00B919B13B2902D9512070BD1AB160
:103810003B2A02D9522070BD2BB14FF47A74A342D7
:1038200003D3532070BD542070BD4FF47A756B43A1
:10383000B3FBF4F34FF461646043C1EB011100EB9F
:103840008100104400EB4001C1EBC01003EBC0004D
:10385000040C80B2FFF7AAFF4FF4004507E02846AA
:10386000FFF7A4FF2846FFF7A1FF641EA4B2002CB7
:10387000F5D1002070BD10B504461F2801D32A20C1
:1038800010BD00F059F82A4951F8241091B10129CE
:1038900010D00A8C92B100230B8491F8222012F0F0
:1038A000370F0FD022F0370281F82220012281F851
:1038B000232009E000F044F8432010BD00F040F858
:1038C000502010BD81F8233091F82220120710D427
:1038D000164A26318B781478234313700A78124BDA
:1038E00049789C5C0C439C5400F02AF8FFF73AFAA4
:1038F00001E000F025F8002010BD10B500F01CF824
:103900000C490C6800F01CF8204610BD10B50446A8
:1039100000F012F807490C60BDE8104000F010B844
:1039200042000020640000205C00002046000020CF
:10393000401C002074000020EFF3108072B6704726
:1039400080F3108870471D484FF0FF010170002080
:1039500080F309881A48012101701A484FF08051FC
:10396000016062B6FEE717484FF080510160704772
:1039700014484FF080510160704772B6EFF3098030
:1039800028B1203880E8F00F0F490968086000B5B9
:103990000E4880475DF804EB0D480E490A78027026
:1039A00009480D490A680260106890E8F00F20305D
:1039B00080F309884EF0040E62B6704722ED00E0F5
:1039C0004700002004ED00E0640000205B3A00089E
:1039D00044000020450000206C0000207047704724
:1039E00070477047704770474FF080731360131F24
:1039F0001860A2F108006FF001030360001F4FF090
:103A000012330360001F4FF003330360001F4FF0B9
:103A100002330360001F5B100360001F0160001F82
:103A20004FF011310160001F19010160001F4FF0BC
:103A300009310160001FD9000160001F4FF00731FC
:103A40000160001F4FF006310160001F4FF005318B
:103A500001609900001F0160704770477047704710
:103A6000FFF76DB9FFF79EB980B2FFF79FBE10B5A3
:103A70006FF00400FDF7ADF826480921012201701E
:103A800042804FF0E02042F22831026942F0020207
:103A900002614161016941F00101016110BD2DE93F
:103AA000F0414FF0E02700247E691A49097800FBB5
:103AB00001F5FFF744F9B969B8698842FCD002D230
:103AC000A1EB000102E0A6EB000211440C44014608
:103AD000AC42F1D3BDE8F041FFF764B970B50446DC
:103AE0000D48007878B10D48007860B9094D6888B4
:103AF000844203D3B4FBF0F0FFF7B6FF6888B4FB51
:103B0000F0F100FB11444FF47A706043BDE870405F
:103B1000C5E7000078000020470000204200002098
:103B200040EA01039B0703D009E008C9121F08C03F
:103B3000042AFAD203E011F8013B00F8013B521EBF
:103B4000F9D27047D2B201E000F8012B491EFBD236
:103B500070470022F6E710B513460A460446194698
:103B6000FFF7F0FF204610BD30B5044600200346A5
:103B700000E05B1C934203D2E05CCD5C401BF8D0BC
:103B800030BD2DE9F05F0546002092469B468846F1
:103B90000646814640241BE02846414647462246C9
:103BA00000F041F853465A46C01A914110D31146CD
:103BB0001846224600F028F82D1A67EB01084F46F8
:103BC00022460120002100F01FF817EB00094E41AA
:103BD000201EA4F10104DFDC484631462A46434654
:103BE000BDE8F09F064C074D06E0E06840F0010399
:103BF00094E8070098471034AC42F6D3FCF79CFADF
:103C0000EC4000080C410008202A04DB203A00FAAE
:103C100002F1002070479140C2F1200320FA03F323
:103C2000194390407047202A04DB203A21FA02F021
:103C30000021704721FA02F3D040C2F120029140E6
:103C400008431946704700000FB4054B10B503A98F
:103C5000044A029800F018F810BC5DF814FB00004C
:103C6000090300087C00002002E008C8121F08C1F8
:103C7000002AFAD170477047002001E001C1121FED
:103C8000002AFBD1704700002DE9FF4F8DB09B4605
:103C90000F460446002638E1252801D00F9959E047
:103CA0000025641C9D49A84601222378203B02FA86
:103CB00003F0084202D00543641CF6E720782E2862
:103CC00017D114F8010F45F004052A280ED06FF023
:103CD0002F022078A0F1300109290AD808EB8801C9
:103CE00002EB410100EB0108641CF2E757F8048B7A
:103CF000641C20786C280DD004DC4C2812D06A2873
:103D000011D104E074280DD07A280CD10AE045F4D2
:103D1000001507E0617845F48015814202D1641CEA
:103D200005F58015641C2278692A46D008DC002A33
:103D300070D0582A69D0632A11D0642A08D13CE097
:103D4000702A69D0732A14D0752A5CD0782A5CD086
:103D50000F9910465A46904706F10106D4E017F82D
:103D6000040B8DF8000000208DF80100E9460120C9
:103D700003E057F8049B4FF0FF3069074FF0000550
:103D800001D40AE06D1C45450DDA8542FADB19F8CD
:103D900005100029F6D106E06D1C8542FCDB19F800
:103DA00005100029F8D12E4404E019F8010B5A46F9
:103DB0000F9990476D1EF8D2A6E00A200021CDE9A8
:103DC0000801C5F3025002280BD001CFC11700290A
:103DD0000EDA4FF0000CD0EB0C006CEB01012D2340
:103DE00009E007F1070727F00707F7E80201EEE708
:103DF0002B0504D52B238DF82830012330E0EB0769
:103E00002ED02023F7E70A2000E010200021CDE982
:103E1000080109E07DE0FFE71020002145F00405DE
:103E2000CDE908014FF00808C5F3025002281BD065
:103E300001CF00214FF0000A2B0712D5702A19D0AC
:103E4000DDE908C38CF0100C5CEA030C09D150EAE0
:103E5000010306D030238DF828308DF82920022365
:103E60009A46582A10D00AE0FF1D27F00707F7E806
:103E70000201DFE740228DF828204FF0010A28A236
:103E80000DF120090B9209E02AA2F9E7DDE90823E8
:103E9000FFF777FE0B9B9B5C09F8013D50EA01029E
:103EA000F4D1ADEB090000F120000890680701D4BF
:103EB0004FF001080899884502DDA8EB010000E0F9
:103EC00000208046002506E00AA85A46405D0F996A
:103ED0009047761C6D1C5545F6DB04E030205A46B1
:103EE0000F999047761CB8F10001A8F10108F5DCA4
:103EF00005E019F8010B5A460F999047761C08996E
:103F0000481E08900029F4DC641C207800287FF407
:103F1000C3AE11B03046BDE8F08F000009280100A3
:103F2000303132333435363738396162636465662F
:103F300000000000303132333435363738394142F1
:103F4000434445460000000000A24A045555550070
:103F50000000005555555555550000000155555563
:103F6000AAAAAA00000000AAAAAAAAAAAA00000057
:103F700001AAAAAAAAAAAA00010000AAAAAAAAAAF1
:103F8000AA00010001AAAAAAAAAAAA00020000AADD
:103F9000AAAAAAAAAA00020001AAAAAAAAAAAA00D0
:103FA000030000AAAAAAAAAAAA00030001AAAAAA10
:103FB000AAAAAA00040000AAAAAAAAAAAA000400FF
:103FC00001AAAAAAAAAAAA00040002AAAAAAAAAA9C
:103FD000AA00050000AAAAAAAAAAAA00050001AA86
:103FE000AAAAAAAAAA00050002AAAAAA0000010079
:103FF00002000100030001000200010004000100B2
:1040000002000100030001000200010005000100A0
:104010000200010003000100020001000400010091
:10402000020001000300010002000100060001007F
:104030000200010003000100020001000400010071
:104040000200010003000100020001000500010060
:104050000200010003000100020001000400010051
:10406000020001000300010002000100070001003E
:104070000200010003000100020001000400010031
:104080000200010003000100020001000500010020
:104090000200010003000100020001000400010011
:1040A00002000100030001000200010006000100FF
:1040B00002000100030001000200010004000100F1
:1040C00002000100030001000200010005000100E0
:1040D00002000100030001000200010004000100D1
:1040E0000200010003000100020001000C41000871
:1040F0000000002080000000683C00088C4100089F
:1041000080000020E0230000783C0008000002044A
:104110000608000000000102030401020304060770
:10412000080900000000000000000000030000007B
:10413000000000000000000000000000000000007F
:10414000000000000000000000000000000000006F
:10415000000000000000000000000000000000005F
:10416000000000000000000000000000000000004F
:10417000000000000000000000000000000000003F
:0C41800000000000000000000000000033
:0400000508000147A7
:00000001FF
