:020000040800F2
:1000000000040020470100089D0100089F0100082E
:10001000A1010008A3010008A501000800000000DC
:10002000000000000000000000000000A701000820
:10003000A9010008000000001F440008AD010008ED
:1000400067010008670100086701000867010008F0
:100050006701000867010008B51F00086701000874
:1000600067010008BF1F0008C51F000867010008DE
:1000700067010008670100086701000867010008C0
:1000800067010008670100086701000867010008B0
:1000900067010008670100086701000867010008A0
:1000A0006701000867010008670100086701000890
:1000B0005325000867010008670100086701000870
:1000C0006701000867010008670100086701000870
:1000D0006701000893020008670100086701000833
:1000E0006701000867010008670100086701000850
:1000F0006701000867010008670100086701000840
:10010000670100086701000867010008670100082F
:10011000670100086701000867010008670100081F
:10012000670100086701000867010008670100080F
:10013000DFF80CD004F08EFA004800477501000883
:1001400080240020704708488047084981F30888C8
:1001500007480047FEE7FEE7FEE7FEE7FEE7FEE7AB
:10016000FEE7FEE7FEE7FEE74501000880240020E9
:100170003101000810B501F0DDFD03F072FA04232F
:10018000044A0021044803F087FD03F077FB0020B8
:1001900010BD0000DC010020853400087047FEE738
:1001A000FEE7FEE7FEE770477047704710B503F0C3
:1001B000E5FA03F0A9FBBDE8104003F0E9BA00003E
:1001C00030B587B0012144F2040000F003FB4FF486
:1001D0000070ADF8100003248DF812401820654D12
:1001E0008DF8130004A9284600F027F92915ADF869
:1001F000101004218DF8131004A9284600F01DF9F1
:1002000025208DF814008DF815408DF8164001203A
:100210008DF8170005A800F09EFC4FF416500090D2
:100220000020ADF80400ADF80600ADF80800ADF808
:100230000C000C20504CADF80A006946204600F036
:100240004AFB012240F22551204600F0B1FB01217A
:10025000204600F0A3FB07B030BD10B5464C014668
:10026000204600F0F1FB8021204600F03AFC0028F7
:10027000F9D010BD70B5404D04462021284600F04D
:1002800030FC002804D0284600F0E2FB207001205A
:1002900070BD10B5384C40F22551204600F02BFCC3
:1002A000002808D0204600F0D3FB354A334B118894
:1002B0005854491C118010BD2DE9F0410024304DE7
:1002C0002E4E274609E0305DFFF7C7FF2888401E05
:1002D000A04200D12F80641CA4B228888442F2D3AB
:1002E000BDE8F0414FF48061244804F084B970B552
:1002F0000D460646002404E0305DFFF7AEFF641CA7
:10030000A4B2AC42F8D370BD10B50446C0B2FFF73A
:10031000A4FF204610BD10B5194C002122880AB157
:10032000164A05E0084610BD535C4354491C89B287
:1003300023889942F8D34FF48061104804F05BF9A8
:1003400020880021218010BD002903D0012901D17E
:1003500004F092B97047002210B5022311461046EE
:1003600003F09BFF002107A0FFF7EEFFBDE8104060
:10037000A2E700000008014000380140E001002031
:10038000000000204563686F0D0A0000884A10B520
:10039000811A1315D41490422ED00DDC85494018D3
:1003A0001CD0984221D0A0423BD10121102000F066
:1003B00023FA002110200DE0994224D0A14229D037
:1003C000B1F5406F2DD101210C02204600F014FA46
:1003D00000212046BDE8104000F00EBA01210420A3
:1003E00000F00AFA00210420F4E70121082000F0BF
:1003F00003FA00210820EDE70121202000F0FCF99C
:1004000000212020E6E70121402000F0F5F900213D
:100410004020DFE70121802000F0EEF9002180205C
:10042000D8E710BD10B50121084600F0E5F900211C
:10043000BDE81040012000F0DFB9F0B5CC78002213
:1004400004F00F03E40601D58C7823430C784FF0B9
:100450000F0C4FF0010EDCB105680E880EFA02F4A5
:100460002640A64210D196000CFA06F725EA0707A7
:1004700003FA06F5CE783D43282E02D0482E02D04E
:1004800002E0446100E00461521C082AE5D30560E3
:100490000A88FF2A1CD94468002202F108060EFAD5
:1004A00006F50E882E40AE420ED196000CFA06F7E5
:1004B000BC4303FA06F7CE783C43282E00D14561B1
:1004C000CE78482E00D10561521C082AE5D344603D
:1004D000F0BD4FF6FF710180022181700421C170CF
:1004E00070470246002092680A4200D001207047FF
:1004F000806880B2704702460020D2680A4200D06D
:1005000001207047C06880B2704701617047416147
:1005100070470AB10161704741617047C16070471F
:1005200041F48032826181618261816980697047B2
:10053000214B10B51A684FF68074224042EA001031
:100540000843186010BD1D49C8617047F0B51A4DC9
:100550006B68440D260184B2C0F30157B440C0F368
:100560000342032F05D0C0020AD5032090408343E5
:1005700007E0686823F0706220F07060686002E055
:10058000A34343F0706201B122436A60F0BD10B52D
:100590008A0721F003040849120F21440F238C68B5
:1005A00093409C438C608B68904003438B6010BDEC
:1005B0000014014000F8FEBF00000140000020428E
:1005C000A448016841F0010101604168A24A11405C
:1005D00041600168A14A11400160016821F4802155
:1005E0000160416821F4FE01416000218160704793
:1005F00098490A6822F480320A600A6822F480224C
:100600000A60B0F5803F07D0B0F5802F03D10868AD
:1006100040F4A02008607047086840F48030F9E793
:100620000346002059098B4A01290AD002290AD021
:10063000516A03F01F02012393400B4200D00120B6
:1006400070471168F5E7116AF3E718B500204FF419
:10065000A06400903120FFF7E3FF0099491C00914E
:1006600008B9A142F6D13120FFF7DAFF002800D007
:10067000012018BD774A116821F0F80141EAC00055
:1006800010607047764908607047724B5A6808439B
:1006900022F47C1210435860704771490866704715
:1006A0006C4A516821F00301014351607047694869
:1006B000406800F00C007047664A516821F0F00174
:1006C000014351607047634A516821F4E06101437E
:1006D000516070475F4A516821F4605141EAC0009F
:1006E000506070475B4A0029517A01D0014300E015
:1006F0008143517270475A49D83108607047554A52
:10070000516821F440410143516070475149002232
:1007100081F8202081F82020012802D0042802D16D
:10072000052081F8200070474E490860704749490C
:100730000A6A02430A6270474A49443908607047AE
:1007400030B5444A5168484B11F00C0103D00429DC
:1007500001D0082901D0036011E05168022301F49F
:10076000701103EB9141536813F4803F02D053683A
:100770009B0301D53D4B00E03B4B59430160516861
:100780000F2303EA11113A4B5C5C0168E1404160C0
:100790005468072505EA14241C5D21FA04F48460DA
:1007A000546805EAD4241B5DD940C1605268032314
:1007B00003EA92322E4B1B1F9A5CB1FBF2F10161EE
:1007C00030BD244A0029516901D0014300E0814332
:1007D000516170471F4A0029916901D0014300E02F
:1007E0008143916170471B4A0029D16901D00143BF
:1007F00000E08143D1617047164A0029D16801D0D9
:10080000014300E08143D1607047124A0029116919
:1008100001D0014300E08143116170471149403923
:10082000086070470E49C86470470A49C87170472C
:100830000848416A41F0807141627047054A0146AB
:10084000002092680A4200D0012070470149887256
:1008500070470000001002400000FFF8FFFFF6FEA6
:10086000000042428004424200127A0000093D002A
:1008700006000020B24A10B5811A131590421BD011
:1008800007DCB049401814D0984223D1012104025A
:1008900017E0994213D0B1F56C4F1BD101218C03A5
:1008A0002046FFF7A9FF2046BDE810400021FFF7D2
:1008B000A3BF01214C0404E00121CC0401E001218B
:1008C0000C052046FFF7A1FF2046BDE8104000219F
:1008D000FFF79BBF10BD30B50446008A85B00D46BA
:1008E0004CF6FF710840E98801432182A0894EF649
:1008F000F3110840A9882A8911436A8902431143E8
:10090000A181A08A4FF6FF410840A9890143A18235
:100910006846FFF715FF8C48844201D1039800E038
:100920000298642200EBC00101EB001029686FF00F
:1009300018058900B0FBF1F0B0FBF2F109010B09D9
:100940006B4300EB8300322303EB0010B0FBF2F0AB
:1009500000F00F000843208105B030BD4FF4165160
:10096000016000218180C18001810C22428181814E
:10097000704710B5028A4FF2FF031A400B884C886B
:1009800023438C88C9880C4323431343038210BD3F
:100990000021018041808180C180704700298189C8
:1009A00002D041F4005101E021F4005181817047EF
:1009B00010B5C1F3421301F01F040121A140012B26
:1009C00007D0022B07D01430002A026805D00A4352
:1009D00004E00C30F8E71030F6E78A43026010BDFF
:1009E000002A828A01D00A4300E08A43828270474B
:1009F000028A22F00F020282028A0A4302827047B0
:100A0000828922F40062828182890A43828170474E
:100A10000029818902D041F0020101E021F00201A8
:100A200081817047028A22F020020282028A0A43F0
:100A3000028270470029018A02D041F4804101E01E
:100A400021F4804101827047C1F308018180704721
:100A50008088C0F308007047818941F001018181DD
:100A60007047028BD2B20283028B42EA01210183DA
:100A70007047028B02F47F420283028B0A43028397
:100A800070470029818A02D041F0200101E021F065
:100A90002001818270470029818A02D041F0100133
:100AA00001E021F01001818270470029818A02D083
:100AB00041F0080101E021F0080181827047828A3B
:100AC00022F004028282828A0A43828270470029CD
:100AD000818A02D041F0020101E021F0020181820D
:100AE00070470246002012880A4200D00120704759
:100AF000C9430180704770B501F01F05012600242D
:100B0000C1F3421306FA05F2012B0FD0022B0FD0CE
:100B1000838A4FEA11210088134206FA01F600EA9F
:100B2000060001D000B10124204670BD8389F0E7A2
:100B3000038AEEE70A0A01219140C9430180704708
:100B4000004C004000BCFFBF00380140274908436B
:100B500027490860704770B50F23C27801780124D7
:100B60004FF0E025DAB1224A126802F4E062C2F5E1
:100B7000E062120AC2F10406D3404278B24086789D
:100B80001E401C4B16433201CA54007800F01F016E
:100B90008C40400905EB8000C0F8004170BD01F0B9
:100BA0001F008440480905EB8000C0F8804170BDFB
:100BB000114A114001430E48001F016070470C4A62
:100BC000121D0029116801D0014300E0814311602A
:100BD00070474FF0E0210428086903D020F004009A
:100BE0000861704740F00400FAE700000000FA05D1
:100BF0000CED00E000E400E080FFFF1F374900201B
:100C00000860091D0860091D0860091D0860334956
:100C1000334814310860704730B583792F4A016832
:100C200053B313688B431360111D0B680468A3430F
:100C30000B60017911440B68046823430B60274B58
:100C4000083319680468A14319601C1D21680568F0
:100C5000A94321604179102905D011440A68006830
:100C600002430A6030BD19680268114319602168A7
:100C700000680143216030BD0079104402688A4356
:100C8000026030BD0021016001710C22427181714E
:100C90007047124910310A6802430A6070470146E2
:100CA0000E4A0020143212680A4200D00120704718
:100CB0000A49143108607047084A0146002012684A
:100CC000064B0A4014331B680B4202D0002A00D0A6
:100CD0000120704701491431086070470004014049
:100CE000FFFF0700F34A116801F03801014311606A
:100CF0007047F0490A6822F008020A600A68024355
:100D00000A607047EB490A6822F010020A600A681C
:100D100002430A607047E748E7494160E74941609C
:100D20007047E448016941F0800101617047E14981
:100D30000420CA68D20701D001207047CA68520750
:100D400001D502207047C968C906FBD5032070474A
:100D500018B50346FFF7EBFFFF2407E00094009867
:100D6000401E0090FBD1FFF7E2FF5B1E012803D07D
:100D7000002B00D1052018BD002BEFD1FAE770B58C
:100D8000054640F6FF763046FFF7E2FF042813D110
:100D9000C84C206940F0020020616561206940F084
:100DA000400020613046FFF7D3FF012804D02169BD
:100DB00041F6FD721140216170BD30B540F6FF75FE
:100DC0002846FFF7C5FF042812D1BA4C206940F02D
:100DD00004002061206940F0400020612846FFF7B0
:100DE000B7FF012804D0216941F6FB72114021614F
:100DF00030BD30B540F6FF752846FFF7A9FF04283F
:100E000027D1AC4CAC48A060AC48A060206940F051
:100E100020002061206940F0400020612846FFF753
:100E200097FF41F6EF7504280ED1206941F6DF7176
:100E300008402061206940F010002061A049A520F1
:100E400008800F20FFF784FF012802D02169294084
:100E5000216130BDF0B506460D460F20FFF778FF43
:100E6000042816D1934C206940F0010020613580A0
:100E70000F20FFF76DFF41F6FE77042804D1280C00
:100E800070800F20FFF764FF012802D021693940EC
:100E90002161F0BD70B506460D460F20FFF758FFE3
:100EA00004280FD1834C206940F001002061358077
:100EB0000F20FFF74DFF012804D0216941F6FE7293
:100EC0001140216170BD70B506460D460F20FFF739
:100ED0003FFF042813D1774C7748A0607748A06083
:100EE000206940F01000206135800F20FFF730FFAF
:100EF000012804D0216941F6EF721140216170BDD3
:100F0000F0B5C043C7B2C0F30726C0F30745040ECF
:100F10000F20FFF71DFF04283CD1DFF898C1664978
:100F2000CCF808106549CCF80810DCF8101041F036
:100F30001001CCF81010FF2F07D06148083007804F
:100F40000F20FFF705FF04281BD1FF2E07D05C48B8
:100F50000A3006800F20FFF7FBFE042811D1FF2D79
:100F600007D057480C3005800F20FFF7F1FE04280A
:100F700007D1FF2C07D052480E3004800F20FFF716
:100F8000E7FE012806D0DCF8101041F6EF721140A0
:100F9000CCF81010F0BD70B5054640F6FF7630462F
:100FA000FFF7D6FE042818D1424C4348A0604348BE
:100FB000A060206940F020002061206940F04000DE
:100FC00020613046FFF7C4FE41F6DF71042805D0EA
:100FD000012802D022690A40226170BD20690840C0
:100FE0002061206940F01000206135480DB10021DA
:100FF00000E0A52101803046FFF7AAFE0128ECD0D1
:10100000216941F6EF721140216170BDF0B5294CA4
:101010000546294816460F46A0602848A0600F20C4
:10102000FFF796FE042814D1206940F010002061DB
:101030003D4323493543891C45F0F80008800F20C3
:10104000FFF786FE012804D0216941F6EF721140B6
:101050002161F0BD1748C069800870471548006AD3
:10106000704714490020C969890700D501207047DD
:10107000104900200968890600D5012070470D4AF3
:101080000029116901D0014300E0814311617047DB
:1010900001460020074A012903D0D2680A4203D141
:1010A0007047D169C907FBD0012070470149C8606A
:1010B000704700000020024023016745AB89EFCD57
:1010C00000F8FF1F9B4910B5401810D0B0F5806F95
:1010D00010D0B0F5784F18D101210C032046FFF74E
:1010E0008BFB2046BDE810400021FFF785BB0121A6
:1010F0008C0301E00121CC032046FFF786FB20464C
:10110000BDE810400021FFF780BB10BD30B502885C
:101110004C8802F441530A88CD8822438C882C43A2
:1011200022430C8922434C8922438C892243CC8957
:1011300022431A430280828B22F400628283098A4E
:10114000018230BDF0B505460C4602200021AA8B75
:1011500085B001264FF240031A40AA832884AF8B42
:101160002289022A20D0A08800B102266846FFF713
:10117000E7FAE088B0F5007F2CD020897101414367
:10118000009800EB80004000B0FBF1F0401D80B201
:101190000A21B0FBF1F000F00101401A4FF6FF7296
:1011A000C0F34F0002EA0121821EFE2A01D3022071
:1011B0000021E288084302432A84208861886289EA
:1011C0000843A18811430843384340F40060A883D2
:1011D00005B0F0BD0098218900EB800040000902B5
:1011E000D2E70021018041808180C180018141815D
:1011F0008181C181072101827047002101804180E6
:101200008180C180022202814181704700290188CA
:1012100002D041F0400101E021F04001018070471F
:101220000029818B02D041F4806101E021F48061CA
:1012300081837047090901238B40002A828899B273
:1012400001D00A4300E08A4382807047002A8288E6
:1012500001D00A4300E08A43828070478181704751
:1012600080897047A1F57E420188FF3A02D041F49F
:10127000807101E021F4807101807047002981882C
:1012800002D041F0040101E021F0040181807047A7
:10129000028822F40062028002880A4302807047BA
:1012A000018841F48051018070470029018802D0F3
:1012B00041F4005101E021F40051018070470129FF
:1012C00001D0008B7047808A7047008A7047B1F563
:1012D000804F018803D021F480410180704741F4A0
:1012E0008041FAE70246002012890A4200D001201C
:1012F0007047C9430181704730B501F00F030125E4
:10130000024605FA03F40020A3B2090905FA01F424
:101310009188A4B2128921401A4202D0002900D03B
:10132000012030BD01F00F0201219140C94301812C
:101330007047000000C8FFBFFA4A10B5811A1315A4
:10134000D41490423BD010DCB0F1804F22D0F6494B
:10135000401826D098422BD0A04241D1012108202C
:10136000FFF753FA0021082036E099422ED0B1F55C
:101370008E3F0DD0B1F5923F32D101214C03204672
:10138000FFF73AFA2046BDE810400021FFF734BAD3
:101390000121F4E701210846FFF737FA0021012077
:1013A0001AE001210220FFF730FA0021022013E0A9
:1013B00001210420FFF729FA002104200CE001217B
:1013C0001020FFF722FA0021102005E00121202043
:1013D000FFF71BFA00212020BDE81040FFF715BAE7
:1013E00010BD028802F08F020280CA884B881A431F
:1013F00003881A4302808A8882850A880285CB4A3C
:10140000904202D0CA4A904201D1097A0186012154
:101410008182704730B5028C22F001020284028C76
:101420008388048B22F0020224F070050C882C4380
:101430000D8915434A882A43CD888586BB4DA8422D
:1014400002D0BB4DA8420DD122F008054A8923F4F1
:1014500003432A4322F004058A882A438D891D43C9
:10146000CB892B4383800483028430BD70B5028C0A
:1014700022F010020284028C8388048B0D8824F4ED
:10148000E0464FF6FF7404EA052535430E8922F045
:10149000200204EA061616434A8804EA021232437E
:1014A000CE880687A14EB04202D0A14EB04215D1DF
:1014B00022F080064A8923F40C4304EA02123243E4
:1014C00022F040068A8804EA021232438E89C989D2
:1014D00004EA86061E4304EA8103334383800583BE
:1014E000028470BD70B5028C22F480720284028C7A
:1014F0008388848B0D8824F0700425430E894FF671
:10150000FF7422F4007204EA062616434A8804EAAD
:1015100002223243CE888687844EB04202D0844E67
:10152000B04215D122F400664A8923F4304304EA1C
:101530000222324322F480668A8804EA022232437D
:101540008E89C98904EA06161E4304EA011333434F
:1015500083808583028470BD70B5028C22F4805232
:101560000284058C8288838B0C8823F4E0464FF636
:10157000FF7303EA042434430E8925F4005503EA7B
:1015800006362E434D8803EA05353543CE88A0F84C
:101590004060664EB04202D0654EB04205D18989A6
:1015A000C2F30D0603EA81123243828084830584EC
:1015B00070BD828B22F440628283828B4FF6FF7370
:1015C00003EA01210A4382837047828B22F00C02D6
:1015D0008283828B0A4382837047028B22F44062AB
:1015E0000283028B4FF6FF7303EA01210A43028351
:1015F0007047F0B5048C24F010040484078B068C2B
:101600004FF6FF7404EA011527F4734704EA033127
:10161000394304EA02220A4326F02001294341F01B
:10162000100102830184F0BD028B22F00C020283C0
:10163000028B0A43028370472DE9F0410C460546B0
:1016400008884988A2882389F8B1042825D0082869
:10165000288C4FF6FF7628D020F480502884AF8B5A
:10166000288C06EA0131120227F4734642EA03325B
:10167000324320F40050084340F48050AA83288469
:10168000E1882846BDE8F04193E7284600F0CBFA10
:10169000E1882846BDE8F041C6E72846FFF7A9FFE4
:1016A000E1882846BDE8F04197E720F4807028845F
:1016B000AF8B288C06EA031327F0F30713433B4351
:1016C00006EA012120F40070084340F48070AB83E7
:1016D0002884E1882846BDE8F04176E72DE9F0410D
:1016E0000C46002649880746012501B90226A28832
:1016F000012A00D10225208823890028384619D0E4
:10170000FFF777FFE1883846FFF767FF23892A460E
:101710003146384600F087FAE1883846BDE8F041A6
:1017200082E700000010004000FCFFBF002C0140D9
:101730000034014000F077FAE1883846FFF774FF83
:1017400023892A4631463846FFF753FFE188384659
:10175000BDE8F04141E710B50A884B88CC881A43B0
:101760008B8823431A430B891A434B8989891A436F
:101770000A43A0F8442010BD4FF6FF71818000217C
:101780000180C18041800172704700210180418049
:101790008180C180018141818181C18170470021A7
:1017A0000180418001228280C18001817047002137
:1017B000018041808180C1800181418181817047A8
:1017C0000029018802D041F0010102E040F2FE321E
:1017D000114001807047002930F8441F02D041F4C5
:1017E000004101E0C1F30E0101807047002A8289A7
:1017F00001D00A4300E08A438281704781827047AA
:101800001143A0F848107047002A828901D00A438A
:1018100000E08A4382817047018921F0070101813C
:101820007047028922F070020A430281704700B5B6
:101830000346FFF7F6FF188940F00700188100BD46
:1018400070B516460D46602904464FF00102314638
:101850000AD000F0E8F929462046FFF7E2FF208988
:1018600040F00700208170BDFFF7C3FEF3E710B51D
:10187000048911434FF6FF7202EA0322E4B21143D6
:101880002143018110BD10B50446FFF7F0FF208908
:1018900040F07700208110BD10B50446FFF7E7FF48
:1018A000208940F48040208110BD018582827047EC
:1018B000028840F28F331A400A430280704770B5A5
:1018C0000589048B068C25F007050D434FF6FC4176
:1018D0000C4040F201110C434FF6FF7101EA031175
:1018E00026F022061143314305810483018470BD33
:1018F000028B22F070020A4302837047028B4FF67C
:10190000FF7322F4E04203EA01211143018370478F
:10191000828B22F070020A4382837047828B4FF6DB
:10192000FF7322F4E04203EA0121114381837047EF
:101930000029018802D041F0800102E040F27F32AC
:101940001140018070470029818802D041F00401D4
:1019500001E021F00401818070470029818802D0D4
:1019600041F0080101E021F0080181807047002961
:10197000818802D041F0010101E021F00101818064
:101980007047028B22F008020A4302837047028BE1
:101990004FF6FF7322F4006203EA01211143018331
:1019A0007047828B22F008020A4382837047828B41
:1019B0004FF6FF7322F4006203EA01211143818391
:1019C0007047028B22F004020A4302837047028BA5
:1019D0004FF6FF7322F4806203EA01211143018371
:1019E0007047828B22F004020A4382837047828B05
:1019F0004FF6FF7322F4806203EA012111438183D1
:101A00007047028B22F080020A4302837047028BE8
:101A10004FF6FF73C2F30E0203EA01211143018363
:101A20007047828B22F080020A4382837047828B48
:101A30004FF6FF73C2F30E0203EA012111438183C3
:101A40007047028C22F002020A4302847047028C23
:101A500022F008020A4302847047028C4FF6FF739B
:101A600022F0200203EA0111114301847047028C25
:101A70004FF6FF7322F0800203EA01111143018443
:101A80007047028C4FF6FF7322F4007203EA0121C3
:101A9000114301847047028C4FF6FF7322F40062F9
:101AA00003EA0121114301847047028C4FF6FF7352
:101AB00022F4005203EA013111430184704710B54A
:101AC000038C01248C40A3430384038C8A4013437A
:101AD000038410BD10B5038C04248C40A3430384FD
:101AE000038C8A401343038410BD10B5038C01247A
:101AF0008C40A343038491B1082910D0091FC1F37E
:101B00004E010844816948F6FF731940816181697B
:101B10004FF6FF7303EA02221143816110BD00EB0F
:101B2000510081694FF68F73194081618169F3E734
:101B30000029018802D041F0020102E040F2FD32AA
:101B40001140018070470029018802D041F0040152
:101B500002E040F2FB321140018070470029818889
:101B600002D041F0800101E021F0800181807047C6
:101B7000028840F2F7331A40028002880A4302804A
:101B80007047828822F07002828082880A438280B5
:101B90007047028922F00702028102890A4302810A
:101BA0007047028922F08002028102890A43028181
:101BB00070478184704781857047818670470187AF
:101BC000704781877047A0F8401070470288D2B2F2
:101BD000028002880A4302807047808E7047008F1F
:101BE0007047808F7047B0F840007047808C704716
:101BF000008D704702460020128A0A4200D0012060
:101C00007047C9430182704702460020138A9289B7
:101C10000B4202EA010202D0002A00D001207047E4
:101C2000C9430182704770B5048C24F00104048418
:101C3000058B048C4FF6FF7606EA0313134325F059
:101C4000F3052B4324F002020A4342F0010103830F
:101C5000018470BD0CB500223248009201920168E7
:101C600041F4803101604FF4A063016801F4003158
:101C700001910099491C0091019911B9009999426B
:101C8000F3D10168890333D50121019126490A68FE
:101C900042F010020A600A6822F003020A600A6831
:101CA00042F002020A604168416041684160416857
:101CB00041F480614160416821F47C1141604168D8
:101CC00041F4E8114160016841F0807101600168F0
:101CD0008901FCD5416821F003014160416841F070
:101CE000020141604168C1F381010229FAD10CBDB2
:101CF0000192FEE70B48016841F001010160416873
:101D00000A4A114041600168094A114001600168B6
:101D100021F480210160416821F4FE01416000212D
:101D2000816097E700100240002002400000FFF8A9
:101D3000FFFFF6FE10B5FFF7DDFF02F0EAFB00F053
:101D40003FF800F076F801211548FEF7CAFB154967
:101D50000128087005D001F09CFABDE8104001F0A0
:101D60009FB8FEF72DFABDE810400FA002F084BC2A
:101D700011484FF47A710068B0FBF1F0B0F1807F48
:101D80000CD220F07F414FF0E020491E41610B4A08
:101D9000F02111700021816107210161704700006D
:101DA000000C014016000020B4AEBFDAC5E4D6C373
:101DB00049500D0A000000007048000823ED00E0C3
:101DC000F8B501211020FEF705FD4FF4C040ADF835
:101DD00000001025454E8DF8035003248DF8024075
:101DE00069463046FEF729FB69023046FEF78DFB57
:101DF000A9023046FEF789FB01210820FEF7EAFC24
:101E0000E020ADF800008DF803508DF80240384C0A
:101E100069462046FEF711FB20212046FEF775FBA0
:101E200040212046FEF771FB80212046FEF76DFB26
:101E3000F8BD38B501210820FEF7CCFC0120ADF833
:101E4000000028208DF803000320294C8DF80200A3
:101E500069462046FEF7F1FA01212046FEF755FBC0
:101E600038BDF8B501210420FEF7B4FC0F20ADF811
:101E7000000010208DF803001E4D03248DF8024051
:101E800069462846FEF7D9FA194E01213046FEF779
:101E90003CFB02213046FEF738FB04213046FEF7BA
:101EA00034FB08213046FEF730FB01210420FEF709
:101EB00091FCF020ADF8000028208DF803008DF88B
:101EC000024069462846FEF7B8FA10213046FEF770
:101ED0001EFB20213046FEF71AFB40213046FEF75C
:101EE00016FB80213046FEF712FBF8BD00100140C2
:101EF000000C0140000801407FB501210420FEF7DD
:101F000069FC0124ADF80C4028208DF80F0003A9CE
:101F10002E48FEF792FA01210846FEF75BFC0321EA
:101F20000420FEF734FB00268DF808600C208DF8A5
:101F30000900082501958DF80A4001A8FEF76CFEFE
:101F400004210846FEF723FB1020019001A8FEF7AC
:101F500063FE00210846FEF71AFB01948DF8095034
:101F600001A8FEF759FE06208DF8000002258DF825
:101F7000015003208DF802008DF803406846FEF7FB
:101F8000EAFD09208DF800008DF801508DF802401F
:101F90008DF803406846FEF7DEFD0A208DF800004C
:101FA0008DF801508DF802608DF803406846FEF709
:101FB000D2FD7FBD064901200860FEF78BBE0820D8
:101FC000FEF788BE1020FEF785BE00000008014025
:101FD000180000203EB50024009401946846029445
:101FE00000F03EFFC5B20A2D7AD10A226946FE48AA
:101FF00002F00CFB38B1FC480A2269460A3002F0B4
:1020000005FB10B102E0012400E00224F6480A2298
:102010006946143002F0FAFA38B1F3480A226946E8
:102020001E3002F0F3FA10B102E0032400E00424B1
:10203000ED480A226946283002F0E8FA38B1EA4849
:102040000A226946323002F0E1FA10B102E00524BA
:1020500000E00624E4480A2269463C3002F0D6FA41
:1020600048B1E1480A226946463002F0CFFA20B171
:10207000022C07D002E0072400E008240020012CF5
:102080000ED000E001200021084303D02946684615
:1020900000F03DFF042C05D00020032C10D002E0FE
:1020A0000121F1E701200021084303D029466846B9
:1020B00000F02DFF062C05D00020052C11D002E0E9
:1020C0000121F1E701200021084303D02946684699
:1020D00000F01DFF082C06D00020072C0DD003E0D7
:1020E00009E00121F0E701200021084303D029463F
:1020F000684600F00CFF20463EBD0121F5E710B513
:10210000FFF768FFB94A4FF4804101281DD002282B
:102110000DD0B74A03280FD004280FD005280FD0C0
:1021200006280FD007280FD0082813D18021BDE83A
:1021300010401046FEF7E9B9202106E02021F6E71D
:10214000402102E04021F2E78021BDE81040104626
:10215000FEF7DDB910BD3EB5002000900190029061
:10216000FF246846FEF7D7F89F480A226946503098
:1021700002F04CFA00B900249B480A2269465A3002
:1021800002F044FA00B9012497480A2269466430F3
:1021900002F03CFA00B9102493480A2269466E30D6
:1021A00002F034FA00B911248F480A2269467830C7
:1021B00002F02CFA00B920248B480A2269468230AA
:1021C00002F024FA00B9212487480A2269468C309B
:1021D00002F01CFA00B9302483480A22694696307E
:1021E00002F014FA00B931247F480A226946A0306F
:1021F00002F00CFA00B940247B480A226946AA3052
:1022000002F004FA00B9412477480A226946B43042
:1022100002F0FCF900B9422473480A226946BE3034
:1022200002F0F4F900B950246F480A226946C83018
:1022300002F0ECF900B951246B480A226946D23009
:1022400002F0E4F900B9522420463EBDF8B5002062
:10225000684F009010213846FEF743F906462021CA
:102260003846FEF73EF9054640213846FEF739F973
:10227000044680213846FEF734F98DF800608DF869
:1022800001508DF802408DF8030004216846FEF7E6
:102290002EF8F8BD10B5FFF75EFF564A312840D042
:1022A00014DC112832D009DC60B301282CD01028AE
:1022B00054D102211046FEF72AF92BE020282CD019
:1022C00021282CD0302849D10821F3E7502837D0D5
:1022D0000CDC402827D041282BD042283ED10121B8
:1022E00014461046FEF711F9022109E051282DD0BD
:1022F000522833D1042114461046FEF706F908216E
:10230000204605E00121D5E7012100E00221104629
:10231000FEF7FBF8BDE8104098E70421CAE7042166
:10232000F5E70821F3E7012114461046FEF7EFF820
:10233000DAE7012114461046FEF7E7F802210BE028
:10234000042114461046FEF7E2F8D8E704211446AB
:102350001046FEF7DAF808212046ACE710BD38B584
:10236000002000906846FDF7D6FF04283BD19DF879
:102370000010204C19B901212046FEF7C6F89DF83F
:102380000010012902D12046FEF7C1F89DF8011086
:1023900019B902212046FEF7B8F89DF8010001287E
:1023A00003D102212046FEF7B2F89DF8020018B9C9
:1023B00004212046FEF7A9F89DF80200012803D168
:1023C00004212046FEF7A3F89DF8030018B9082160
:1023D0002046FEF79AF89DF80300012803D1082152
:1023E0002046FEF794F838BD7448000800100140FC
:1023F000000C0140000801402DE9F0412F4C102154
:102400002046FEF76EF8064620212046FEF769F8C2
:10241000074640212046FEF764F805468021204605
:10242000FEF75FF80446012E01D026B110E07FB917
:102430000A21234804E0012F0AD121480A210A3049
:10244000FDF755FF002301221946184601F025FF2C
:102450003E430AD11A480A211430FDF748FF0023F1
:1024600001221946184601F018FFFFF778FF012DE9
:1024700001D02DB111E084B911480A211E3004E0C9
:10248000012C0AD10E480A212830FDF730FF002325
:1024900001221946184601F000FF25430AD10848D9
:1024A0000A213230FDF723FF002301221946184686
:1024B00001F0F3FEBDE8F04151E79DE7000801405F
:1024C0001449000808B54FF4E060FEF73FFB1C20FC
:1024D0008DF8000000208DF8010003208DF8020027
:1024E00001208DF803006846FEF735FB08BD3EB5B8
:1024F00001210846FEF777F94FF080442046FEF7A9
:102500001BFF4FF47A71ADF804104721ADF80010AD
:102510000021ADF8021069462046FEF762FF012156
:102520002046FFF76EFB012211462046FFF75EF9B9
:1025300001212046FFF744F900210120FEF753F95D
:1025400001210846FEF74FF901212046FFF738F92F
:102550003EBD10B501218C072046FFF755FB002832
:1025600007D001212046FFF75BFB02480168491CA8
:10257000016010BD1C00002038B52020ADF800001F
:1025800001208DF802001020FF4C8DF803006946F1
:102590002046FDF752FF20212046FDF7B6FF38BD4B
:1025A00030B587B0012141F20500FEF713F9E020B4
:1025B000ADF8140003248DF816401820F34D8DF863
:1025C000170005A92846FDF738FFE0212846FDF74A
:1025D0009CFF1021ADF814108DF816408DF81710DF
:1025E00005A92846FDF729FF10212846FDF78DFF94
:1025F0000020ADF80000ADF808004FF48271ADF88E
:102600000400ADF80C00ADF80210ADF80600ADF80E
:102610000E0069150720DE4CADF80A10ADF8100069
:1026200069462046FEF772FD01212046FEF7EEFDC9
:1026300007B030BD10B5D64C01462046FEF70EFE61
:1026400002212046FEF74EFE0028F9D010BD10B53D
:102650000446000AFFF7EEFFE0B2BDE81040E9E7EC
:1026600070B5CA4C0E46054610212046FDF74FFFB7
:102670002846FFF7ECFF0520FFF7DCFF3046FFF7A9
:10268000D9FF2046BDE870401021FDF73EBF70B570
:10269000BE4C0E46054610212046FDF738FF284661
:1026A000FFF7D5FF0620FFF7C5FF3046FFF7CFFF46
:1026B0002046BDE870401021FDF727BF2DE9F0410D
:1026C000B24F0D460446164610213846FDF71FFF4F
:1026D0002046FFF7BCFF0420FFF7ACFF002405E015
:1026E00015F8010BFFF7A6FF641CA4B2B442F7D3A0
:1026F0003846BDE8F0411021FDF707BF2DE9F04154
:10270000A24D0F460446164610212846FDF7FFFE4F
:102710003846FFF79CFF0D2000EB4410C0B2FFF7D6
:1027200089FF3046FFF786FF2846BDE8F0411021BB
:10273000FDF7EBBE2DE9F041944D0F4604461646D9
:1027400010212846FDF7E3FE3846FFF780FF0E20F4
:1027500000EB4410C0B2FFF76DFF3046FFF777FF84
:102760002846BDE8F0411021FDF7CFBE2DE9F0412C
:10277000864D0F460646144610212846FDF7C7FE33
:102780003846FFF764FF0F2000EB4610C0B2FFF79A
:1027900051FF2078FFF74EFF6078FFF74BFFA078DE
:1027A000FFF748FFE078FFF745FF2846BDE8F04116
:1027B0001021FDF7AABE70B5744D044610212846BD
:1027C000FDF7A5FE2046FFF742FF0120FFF732FF8D
:1027D0006F4C2046FEF744FD0020FFF72BFF2046FC
:1027E000FEF73EFDC4B210212846FDF78EFE2046BE
:1027F00070BD70B5654D0E46044610212846FDF7A4
:1028000086FE3046FFF723FF092000EB4410C0B2DC
:10281000FFF710FF5E4C2046FEF722FD0020FFF779
:1028200009FF2046FEF71CFDC4B210212846FDF723
:102830006CFE204670BD70B5544D0E460446102106
:102840002846FDF764FE3046FFF701FF0A2000EB43
:102850004410C0B2FFF7EEFE4D4E3046FEF700FDCD
:102860000020FFF7E7FE3046FEF7FAFC04460020A2
:10287000FFF7E0FE4FF6FF7000EA04243046FEF753
:10288000EFFC204484B210212846FDF73EFE20468E
:1028900070BD2DE9F35F0C4626210098FFF7CBFFB2
:1028A00006007FD040F2B450864200D90646282167
:1028B0000098FFF7C0FFDFF8D4B08046C0F30A05E8
:1028C00010215846FDF723FE2846FFF7C0FE00986A
:1028D000182101EB401909F0FF00FFF7ABFEDFF80C
:1028E000B0A05046FEF7BCFCA819B0F5006F0FD29F
:1028F0000025574609E00020FFF79CFE3846FEF70A
:10290000AFFC6D1C04F8010BADB2B542F3D330E05F
:10291000C5F50067002509E00020FFF78BFE504653
:10292000FEF79EFC6D1C04F8010BADB2BD42F3D363
:1029300010215F465846FDF7E8FD10213846FDF7A7
:10294000E6FD0020FFF783FE09F0FF00FFF772FEAF
:1029500057465046FEF784FC09E00020FFF76AFE68
:102960003846FEF77DFC6D1C04F8010BADB2B54294
:10297000F3D310215846FDF7C8FD08EB060082B2DC
:102980002821009806E00DE00010014000080140F9
:1029900000300140FFF7CEFE402201210098FFF7F2
:1029A000ADFE3046BDE8FC9F2DE9F05F0C461646B3
:1029B00083460021FFF71DFFE74A0C215846FFF729
:1029C000D5FEE5480E384178007801EB002082B250
:1029D00010215846FFF7AEFE24215846FFF72BFF83
:1029E000DFF878A38046C0F30A0510215046FDF7B2
:1029F0008EFD2846FFF72BFE142000EB4B1909F043
:102A0000FF00FFF717FEA819B0F5006F0AD20025E6
:102A100005E014F8010BFFF70DFE6D1CADB2B542D9
:102A2000F7D324E0C5F50067002505E014F8010B95
:102A3000FFF700FE6D1CADB2BD42F7D31021574623
:102A40005046FDF762FD10213846FDF760FD00207D
:102A5000FFF7FDFD09F0FF00FFF7ECFD05E014F8BE
:102A6000010BFFF7E7FD6D1CADB2B542F7D31021A6
:102A70005046FDF74AFD08EB060082B22421584675
:102A8000FFF758FE5846BDE8F05F2022012135E6E9
:102A900010B5B34C20212046FDF739FD322001F05E
:102AA0006FFD20212046FDF730FDC82001F068FDB4
:102AB0002E20FFF780FEC007FAD010BD10B500240D
:102AC00080212046FFF7CCFD0A2001F059FDA249E4
:102AD00004220C390120FFF7F1FD9F490422083937
:102AE0000520FFF7EBFD9C490622091D0920FFF791
:102AF000E5FD99490422091F0F20FFF7DFFD02229F
:102B00001E212046FFF7FAFD02221F212046FFF773
:102B1000F5FD641CE4B2082CF1D34FF4FA611920DE
:102B2000FFF7B5FD0821BDE810401B2098E538B53A
:102B300089486A46001F0178491C8DF800104178C9
:102B4000491C8DF801108178491C8DF80210C0785D
:102B50000C21401C8DF803000020FFF707FE002128
:102B600001220846FFF7CAFD012211460020FFF7A7
:102B7000C5FD052001F004FD03210020FFF739FE0B
:102B8000132805D0102201210020FFF7B7FD14E023
:102B9000042201210020FFF7B1FD02210020FFF7F0
:102BA00028FE040004D0024602210020FFF7A6FD03
:102BB000052001F0E5FC200701D5002038BD0621E5
:102BC0000020FFF716FEFF28E7D010220121002089
:102BD000FFF794FDFF2038BD10B5044640F2B45213
:102BE00012210020FFF7A6FD002C0BD85A48103800
:102BF00041780078BDE8104001EB002082B204214A
:102C0000002097E510BD10B5044601220021FFF712
:102C100075FD012211462046FFF770FD052001F0E9
:102C2000AFFC03212046FFF7E4FD132806D0102255
:102C300001212046FFF762FD002010BD0422012182
:102C40002046FFF75BFDFF2010BD10B504460122B2
:102C50000021FFF753FD012211462046FFF74EFDEC
:102C6000052001F08DFC03212046FFF7C2FD13284B
:102C70000DD1022201212046FFF740FD052001F081
:102C80007FFC03212046FFF7B4FD142806D0102254
:102C900001212046FFF732FD002010BDFF2010BDAE
:102CA00010B5044602220021FFF728FD012211463B
:102CB0002046FFF723FD052001F062FC032120469A
:102CC000FFF797FD222806D0102201212046FFF7AA
:102CD00015FD002010BDFF2010BD70B51E4D002653
:102CE000123D1720FFF767FDC0072ED002210020FC
:102CF000FFF77FFD0446024602210020FFF7FEFC9D
:102D0000E00703D0287840F002002870A00708D51B
:102D1000102201210020FFF7F1FC0020FFF75CFFEB
:102D20002E70E00603D5687840F0020068706007F6
:102D300003D5687840F001006870200705D510229F
:102D400001210020FFF7DAFC2E701720FFF733FD7A
:102D50000028C6D170BD00003300002000080140EB
:102D60000010014010B5FFF7A9FEFFF7E0FEBDE837
:102D700010400020FFF730BF7048714902780A7098
:102D800042784A7082788A70C078C8706D486E49FF
:102D900002780A7042784A7082788A70C078C87067
:102DA0006A480C21017029214170AB2181707C217E
:102DB000C1700021017101214171654865490278A6
:102DC0000A7042784A7082788A70C078C870624807
:102DD00013210170882141706049022008707047FA
:102DE00070B55F4C2078002811D15C480025012681
:102DF000007838B1012828460CD0FFF751FFFF2892
:102E00000DD005E00020FFF720FF05E0267070BD23
:102E1000257070BDFFF7F7FEFF28F9D1F6E7032014
:102E2000207070BD10B54F49FFF733FD4D494E4B33
:102E30000A781A704A785A708A789A70CA78DA7062
:102E40004A4A0B79137049795170A0F1080245493B
:102E500014460831464801F0B5FB4648046010BDF1
:102E600070B50446FFF7BCFFFFF737FF4248017813
:102E7000CA0705D021F0010101700020FFF7D2FF41
:102E80000020207037480A2581682160C168616090
:102E9000008A20811221334801F0ADFB284670BD25
:102EA00010B5FFF77DFBFFF767FBFFF765FFFFF747
:102EB000EFFDBDE8104055E710B5FFF791FFFFF7B4
:102EC0000CFF2D490878C20706D020F001000870D9
:102ED000BDE810400020A5E710BD214810B50078DE
:102EE000032813D12448234C017821F002010170FA
:102EF0001C491F480831226801F064FB2088BDE8A6
:102F0000104082B21A490020FFF74EBD10BD70B5C7
:102F10000C460546FFF7D0FF1148007803280BD177
:102F20001549A2B2087820F0020008702946BDE8D1
:102F300070400020FFF738BD70BD00005800002031
:102F4000270000205C0000202B000020370000201C
:102F5000540000202F00002023000020200000202B
:102F600021000020E0050020330000202500002083
:102F7000E00D0020400000202200002010B5034694
:102F8000FE4C0020234403E013F8014B0C54401C7A
:102F90009042F9DB10BD2DE9F843044604201E469B
:102FA000174688468DF8000072B6FDF7B4FE35204E
:102FB000FEF77CF8F14D2846FDF7E1FE8DF80000A4
:102FC0009DF80000042814D141466019FDF742FF26
:102FD0008DF80000281D39462044FDF73BFF8DF891
:102FE0000000E648314608302044FDF733FF8DF8F5
:102FF0000000FDF796FE62B6BDE8F883F8B581796A
:10300000027A303901EBC10303EB011102EB8102BB
:10301000C179DB4E01EB810106EB41011144827A5B
:10302000037B303A02EBC20404EB021203EB82038F
:10303000C27A047C02EB820206EB42021A44837BD2
:103040000025303B03EBC30707EB031304EB8304BA
:10305000C37B077D03EB830306EB43032344847C9C
:10306000C07C303C04EBC40C0CEB041400EB80007F
:10307000C9B207EB840406EB400061F30705D2B246
:10308000204462F30F25DBB263F31745C0B2BD4C99
:1030900060F31F6560F31F6565600090BAA001F0E2
:1030A000EBFAF8BDF8B58179027A303901EBC1034A
:1030B00003EB011102EB8102C179B14E01EB8101F9
:1030C00006EB41011144827A037B303A02EBC204E1
:1030D00004EB021203EB8203C27A047C02EB82024D
:1030E00006EB42021A44837B0025303B03EBC30707
:1030F00007EB031304EB8304C37B077D03EB83031C
:1031000006EB43032344847CC07C303C04EBC40CBA
:103110000CEB041400EB8000C9B207EB840406EB4F
:10312000400061F30705D2B2204462F30F25DBB201
:1031300063F31745C0B2934C60F31F6560F31F65DE
:10314000A560009090A001F097FAF8BDF8B58179DC
:10315000027A303901EBC10303EB011102EB81026A
:10316000C179874E01EB810106EB41011144827A5E
:10317000037B303A02EBC20404EB021203EB82033E
:10318000C27A047C02EB820206EB42021A44837B81
:103190000025303B03EBC30707EB031304EB830469
:1031A000C37B077D03EB830306EB43032344847C4B
:1031B000C07C303C04EBC40C0CEB041400EB80002E
:1031C000C9B207EB840406EB400061F30705D2B2F5
:1031D000204462F30F25DBB263F31745C0B2694C9C
:1031E00060F31F6560F31F65E560009066A001F065
:1031F00043FAF8BD1CB5002001906248001D0EC8BE
:103200000020FFF7C8FE002264231146104601F09B
:1032100044F8042201A90020FFF7B0FE9DF8070042
:1032200000909DF806309DF805209DF804105AA0E6
:1032300001F022FA002264231146104601F02DF815
:10324000042201A91046FFF799FE9DF8070000909F
:103250009DF806309DF805209DF8041054A001F05B
:103260000BFA002264231146104601F016F80422DE
:1032700001A90820FFF782FE9DF8070000909DF845
:1032800006309DF805209DF804104EA001F0F4F9D9
:103290001CBD08B50020042269460090FFF76EFEB1
:1032A00038489DF800101030042201709DF801107C
:1032B00041709DF8021081709DF80310C17069463D
:1032C0001046FFF75BFE2F489DF8001014300422D3
:1032D00001709DF8011041709DF8021081709DF8F9
:1032E0000310C17069460820FFF748FE25489DF885
:1032F0000010183001709DF8011041709DF8021007
:1033000081709DF80310C17008BD10B5A6B01421DE
:1033100020A801F070F98021684601F06CF9684638
:10332000FCF7F9FF174C10F0FF0F07D0207828B9F1
:1033300003226946294801F069F918B1207801286B
:1033400005D06DE026A001F097F9012020702348F8
:1033500006226946001D01F059F910B96846FFF7C9
:10336000A1FE1E48062269460B3001F04FF910B944
:103370006846FFF743FE062269463BE0006000080E
:10338000F0FDFFFF4400002025642E25642E2564F7
:103390002E25640D0A0000004950B5D8D6B7A3BA4F
:1033A00025642E25642E25642E25640D0A00000058
:1033B000CDF8B9D8A3BA25642E25642E25642E2510
:1033C000640D0A00D7D3CDF8D1DAC2EBA3BA2564D5
:1033D0002E25642E25642E25640D0A005049000810
:1033E000BDF8C8EBC5E4D6C3C4A3CABDA3BA0D0AD1
:1033F000000000000E4801F009F910B96846FFF717
:10340000A5FE0B4806226946C01D01F0FFF80848DA
:10341000062269460E3001F0F9F808B9FFF7EAFE16
:10342000002264231146104600F037FF26B010BD7D
:1034300062490008FEF79CFC1D4E1E4F4FF40055DC
:103440004FF4FA7429463046FDF761F8002223460E
:103450001146104600F021FF29463046FDF755F889
:10346000002223461146104600F017FF3878012845
:1034700001D1FFF74AFF002223461146104600F013
:103480000CFFDFE7FEF774FC05230B4A0021AFF2C7
:103490005B0000F001FC074C00230122194618468E
:1034A00000F0FBFE20780028F6D1FEF728FEF3E7B7
:1034B00000100140160000201C170020002204E02C
:1034C000491C521C00F8013BD2B20B78002BF7D1FB
:1034D00000210170104670472DE9F0410E46054667
:1034E000140006D045B14EB1FA48807840B11120A1
:1034F00010E00020BDE8F08104200BE00C2009E082
:103500002878012808D0022806D0032804D00428EF
:1035100002D001201070ECE700F060FF074605F1D3
:103520000F013046FFF7CAFF0546384600F05AFF44
:10353000002020702846DDE70146002002E0491CFB
:10354000401CC0B20A78002AF9D170472DE9F04139
:103550000E4605461400CDD02DB136B1DD48807839
:1035600028B112200DE004200BE00C2009E028789F
:10357000012808D0022806D0032804D0042802D04D
:1035800001201070B6E700F029FF07463046FFF72C
:10359000D3FF0F2804D9384600F024FF0B2008E0A1
:1035A000314605F10F00FFF789FF384600F01AFF9A
:1035B000002020709EE77CB5C74D00246946204658
:1035C00000F082FD58B955F8241041B1012906D008
:1035D000D1E9020200EB820088630198C863641C91
:1035E000E4B21F2CEAD97CBDBA4C02E0C82000F03E
:1035F0002FFE60780028F9D0642160690025B0FBB7
:10360000F1F0606118B92570FF2000F09CFD00F01A
:10361000E5FE216A2562A16100F0E4FED4E905100F
:10362000B0FBF1F0C0F16400207000F02EFFFFF756
:10363000C2FF642000F00CFEE9E7A64C00F0CEFECD
:10364000216A491C216200F0CDFE00F01DFFF5E764
:10365000002203E0491E00F8012B89B20029F9D1AC
:10366000704770B586B000F00BFF9A4B00245C6386
:103670009C70DC701C72DC71DC601C629C615C61A3
:103680005C709C7103F11C012046401CC0B201F823
:10369000014B0428F9D31C715C718F48DC624FF434
:1036A000B46180305C62FFF7D3FF80218A48FFF766
:1036B000CFFF89480022803000F150013F25416151
:1036C00080F8405080F84140521C50305031D2B206
:1036D000112AF4D3446180F8405080F841407E487C
:1036E0001C63803098624FF4A071A0F5B860FFF7BA
:1036F000AFFF7A48002200F1200104704160C573D9
:103700000474521C2030203192B2092AF5D304707F
:103710004460C573047471481861802600F55070C8
:10372000CDE901066C4A03254FF6FF701F23121FD7
:1037300000210090AFF2FD00CDE9034500F0F9FA59
:1037400005AA67A11F2000F03FFC6948CDE90106EA
:103750004FF6FE701E23674A00210090AFF27710EB
:10376000CDE9034500F0E5FA05AA63A11E2000F0AB
:103770002BFC06B0BDE8704000F083BE5549C87907
:10378000012804D18878FF2801D2401C8870704736
:1037900070B5504CE079012822D100F01FFE05469B
:1037A000A07820B1401E10F0FF00A07013D1E07887
:1037B00088B900F0D4F96079217988420BD0464964
:1037C00051F82010E162C86A401CC862E068401CE1
:1037D000E06000F01FFE2846BDE8704000F002BE29
:1037E00070BD10B53B4CE07901280CD100F0F6FD1E
:1037F000A17821B9E178FF2901D2491CE170BDE827
:10380000104000F0EFBD10BD70B500F0E7FD314C89
:103810000546A07898B9E07888B900F0A0F96079F9
:10382000217988420BD02C4951F82010E162C86AF6
:10383000401CC862E068401CE06000F0E6FD2846DD
:10384000BDE8704000F0CEBD10B5224CE0790128F3
:1038500013D100F0C3FDE17831B1491E11F0FF0131
:10386000E17001D1A17819B1BDE8104000F0BABDF6
:1038700000F0B8FDBDE81040C6E710BD10B5154C0E
:10388000E07900280CD100F06AF9607912492071C2
:1038900051F82000E0626062BDE8104000F0A5BD74
:1038A00010BD10B5022000F0D3FC00F097FD094CCC
:1038B0000021216200F096FD642000F0C9FC00F0B8
:1038C0008DFD216A616101216170BDE8104000F049
:1038D00089BD000060000020601C0020201700202F
:1038E00075432F4F532D49492049646C65000000F2
:1038F000601800205C1A002075432F4F532D494952
:1039000020537461740000002DE9F04100F0F9FDCE
:1039100000F064FD984D696B491C696300F062FD1D
:10392000E87901283ED1687A0126002720B10128D4
:1039300038D0022802D06F722C6B2FE06E72FBE73A
:1039400000F04CFD218C31B3A1F101010904090CF7
:10395000218420D194F8221011F0370F06D021F0E5
:10396000370184F8221084F8236001E084F8237082
:1039700094F8221009070ED494F82810AA797E4BE7
:103980001143A97194F826101C3394F827C05A5C8F
:1039900042EA0C025A54646900F024FD94F82400B1
:1039A0001F28CDD1A6E54FF48F707047704710B532
:1039B00090F8262090F827408B18DA7AA243DA7222
:1039C00004D18A7A90F8280082438A7210BD70B5BB
:1039D0000146847A69484FF00006045D01EB040556
:1039E000ED7A405D00EBC400C5B2654850F8250093
:1039F00020F8206F867826EA02068670C370A0F150
:103A0000200032070BD45C4A90F828309679334373
:103A100093711C3290F82760135D33431355FFF701
:103A2000C6FF284670BD30B5534C00F10B02616AE9
:103A300041F81C0F8B7AC97A9D5C0D439D54616AD5
:103A4000827A26318B781A438272087804F11C033B
:103A50004D781A5C2639AA431A5404D191F82810DB
:103A6000A0798843A07130BD002282720B301146CC
:103A7000491CC9B200F8012B0429F9D3704705E0AD
:103A800011F8013B521E00F8013B92B2002AF7D117
:103A900070472DE9F05F9846DDE90ABA91460D4678
:103AA000064600F09BFC344FBC6A002C53D00C340B
:103AB000A168B96200F096FC44F80C5C26760025FB
:103AC000A575E575A582C4F800B044E902A90C9873
:103AD000A080A4F80680F0086577A076012306F0A0
:103AE000070103FA00F26176227703FA01F2E27627
:103AF00025612562A5626562E5623F20256384F841
:103B0000340084F835500C3C204600F0F9FC204687
:103B100000F0B8FC00F062FC0146194840F826406D
:103B2000386BC4E9050500B184613C632634BA7979
:103B3000A0781043B871104A20781C326478135C66
:103B400023431354387A401C3872084600F04AFC6C
:103B50000020BDE8F09F00F045FC4220F9E706494F
:103B6000064A01F11C038879105C1B5CD25C02EBF5
:103B7000C0004871704700006000002078490008CC
:103B8000601C00202DE9F05F0C4605461F2801D37C
:103B9000FF2D01D11F2C02D32A20BDE8F09F00F099
:103BA0001DFCDFF8FCC303465CF8240020B1184676
:103BB00000F018FC2820F0E7FF2D03D1F948006839
:103BC00090F824505CF825201AB3012A26D0E10889
:103BD000012000FA01F604F0070AF7B200FA0AF031
:103BE000C6B200204CF825004CF8242092F826C0DC
:103BF000DFF8B4E392F8275092F828901EF80C00F2
:103C0000284221D0A843DFF8A4B30EF80C000AD054
:103C10000FE0184600F0E6FB2920BEE7184600F04A
:103C2000E1FB4320B9E79BF8000020EA09008BF88C
:103C300000009BF8000038438BF800001EF801805C
:103C400048EA06080EF80180D06998B100EB0C082C
:103C500098F80BC03CEA050C88F80BC003D1857AB4
:103C600025EA09058572857A3D4385720844C57A3F
:103C70003543C57202F8244F1846917082F801A0AE
:103C80001771D67000F0AEFBC9480078012801D149
:103C9000FFF7BAFD002080E72DE9FE431C461646DB
:103CA0000F4680461F2B02D92A20BDE8FE8300F074
:103CB00095FBC049097819B100F094FB3C20F4E76A
:103CC000B74D55F8241019B100F08CFB2820ECE713
:103CD000012145F8241000F085FB002332463946C7
:103CE000404600F0D3FB002601460096019633467D
:103CF000324620460296FFF7CCFE070007D000F0C0
:103D00006DFB45F8246000F06DFB3846CDE7A84810
:103D100000780128F9D1FFF777FDF6E7D30707D040
:103D2000920705D50022002902D004C0491EFAE7F7
:103D300070472DE9FF4F83B01C46DDE91386DDE9AE
:103D4000119792468B461F2B03D92A2007B0BDE856
:103D5000F08F00F043FB9749097819B100F042FB5E
:103D60003C20F3E78E4D55F8241019B100F03AFBD2
:103D70002820EBE7012145F8241000F033FB324600
:103D800039464846FFF7CAFF33465246594603981C
:103D900000F07CFB0097CDE9018601464A462046AB
:103DA000109BFFF776FE060008D000F017FB0021FD
:103DB00045F8241000F016FB3046C7E77C48007831
:103DC0000128F9D1FFF720FDF6E72DE9F047054678
:103DD0007848007810B14020BDE8F0871F2D04D04E
:103DE00005D3FF2D03D02A20F6E73E20F4E700F0AC
:103DF000F5FA0646FF2D03D16A48006890F8245072
:103E0000DFF89C9159F825405CB1012C0ED094F854
:103E10002610654A94F82730505C984350540AD0D5
:103E20000FE0304600F0DEFA4320D5E7304600F0E0
:103E3000D9FA3D20D0E75D4894F8282001789143D5
:103E40000170E16911B12046FFF7B1FD4FF00008A4
:103E5000A4F82080584F84F8228084F82380387892
:103E6000FF2801D2401C3870304600F0BBFAFFF743
:103E70009DFD00F0B3FA0646387808B1401E387050
:103E8000204600F000FB4D490878401E087049F8B4
:103E90002580A0694146A0B162694261D4E905026A
:103EA000826147480268626104603F2004F8400F65
:103EB0003046617000F096FA3D480078012806D03F
:103EC00007E060693F4A816160691060E9E7FFF7D8
:103ED0009BFC002080E710B504461F2804D00FD3B8
:103EE000FF2803D02A2010BD3E2010BD00F076FA36
:103EF0002C49096891F8294000F074FA204610BD59
:103F000000F06CFA264951F8241041B101290AD079
:103F10003F2281F8292000F065FA002010BD00F052
:103F200061FA432010BD00F05DFA3D2010BD2DE97F
:103F3000F0410F46054614002FD01F2D03D9FF2D49
:103F400001D02A2006E027B11A48007820B11120BC
:103F500000E00C20107020E000F040FA0646FF2D33
:103F600003D11048006890F824500D4850F82510EF
:103F7000432571B101290CD040313846FFF79EFA34
:103F80000546304600F02EFA002020702846BDE895
:103F9000F081304600F026FA25700020F7E7000097
:103FA000601C0020840000207C00002066000020AF
:103FB00067000020620000206300002068000020ED
:103FC00088000020900000202DE9F0418846054639
:103FD0001400DCD01F2D03D9FF2D01D02A2006E0CC
:103FE000B8F1000F05D09448007820B1122010706D
:103FF000CDE70C20FBE700F0F1F90646FF2D03D1D9
:104000008E48006890F824508D48432750F825507A
:104010005DB1012D09D04046FFF78EFA0F2809D96E
:10402000304600F0DFF941200DE0304600F0DAF9CB
:104030002770ACE7414605F14000FFF73FFA3046F4
:1040400000F0D0F900202070A1E710B504461F2829
:1040500001D32A2010BD00F0C1F9794951F824108C
:1040600059B101290DD091F82220130728D532F03B
:10407000080281F8222008D009E000F0B3F94620B8
:1040800010BD00F0AFF9432010BD0A8C1AB100F04A
:10409000A9F9002010BD6B4A26318B781478234390
:1040A00013700A78684B49789C5C0C439C5400F070
:1040B00099F9664800780128EBD1FFF7A5FBE8E7FE
:1040C00000F090F9442010BD2DE9F0410E46044661
:1040D0001F2803D9FF2C01D02A2058E746B1002021
:1040E0003060706000F07AF90146FF2C02D005E0E4
:1040F00009204CE75148006890F82440504850F897
:10410000240058B1012809D0027CD2070BD0D0E995
:1041100002570024084600F065F90AE0084600F05E
:1041200061F9432033E7084600F05CF945202EE7AB
:10413000641C01CD0028FBD0A0003060381B80003B
:104140007060002023E770B504461F2804D005D313
:10415000FF2C03D02A2070BD472070BD00F03EF92F
:1041600001463648FF2C006805D090F82400A04294
:1041700004D1012503E090F82440FAE700253048F7
:1041800050F8240058B101280ED090F826202E4C6B
:1041900090F82760A35CB343A3540AD00FE008460D
:1041A00000F020F9482070BD084600F01BF94320BC
:1041B00070BD244A90F828401378A343137010F878
:1041C000222F42F008020270084600F00BF9012D80
:1041D00001D1FFF719FB002070BD70B50E460446F3
:1041E0001F2803D9FF2C01D02A2070BD2EB100F06A
:1041F000F5F80546FF2C02D005E0092070BD0F48F8
:10420000006890F824400E4850F8241051B101295C
:104210000DD050223046FFF732FC284600F0E2F87D
:10422000002070BD284600F0DDF8292070BD28462A
:1042300000F0D8F8432070BD620000208400002008
:10424000601C0020660000207C0000206700002029
:1042500070B504465B48007800281DD1002C1BD0A7
:1042600000F0BCF803465848584D016891F82620E4
:1042700091F82760A85CB043A85405D1544891F840
:1042800028500278AA4302700C84184600F0AAF85D
:10429000BDE87040FFF7B8BA70BD70B5494C2478DE
:1042A0000CB1552070BD00B919B13B2902D951207C
:1042B00070BD1AB13B2A02D9522070BD2BB14FF408
:1042C0007A74A34203D3532070BD542070BD4FF4C1
:1042D0007A756B43B3FBF4F34FF461646043C1EB55
:1042E000011100EB8100104400EB4001C1EBC01054
:1042F00003EBC000040C80B2FFF7AAFF4FF40045A7
:1043000007E02846FFF7A4FF2846FFF7A1FF641E39
:10431000A4B2002CF5D1002070BD10B504461F28B2
:1043200001D32A2010BD00F059F82A4951F8241071
:1043300091B1012910D00A8C92B100230B8491F81D
:10434000222012F0370F0FD022F0370281F82220FE
:10435000012281F8232009E000F044F8432010BD39
:1043600000F040F8502010BD81F8233091F8222051
:10437000120710D4164A26318B7814782343137011
:104380000A78124B49789C5C0C439C5400F02AF844
:10439000FFF73AFA01E000F025F8002010BD10B553
:1043A00000F01CF80C490C6800F01CF8204610BD09
:1043B00010B5044600F012F807490C60BDE8104043
:1043C00000F010B862000020840000207C00002073
:1043D00066000020601C002094000020EFF3108095
:1043E00072B6704780F3108870471D484FF0FF0188
:1043F0000170002080F309881A48012101701A48D1
:104400004FF08051016062B6FEE717484FF08051CF
:104410000160704714484FF080510160704772B6D8
:10442000EFF3098028B1203880E8F00F0F490968C0
:10443000086000B50E4880475DF804EB0D480E4952
:104440000A78027009480D490A680260106890E80D
:10445000F00F203080F309884EF0040E62B67047EA
:1044600022ED00E06700002004ED00E08400002061
:10447000FF44000864000020650000208C0000203C
:104480007047704770477047704770474FF08073B0
:104490001360131F1860A2F108006FF0010303609E
:1044A000001F4FF012330360001F4FF0033303600F
:1044B000001F4FF002330360001F5B100360001FFA
:1044C0000160001F4FF011310160001F19010160F0
:1044D000001F4FF009310160001FD9000160001F6B
:1044E0004FF007310160001F4FF006310160001FDF
:1044F0004FF0053101609900001F0160704770475F
:1045000070477047FFF76DB9FFF79EB980B2FFF7AC
:104510009FBE10B56FF00400FCF75BFB2648092135
:104520000122017042804FF0E02042F228310269FE
:1045300042F0020202614161016941F00101016141
:1045400010BD2DE9F0414FF0E02700247E691A49A3
:10455000097800FB01F5FFF744F9B969B8698842A9
:10456000FCD002D2A1EB000102E0A6EB0002114454
:104570000C440146AC42F1D3BDE8F041FFF764B909
:1045800070B504460D48007878B10D48007860B9E0
:10459000094D6888844203D3B4FBF0F0FFF7B6FFFF
:1045A0006888B4FBF0F100FB11444FF47A7060436B
:1045B000BDE87040C5E700009800002067000020BB
:1045C0006200002040EA01039B0703D009E008C90C
:1045D000121F08C0042AFAD203E011F8013B00F8C8
:1045E000013B521EF9D27047D2B201E000F8012B14
:1045F000491EFBD270470022F6E710B513460A4663
:1046000004461946FFF7F0FF204610BD30B50446BA
:104610000020034600E05B1C934203D2E05CCD5CCB
:10462000401BF8D030BD30B50B460146002020229B
:10463000012409E021FA02F59D4205D303FA02F5AF
:10464000491B04FA02F52844151EA2F10102F1DC0F
:1046500030BD0000064C074D06E0E06840F0010365
:1046600094E8070098471034AC42F6D3FBF764FD9A
:10467000784A0008984A00080FB4054B10B503A902
:10468000044A029800F018F810BC5DF814FB000012
:10469000090300089C00002002E008C8121F08C19E
:1046A000002AFAD170477047002001E001C1121FB3
:1046B000002AFBD1704700002DE9FF4F8BB09A46CE
:1046C0000F4605460026C9E0252837D100246D1C79
:1046D0006649A04601222B78203B02FA03F00842EB
:1046E00002D004436D1CF6E728782E2817D115F860
:1046F000010F44F004042A280ED06FF02F0228780E
:10470000A0F1300109290AD808EB880102EB410128
:1047100000EB01086D1CF2E757F8048B6D1C28783C
:1047200069283FD006DC002871D063280CD06428AB
:1047300004D137E0732811D075284ED052460D9918
:10474000904706F1010688E017F8040B8DF8000089
:1047500000208DF80100E946012003E057F8049B92
:104760004FF0FF3061074FF0000401D40AE0641CF1
:1047700044450DDA8442FADB19F804100029F6D119
:1047800006E0641C8442FCDB19F804100029F8D10F
:10479000264404E019F8010B52460D999047641E17
:1047A000F8D25AE001CF4FF00A0B002804DAC0F12A
:1047B00000004FF02D0102E0210504D52B218DF8DA
:1047C0002410012103E0E10705D02021F7E70DF1D6
:1047D000200908910CE00021F9E701CF4FF00A0B06
:1047E000F9E75946FFF71FFF01F1300209F8012DE3
:1047F0000028F6D1ADEB090000F1200B600701D4D1
:104800004FF00108D84503DDA8EB0B0001E029E0DB
:1048100000208046002406E009A85246005D0D995C
:104820009047761C641C08988442F5DB04E0302035
:1048300052460D999047761CB8F10001A8F1010885
:10484000F5DC05E019F8010B52460D999047761CEE
:10485000BBF10001ABF1010BF4DC6D1C28780028E2
:104860007FF432AF0FB03046BDE8F08F0928010069
:1048700000A24A04555555000000005555555555A0
:10488000550000000155555555555500000100557E
:10489000555555555500000101555555555555006F
:1048A0000002005555555555550000020155555506
:1048B00055555500000300555555555555000003F5
:1048C00001555555AAAAAA00000000AAAAAAAAAA98
:1048D000AA00000001AAAAAAAAAAAA00010000AA86
:1048E000AAAAAAAAAA00010001AAAAAAAAAAAA0078
:1048F000020000AAAAAAAAAAAA00020001AAAAAAB9
:10490000AAAAAA00030000AAAAAAAAAAAA000300A7
:1049100001AAAAAAAAAAAA00040000AAAAAAAAAA44
:10492000AA00040001AAAAAAAAAAAA00040002AA2C
:10493000AAAAAAAAAA00050000AAAAAAAAAAAA0024
:10494000050001AAAAAAAAAAAA00050002AAAAAA60
:104950002B2B2B0041542B47573D0041542B4950E2
:104960003D0041542B4D533D0041542B53503D00CD
:1049700041542B53484F5700000001000200010032
:104980000300010002000100040001000200010018
:104990000300010002000100050001000200010007
:1049A00003000100020001000400010002000100F8
:1049B00003000100020001000600010002000100E6
:1049C00003000100020001000400010002000100D8
:1049D00003000100020001000500010002000100C7
:1049E00003000100020001000400010002000100B8
:1049F00003000100020001000700010002000100A5
:104A00000300010002000100040001000200010097
:104A10000300010002000100050001000200010086
:104A20000300010002000100040001000200010077
:104A30000300010002000100060001000200010065
:104A40000300010002000100040001000200010057
:104A50000300010002000100050001000200010046
:104A60000300010002000100040001000200010037
:104A70000300010002000100984A00080000002025
:104A8000A000000098460008384B0008A000002055
:104A9000E0230000A8460008000002040608000009
:104AA00000000102030401020304060708090000D4
:104AB00000000000000000000300000000000000F3
:104AC00000000000000000000000000000000000E6
:104AD00000000000000000000008000000000000CE
:104AE00000000000000000000000000000000000C6
:104AF00000000000000000000000000000000000B6
:104B000000000000000000000000000000000000A5
:104B10000000000000000000000000000000000095
:104B20000000000000000000000000000000000085
:084B300000000000000000007D
:0400000508000147A7
:00000001FF
